:100000000C942A000C9447000C9447000C94470071
:100010000C9447000C9447000C9447000C94470044
:100020000C9447000C9447000C9447000C94470034
:100030000C9447000C94D3090C9447000C94120ABA
:100040000C9447000C9447000C9447000C94470014
:100050000C94470011241FBECFE5D8E0DEBFCDBF12
:1000600015E0A0E6B0E0EEEBFBE302C005900D92D8
:10007000AA35B107D9F715E0AAE5B5E001C01D9290
:10008000A439B107E1F70E94AD1C0C94DD1D0C945E
:100090000000EF92FF920F931F937B018C0120E0F1
:1000A00030E040E050E00E94E50488230CF05CC0A2
:1000B000C801B70190580E94BD002195E1E01216D9
:1000C00008F0E0E03195F1E0131608F0F0E0E32EDF
:1000D000EE1AE1E03E1508F0E0E0FE2B4195A1E0CC
:1000E000141608F0A0E0F42EFF1AE1E04F1508F016
:1000F000E0E0AE2B5195F1E0151608F0F0E0052F89
:100100000A1BE1E0501708F0E0E0FE2B6195A1E04A
:10011000161608F0A0E0162F1F1BE1E0611708F08B
:10012000E0E0AE2B7195F1E0171608F0F0E0B72F84
:10013000BA1BE1E07B1708F0E0E0FE2B8195A1E01F
:10014000181608F0A0E0382F3F1BF32FE1E08317CB
:1001500008F0E0E0AE2B91953E2D4F2D502F612FF2
:100160007B2F8F2F9A1B04C0C801B7010E94BD00CE
:100170001F910F91FF90EF900895A0E0B0E0E3ECA5
:10018000F0E00C94A61D7B018C0120E030E040E8FB
:100190005FE30E94E50488234CF4AA24BB24CC240A
:1001A000DD24EE24FF2400E010E086C0C801B70182
:1001B00020E030E040E85FE40E94E504882354F446
:1001C000C801B7010E940E075B016C01EE24FF24F9
:1001D000870172C0C801B70120E030E040E85FE568
:1001E0000E94E50487FD0FC0AA24AA94BB24BA94F8
:1001F000CC24CA94DD24DA94EE24EA94FF24FA9401
:100200000FEF1FEF59C0C801B70120E030E040E810
:100210005FE20E940F037B018C0122243324210121
:1002200090E1A92EB12CC12CD12CC0E0D0E061E02E
:1002300070E080E090E00A2C04C0660F771F881FF2
:10024000991F0A94D2F70E94C7053B014C01C801CF
:10025000B701A40193010E94B504882364F02A2801
:100260003B284C285D28C801B701A40193010E94D6
:1002700009047B018C01D694C794B794A794219666
:10028000C530D105A1F6C801B70120E030E040E853
:100290005FE40E940F030E940E075B016C019B014B
:1002A000A60160E070E080E090E0022D0E94400630
:1002B00059016A017B018C019501A601B701C801B2
:1002C000CDB7DEB7E2E10C94C21DA0E0B0E0EBE6F2
:1002D000F1E00C94A61DDC012B01FA019C919230F7
:1002E00008F439C1EB018881823008F433C19430BD
:1002F00069F4843009F02FC111969C91119789817E
:10030000981709F428C1A5E3B4E025C1843009F4A5
:1003100021C18230A9F4923009F01DC19A01AD01CA
:1003200088E0EA010990AE01E90109929E0181503D
:10033000C1F7E201898111969C918923818308C1CB
:10034000923009F407C112962D903C901397EB015F
:100350008A819B811496AD90BD90CD90DC901797CB
:10036000EC80FD800E811F819101281B390BB901A2
:1003700037FF04C066277727621B730B6032710555
:100380000CF061C0121613066CF537014801062EF9
:1003900004C096948794779467940A94D2F721E0E6
:1003A00030E040E050E004C0220F331F441F551FCF
:1003B0006A95D2F721503040404050402E213F21D5
:1003C00040235123211531054105510521F021E03C
:1003D00030E040E050E079018A01E628F72808295A
:1003E00019293CC0232BD1F1260E371E35014601B9
:1003F000062E04C096948794779467940A94D2F753
:1004000021E030E040E050E004C0220F331F441FE1
:10041000551F6A95D2F721503040404050402A2164
:100420003B214C215D21211531054105510521F06C
:1004300021E030E040E050E059016A01A628B728E9
:10044000C828D9280BC0821593052CF01C01AA24BA
:10045000BB24650103C0EE24FF24870111969C9103
:10046000D20111968C91981709F445C0992339F05F
:10047000A80197012A193B094C095D0906C0A6018C
:1004800095012E193F09400B510B57FD08C01182F1
:100490003382228224833583468357831DC081E0C3
:1004A00081833382228288279927DC01821B930B68
:1004B000A40BB50B84839583A683B7830DC0220F4D
:1004C000331F441F551F24833583468357838281FE
:1004D000938101979383828324813581468157815B
:1004E000DA01C9010197A109B1098F5F9F4FAF4F91
:1004F000BF4328F30BC0918333822282EA0CFB1C9A
:100500000C1D1D1DE482F5820683178383E0808322
:10051000248135814681578157FF1AC0C901AA2716
:1005200097FDA095BA2F81709070A070B07056950D
:10053000479537952795822B932BA42BB52B848336
:100540009583A683B7838281938101969383828367
:10055000DF0101C0D201CD01CDB7DEB7E2E10C94DD
:10056000C21DA0E2B0E0E7EBF2E00C94B21D69839B
:100570007A838B839C832D833E834F835887E9E066
:10058000EE2EF12CEC0EFD1ECE010196B7010E945D
:100590000F088E010F5E1F4FCE010596B8010E9415
:1005A0000F088A8991E089278A8BC701B801AE01BB
:1005B000475E5F4F0E9465010E943A07A096E6E001
:1005C0000C94CE1DA0E2B0E0E8EEF2E00C94B21D77
:1005D00069837A838B839C832D833E834F835887E3
:1005E000F9E0EF2EF12CEC0EFD1ECE010196B701C5
:1005F0000E940F088E010F5E1F4FCE010596B801B5
:100600000E940F08C701B801AE01475E5F4F0E940C
:1006100065010E943A07A096E6E00C94CE1DA0E288
:10062000B0E0E5E1F3E00C94A61D69837A838B8347
:100630009C832D833E834F835887CE010196BE0154
:10064000675F7F4F0E940F08CE010596BE016F5E67
:100650007F4F0E940F089985923088F089898230F7
:10066000C8F0943019F4823051F404C0843029F475
:10067000923081F485E394E0C6C0923049F420E0E2
:100680009A858A89981321E02A87CE010996BBC0F2
:10069000823049F420E09A858A89981321E02A8BD8
:1006A000CE014196B0C02D843E844F8458886D8819
:1006B0007E888F88988CEE24FF248701AA24BB248F
:1006C000650140E050E060E070E0E0E0F0E0C10192
:1006D00081709070892BE9F0E60CF71C081D191D3C
:1006E0009A01AB012A0D3B1D4C1D5D1D80E090E081
:1006F000A0E0B0E0E614F7040805190520F481E055
:1007000090E0A0E0B0E0BA01A901480F591F6A1FAC
:100710007B1FAA0CBB1CCC1CDD1C97FE08C081E013
:1007200090E0A0E0B0E0A82AB92ACA2ADB2A3196D4
:10073000E032F10549F0660C771C881C991C569430
:10074000479437942794C3CFFA85EA892B893C894B
:100750008B859C85280F391F2E5F3F4F17C0CA011C
:1007600081709070892B61F016950795F794E79446
:1007700080E090E0A0E0B0E8E82AF92A0A2B1B2BE1
:1007800076956795579547952F5F3F4F77FDE7CF54
:100790000CC0440F551F661F771F17FD4160EE0CFC
:1007A000FF1C001F111F21503040403090E05907BE
:1007B00090E0690790E4790760F32B8F3C8FDB01B1
:1007C000CA018F779070A070B07080349105A10538
:1007D000B10561F447FD0AC0E114F10401051105FA
:1007E00029F0405C5F4F6F4F7F4F40781A8EFE17A5
:1007F00011F081E08A8F4D8F5E8F6F8F78A383E039
:10080000898FCE0149960E943A07A096E2E10C94A6
:10081000C21DA8E1B0E0EFE0F4E00C94AE1D6983E6
:100820007A838B839C832D833E834F835887B9E0E3
:10083000EB2EF12CEC0EFD1ECE010196B7010E94AD
:100840000F088E010F5E1F4FCE010596B8010E9462
:100850000F082985223008F47EC03989323010F41F
:10086000B8017CC08A859A8989278A87243011F04B
:10087000223031F4231709F06EC065E374E06EC0D6
:10088000343039F41D861E861F86188A1C861B8606
:1008900004C0323021F484E08987B7015FC02B8522
:1008A0003C858B899C89281B390B3C872B87ED84E1
:1008B000FE840F851889AD88BE88CF88D88CEA144D
:1008C000FB040C051D0540F4EE0CFF1C001F111F5E
:1008D000215030403C872B8720E030E040E050E062
:1008E00080E090E0A0E0B0E460E070E0EA14FB0497
:1008F0000C051D0540F0282B392B4A2B5B2BEA18E1
:10090000FB080C091D09B695A79597958795EE0CE0
:10091000FF1C001F111F6F5F7F4F6F31710531F793
:10092000DA01C9018F779070A070B07080349105A2
:10093000A105B10561F427FD0AC0E114F104010528
:10094000110529F0205C3F4F4F4F5F4F20782D87D6
:100950003E874F87588BBE01675F7F4FCB010E9458
:100960003A076896EAE00C94CA1DA8E1B0E0EBEB08
:10097000F4E00C94B21D69837A838B839C832D836E
:100980003E834F83588789E0E82EF12CEC0EFD1E44
:10099000CE010196B7010E940F088E010F5E1F4F16
:1009A000CE010596B8010E940F088985823040F07B
:1009B0008989823028F0C701B8010E94870801C0E8
:1009C0008FEF6896E6E00C94CE1DA8E1B0E0EBEE68
:1009D000F4E00C94B21D69837A838B839C832D830E
:1009E0003E834F83588789E0E82EF12CEC0EFD1EE4
:1009F000CE010196B7010E940F088E010F5E1F4FB6
:100A0000CE010596B8010E940F088985823040F01A
:100A10008989823028F0C701B8010E94870801C087
:100A200081E06896E6E00C94CE1DA8E0B0E0EBE132
:100A3000F5E00C94AF1D9B01AC0183E08983DA01E2
:100A4000C9018827B7FD83959927AA27BB27B82E08
:100A5000211531054105510519F482E089833AC019
:100A60008823A9F0203080E0380780E0480780E83C
:100A7000580729F460E070E080E09FEC30C0EE247D
:100A8000FF248701E21AF30A040B150B02C0790157
:100A90008A018EE1C82ED12CDC82CB82ED82FE82CF
:100AA0000F831887C801B7010E94BF060197181667
:100AB000190684F4082E04C0EE0CFF1C001F111F41
:100AC0000A94D2F7ED82FE820F831887C81AD90ADA
:100AD000DC82CB82BA82CE0101960E943A07289628
:100AE000E9E00C94CB1DACE0B0E0E9E7F5E00C9454
:100AF000B61D69837A838B839C83CE010196BE01E8
:100B00006B5F7F4F0E940F088D81823061F18230D0
:100B100050F1843021F48E81882351F12EC02F8131
:100B2000388537FD20C06E812F3131051CF06623DA
:100B3000F9F023C08EE190E0821B930B29853A8562
:100B40004B855C8504C056954795379527958A95C2
:100B5000D2F76623B1F050954095309521953F4FDF
:100B60004F4F5F4F0EC020E030E040E050E009C042
:100B70002FEF3FEF4FEF5FE704C020E030E040E0B1
:100B800050E8B901CA012C96E2E00C94D21DA8E00D
:100B9000B0E0EDECF5E00C94AE1D7B018C0161152D
:100BA00071058105910519F482E0898360C083E0B5
:100BB00089838EE1C82ED12CDC82CB82ED82FE822D
:100BC0000F831887C801B7010E94BF06FC01319747
:100BD000F7FF3BC0222733272E1B3F0B570168012D
:100BE000022E04C0D694C794B794A7940A94D2F75F
:100BF00040E050E060E070E081E090E0A0E0B0E034
:100C000004C0880F991FAA1FBB1F2A95D2F701970E
:100C1000A109B1098E219F21A023B1230097A1052D
:100C2000B10521F041E050E060E070E04A295B2925
:100C30006C297D294D835E836F8378878EE190E0F8
:100C40008E1B9F0B9C838B8312C0309781F00E2EDE
:100C500004C0EE0CFF1C001F111F0A94D2F7ED8296
:100C6000FE820F831887CE1ADF0ADC82CB821A82BB
:100C7000CE0101960E943A072896EAE00C94CA1D1C
:100C8000EF92FF920F93DF93CF93CDB7DEB76097CC
:100C90000FB6F894DEBF0FBECDBFA82F002309F416
:100CA00061C07E010894E11CF11C88E0F7011192FB
:100CB0008A95E9F729833A834B835C836D837E832E
:100CC000AF83988780E2801BE82FFF27E7FDF09530
:100CD00049815A816B817C81181684F019861A86A5
:100CE0001B861C86882799278E1B9F0B04C0440FE8
:100CF000551F661F771F8A95D2F728C0202F3327EC
:100D000027FD3095DB01CA01022E04C0880F991F10
:100D1000AA1FBB1F0A94D2F789879A87AB87BC8723
:100D200004C07695679557954795EA95D2F78D81DA
:100D30009E81AF81B88504C0880F991FAA1FBB1F71
:100D40002A95D2F7482B592B6A2B7B2B4D875E8730
:100D50006F87788B29853A854B855C856D857E8587
:100D6000AF8598898A2F60960FB6F894DEBF0FBEC4
:100D7000CDBFCF91DF910F91FF90EF900895EF924B
:100D8000FF920F931F937B018C0180E0E81680E0B7
:100D9000F80681E0080780E0180788F48FEFE8166E
:100DA000F1040105110531F028F088E090E0A0E0A1
:100DB000B0E017C080E090E0A0E0B0E012C080E0BA
:100DC000E81680E0F80680E0080781E0180728F0C0
:100DD00088E190E0A0E0B0E004C080E190E0A0E015
:100DE000B0E020E230E040E050E0281B390B4A0B35
:100DF0005B0B04C016950795F794E7948A95D2F794
:100E0000F701E35CFB4F8081281B3109410951093F
:100E1000C9011F910F91FF90EF900895EF92FF92FB
:100E20000F931F937B018C0120E030E040E05FE4F2
:100E30000E94B50488238CF0C801B70120E030E09F
:100E400040E05FE40E94B1020E9473059B01AC0187
:100E5000205030404040504806C0C801B7010E94B1
:100E600073059B01AC01B901CA011F910F91FF905D
:100E7000EF900895DF92EF92FF920F931F93FC0182
:100E8000E480F58006811781D1808081823048F42A
:100E900080E090E0A0E1B0E0E82AF92A0A2B1B2BC1
:100EA000A5C0843009F49FC0823021F4EE24FF24D1
:100EB000870105C0E114F1040105110519F4E0E012
:100EC000F0E096C0628173819FEF623879070CF081
:100ED0005BC022E83FEF261B370B2A3131052CF08F
:100EE00020E030E040E050E02AC0B801A701022E27
:100EF00004C076956795579547950A94D2F781E097
:100F000090E0A0E0B0E004C0880F991FAA1FBB1FAB
:100F10002A95D2F70197A109B1098E219F21A0231B
:100F2000B1230097A105B10521F081E090E0A0E098
:100F3000B0E09A01AB01282B392B4A2B5B2BDA014D
:100F4000C9018F779070A070B07080349105A105B1
:100F5000B10539F427FF09C0205C3F4F4F4F5F4F69
:100F600004C0215C3F4F4F4F5F4FE0E0F0E0203086
:100F7000A0E03A07A0E04A07A0E45A0710F0E1E039
:100F8000F0E079018A0127C06038710564F5FB0142
:100F9000E158FF4FD801C7018F779070A070B070F3
:100FA00080349105A105B10539F4E7FE0DC080E458
:100FB00090E0A0E0B0E004C08FE390E0A0E0B0E0FB
:100FC000E80EF91E0A1F1B1F17FF05C0169507958F
:100FD000F794E794319687E016950795F794E79490
:100FE0008A95D1F705C0EE24FF248701EFEFF0E0EA
:100FF0006E2F679566276795902F9F77D794DD248E
:10100000D7948E2F8695492F462B582F5D29B701EF
:10101000CA011F910F91FF90EF90DF900895FC019E
:10102000DB01408151812281622F6F7770E0221FA6
:101030002227221F9381892F880F822B282F30E0AF
:10104000991F9927991F11969C9311972115310586
:10105000A9F5411551056105710511F482E037C00C
:1010600082E89FEF13969C938E9312979A01AB019F
:1010700067E0220F331F441F551F6A95D1F783E0A5
:101080008C930DC0220F331F441F551F12968D9154
:101090009C911397019713969C938E9312972030EF
:1010A00080E0380780E0480780E4580758F314963A
:1010B0002D933D934D935C93179708952F3F3105E2
:1010C00079F4411551056105710519F484E08C939B
:1010D000089564FF03C081E08C9312C01C9210C07D
:1010E0002F57304013963C932E93129783E08C93A6
:1010F00087E0440F551F661F771F8A95D1F77064EC
:1011000014964D935D936D937C93179708951F9359
:10111000DC01FB019C91923008F447C08081823051
:1011200008F443C0943051F411961C91843099F521
:101130008181682F70E0611B71093FC0843021F00C
:10114000923031F48230B9F18181882389F12DC048
:1011500011961C9111978230F1F081811817D9F402
:1011600012962D913C911397828193818217930758
:1011700094F028173907BCF014968D919D910D902D
:10118000BC91A02D248135814681578128173907CC
:101190004A075B0718F4112341F00AC0821793072E
:1011A000A407B50740F4112319F061E070E005C011
:1011B0006FEF7FEF02C060E070E0CB011F910895F8
:1011C000599810BC83E389B95898529886E880BD35
:1011D000579856985598549A539A0895282F809165
:1011E0005C05882311F083E0089580E090E0A0E0A2
:1011F000B0E003C00196A11DB11D5D9909C0803109
:1012000037E2930730E0A30730E0B30799F708C04F
:1012100080519742A040B04019F02CB980E001C045
:1012200084E010925C050895FC01009711F482E0BF
:10123000089580915C05882311F083E0089580E093
:1012400090E0A0E0B0E003C00196A11DB11D5F9940
:1012500009C0803127E2920720E0A20720E0B20710
:1012600099F709C080519742A040B04021F08CB15D
:10127000808380E001C084E010925C0508950F93A4
:101280001F93CF93DF93009711F482E014C0EC0119
:1012900008EC10E00DC00E94EE0828EE33E0F801E3
:1012A0003197F1F721503040D1F72196882319F476
:1012B0008881882381F7DF91CF911F910F91089545
:1012C000FC0180915C05882311F083E0089530973C
:1012D000A9F06115710591F081E080935C05F093B0
:1012E0005B05E0935A0570935E0560935D0510926F
:1012F000620580818CB9569A80E0089582E0089555
:10130000AF92BF92CF92DF92EF92FF920F931F9313
:10131000CF93DF93EC015A016B01009711F482E047
:1013200016C0EE24FF2487010CC0CE018E0D9F1D38
:101330000E941409882359F40894E11CF11C011D32
:10134000111DEA14FB040C051D0578F380E0DF9104
:10135000CF911F910F91FF90EF90DF90CF90BF90B2
:10136000AF900895BC0180915C05882311F083E063
:10137000089561157105A9F02115310591F081E0FD
:1013800080935C057093600560935F0530935E0504
:1013900020935D054093610510926205579A80E0A5
:1013A000089582E008951F920F920FB60F921124B4
:1013B0002F933F934F935F936F937F938F939F935D
:1013C000AF93BF93EF93FF93909162058CB1E0913F
:1013D0005F05F0916005E90FF11D80839F5F909399
:1013E000620580916105981761F410926205109270
:1013F0005C05E0915D05F0915E05309709F0099577
:101400005798FF91EF91BF91AF919F918F917F91ED
:101410006F915F914F913F912F910F900FBE0F9061
:101420001F9018951F920F920FB60F9211242F93B1
:101430003F934F935F936F937F938F939F93AF935C
:10144000BF93EF93FF93809162058F5F8093620556
:10145000E0915A05F0915B05E80FF11DE081EE2364
:1014600069F41092620510925C05E0915D05F091BF
:101470005E05309709F00995569801C0ECB9FF91C7
:10148000EF91BF91AF919F918F917F916F915F91FC
:101490004F913F912F910F900FBE0F901F90189575
:1014A0009FBB8EBB6DBBE29AE19AE199FECF089596
:1014B0008EBB9FBBE09A8DB30895843008F077C04F
:1014C000683008F074C04130B1F5813099F0813056
:1014D00030F08230D1F0833009F06BC021C02AB3E4
:1014E00081E090E002C0880F991F6A95E2F7282BEF
:1014F0002ABB5BC027B381E090E002C0880F991F30
:101500006A95E2F7282B27BB50C024B381E090E016
:1015100002C0880F991F6A95E2F7282B24BB45C0AB
:1015200021B381E090E002C0880F991F6A95E2F72D
:10153000282B21BB3AC04423D1F5813099F081306A
:1015400028F08230D9F08330A1F524C02AB381E09D
:1015500090E002C0880F991F6A95E2F78095822378
:101560008ABB23C027B381E090E002C0880F991F97
:101570006A95E2F78095822387BB17C024B381E088
:1015800090E002C0880F991F6A95E2F78095822348
:1015900084BB0BC021B381E090E002C0880F991F8B
:1015A0006A95E2F78095822381BB81E0089580E00F
:1015B000089581E00895843008F077C0683008F01D
:1015C00074C04130B1F5813099F0813030F0823013
:1015D000D1F0833009F06BC021C02BB381E090E0E3
:1015E00002C0880F991F6A95E2F7282B2BBB5BC0BE
:1015F00028B381E090E002C0880F991F6A95E2F756
:10160000282B28BB50C025B381E090E002C0880F92
:10161000991F6A95E2F7282B25BB45C022B381E0CC
:1016200090E002C0880F991F6A95E2F7282B22BB31
:101630003AC04423D1F5813099F0813028F08230CE
:10164000D9F08330A1F524C02BB381E090E002C033
:10165000880F991F6A95E2F7809582238BBB23C080
:1016600028B381E090E002C0880F991F6A95E2F7E5
:101670008095822388BB17C025B381E090E002C02B
:10168000880F991F6A95E2F78095822385BB0BC06E
:1016900022B381E090E002C0880F991F6A95E2F7BB
:1016A0008095822382BB81E0089580E0089581E0E7
:1016B0000895FA01843028F5683018F5813049F032
:1016C000813028F0823039F08330C9F406C029B364
:1016D00005C026B303C023B301C020B381E090E06E
:1016E000062E02C0880F991F0A94E2F730E0822389
:1016F000932302C0959587956A95E2F7808381E0F0
:10170000089580E008958430C0F56830B0F58130E8
:1017100091F0813028F08230C9F0833061F521C02A
:101720002BB381E090E002C0880F991F6A95E2F721
:1017300028272BBB20C028B381E090E002C0880F8F
:10174000991F6A95E2F7282728BB15C025B381E0C9
:1017500090E002C0880F991F6A95E2F7282725BB01
:101760000AC022B381E090E002C0880F991F6A95F9
:10177000E2F7282722BB81E0089580E008958430B5
:1017800008F08FC0683008F08CC0813049F181309A
:1017900038F0823009F444C0833009F080C060C062
:1017A000413091F480B78B7F80BF3AB381E090E005
:1017B00002C0880F991F6A95E2F7282F20952323EE
:1017C0002ABB2BB3822B0AC02BB381E090E002C06E
:1017D000880F991F6A95E2F7809582238BBB5FC0C3
:1017E000413091F480B78B7F80BF37B381E090E0C8
:1017F00002C0880F991F6A95E2F7282F20952323AE
:1018000027BB28B3822B0AC028B381E090E002C036
:10181000880F991F6A95E2F78095822388BB3FC0A5
:10182000413091F480B78B7F80BF34B381E090E08A
:1018300002C0880F991F6A95E2F7282F209523236D
:1018400024BB25B3822B0AC025B381E090E002C0FF
:10185000880F991F6A95E2F78095822385BB1FC088
:10186000413091F480B78B7F80BF31B381E090E04D
:1018700002C0880F991F6A95E2F7282F209523232D
:1018800021BB22B3822B0AC022B381E090E002C0C8
:10189000880F991F6A95E2F78095822382BB81E0C9
:1018A000089580E00895843090F4813049F08130CB
:1018B00028F0823039F0833051F406C06ABB05C08D
:1018C00067BB03C064BB01C061BB81E0089580E0D9
:1018D0000895843090F4813049F0813028F08230CE
:1018E00039F0833051F406C06BBB05C068BB03C040
:1018F00065BB01C062BB81E0089580E00895FB01F3
:10190000843098F4813049F0813028F0823039F009
:10191000833059F406C089B305C086B303C083B3CE
:1019200001C080B3808381E0089580E00895843011
:1019300010F080E00895813059F0813028F0823035
:1019400059F0833061F40DC08BB380958BBB07C019
:1019500088B3809588BB03C085B3809585BB81E043
:10196000089582B3809582BB81E00895843010F0A1
:1019700080E008956F70813071F0813028F08230FE
:1019800089F08330A9F416C08BB3807F8BBB8BB3F7
:10199000682B6BBB0DC088B3807F88BB88B3682B76
:1019A00068BB06C085B3807F85BB85B3682B65BBEC
:1019B00081E0089582B3807F82BB82B3682B62BBD3
:1019C00081E00895843010F080E008956295607F92
:1019D000813071F0813028F0823089F08330A9F4B1
:1019E00016C08BB38F708BBB8BB3682B6BBB0DC0DA
:1019F00088B38F7088BB88B3682B68BB06C085B37B
:101A00008F7085BB85B3682B65BB81E0089582B379
:101A10008F7082BB82B3682B62BB81E008958430F3
:101A200010F080E008956F70813071F0813028F0FF
:101A3000823089F08330A9F416C08AB3807F8ABBD4
:101A40008AB3682B6ABB0DC087B3807F87BB87B31F
:101A5000682B67BB06C084B3807F84BB84B3682BCC
:101A600064BB81E0089581B3807F81BB81B3682B23
:101A700061BB81E00895843010F080E008956295A4
:101A8000607F813071F0813028F0823089F08330BE
:101A9000A9F416C08AB38F708ABB8AB3682B6ABB5D
:101AA0000DC087B38F7087BB87B3682B67BB06C039
:101AB00084B38F7084BB84B3682B64BB81E00895CA
:101AC00081B38F7081BB81B3682B61BB81E00895C6
:101AD0008F929F92BF92CF92DF92EF92FF920F93DD
:101AE0001F93DF93CF930F92CDB7DEB7BB24BA9489
:101AF000CC24DD247E010894E11CF11C98EC892E95
:101B0000912C0C2D0C5F82E0602F40E00E94DB0ADC
:101B100082E060E0A7010E94590B8981882311F4BB
:101B200010E01DC082E061E0A7010E94590B89818D
:101B3000882311F411E013C082E062E0A7010E9443
:101B4000590B8981882311F412E009C082E063E017
:101B5000A7010E94590B8981882319F513E084EFAE
:101B600091E0F4013197F1F70197D9F782E0612F05
:101B7000A7010E94590B8981882359F4E12FF0E0D5
:101B8000EE0FFF1FEE0FFF1FEC0DFD1DE35CFA4F84
:101B9000B08082E0612FA7010E94590B89818823C0
:101BA000C1F382E0602F41E00E94DB0A0894C11C6F
:101BB000D11C84E0C816D10409F0A3CF8B2D0F905F
:101BC000CF91DF911F910F91FF90EF90DF90CF9019
:101BD000BF909F908F90089582E060E041E00E9466
:101BE000BF0B82E061E041E00E94BF0B82E062E057
:101BF00041E00E94BF0B82E063E041E00E94BF0B26
:101C000082E06FE00E943B0D82E06FE00E94E20CF8
:101C100008950F931F9380E064E041E00E94DB0A87
:101C200000ED17E0C8010197F1F780E064E040E0C3
:101C30000E94DB0AC8010197F1F71F910F910895E7
:101C40001F93182F80E066E040E00E94DB0A80E0EE
:101C500065E040E00E94DB0A612F62956F7080E0D2
:101C60000E94B60C0E94090E80E0612F0E94B60C03
:101C70000E94090E1F91089588E10E94200E80EDB8
:101C800097E00197F1F708958CE10E94200E80ED16
:101C900097E00197F1F70895982F81508430C0F4B0
:101CA0006623B1F06531A0F4913019F4862F815884
:101CB00010C0923019F4862F81540BC0933019F460
:101CC000862F8D5606C0943021F4862F8D5201C088
:101CD00080E80E94200E80ED97E00197F1F70895CB
:101CE00081E00E94200E80E29EE40197F1F70895C2
:101CF0001F93182F80E066E041E00E94DB0A80E03D
:101D000065E040E00E94DB0A612F62956F7080E021
:101D10000E94B60C0E94090E80E0612F0E94B60C52
:101D20000E94090E1F9108950F931F93CF93DF9385
:101D3000182F062F80E40E94200ECDE4D5E0899173
:101D40000E94780E85E0C535D807C9F7812F602F2E
:101D50000E944C0E10E0812F0E94780E1F5F1830F9
:101D6000D1F7DF91CF911F910F9108956F927F92DC
:101D70008F929F92AF92BF92CF92DF92EF92FF929B
:101D80000F931F935B016C0161157105810591052E
:101D900021F480E30E94780E56C097FF0BC08DE2BD
:101DA0000E94780ED094C094B094A094A11CB11C51
:101DB000C11CD11C81E0682E712C812C912CC40196
:101DC000B3012AE030E040E050E00E943E1D7B017C
:101DD0008C01C601B5010E948B1D3B014C016E0CAC
:101DE0007F1C801E911EC601B5012AE030E040E054
:101DF00050E00E948B1DC901DA015C016D01A11444
:101E0000B104C104D104D9F618C0C401B3012AE059
:101E100030E040E050E00E94691D862F805D0E9406
:101E2000780EC401B3012AE030E040E050E00E94A7
:101E3000691DC901DA013C014D0181E06816710498
:101E40008104910411F71F910F91FF90EF90DF90A3
:101E5000CF90BF90AF909F908F907F906F9008959C
:101E6000EF92FF920F931F937B018C010E947305E9
:101E70000E94B60EC801B70120E030E040E050E01B
:101E80000E94E504882324F417FB109517F9109598
:101E9000C801B7010E9473050E9415059B01AC01A2
:101EA000C801B7010E94B10220E030E44CE156E4E1
:101EB0000E940F037B018C010E944900232B242BDD
:101EC000252B262B272B282B292B49F08EE20E942D
:101ED000780EC801B7010E9473050E94B60E1F91CB
:101EE0000F91FF90EF9008951F93CF93DF93EC0134
:101EF00010E003C00E94780E1F5FFE01E10FF11D8C
:101F000080818823B9F7DF91CF911F9108950F93B6
:101F10001F9384EF91E028EC30E0F9013197F1F75D
:101F20000197D9F780E060E041E00E945D0A80E01F
:101F300061E041E00E945D0A80E062E041E00E94D1
:101F40005D0A80E063E041E00E945D0A80E066E0B7
:101F500041E00E945D0A80E065E041E00E945D0A88
:101F600080E064E041E00E945D0A82E00E94200E71
:101F700080E29EE40197F1F788E20E94200E00EDD6
:101F800017E0C8010197F1F78CE00E94200EC8010C
:101F90000197F1F70E94700E86E00E94200EC801A2
:101FA0000197F1F71F910F910895782F683048F14C
:101FB0009C01F90120E030E040E050E09081892F61
:101FC00081548A3110F421E00CC0892F81568A3166
:101FD00010F431E006C090539A3010F051E001C087
:101FE00041E031968E2F871B861740F3222349F05C
:101FF000332339F0442329F0852F552319F081E04C
:10200000089580E00895809158050895833010F474
:10201000809358050895282F882311F492E006C074
:102020008091660590E0281708F491E0892F0895C3
:10203000982F882349F080916605981728F480E04E
:10204000643018F481E0089580E008958FEF809364
:1020500065051092670508951F93182F0E94700E52
:102060001330A1F0143028F4113051F01230D9F4AB
:102070000AC0153089F0153060F01630A1F40FC099
:1020800080E690E00EC08FE690E00BC08DE790E018
:1020900008C08AE890E005C087E990E002C084EAC1
:1020A00090E00E94740F80E197E228EC30E0F901A3
:1020B0003197F1F70197D9F71F910895AF92BF9229
:1020C000CF92DF92FF920F931F93CF93DF93EB0199
:1020D0005A019AE2899F80011124C801C5960E9485
:1020E000580AF5018083FF2486E3C82ED12CC00E48
:1020F000D11E0CC00F2D10E0C601800F911F0E9451
:10210000580A0C0F1D1FF8018083F394F50180819C
:10211000F81680F3C80FD11D1882DF91CF911F915F
:102120000F91FF90DF90CF90BF90AF900895DF9216
:10213000EF92FF920F931F93DF93CF93CDB7DEB74C
:1021400066970FB6F894DEBF0FBECDBFE82ED92E2E
:10215000F62E0E94D50F8823F1F0809165058E013F
:102160000E5F1F4FB801AE014F5F5F4F0E945E10C0
:102170008981F81681F4D8018E2D9D2D9C01F901DD
:1021800004C091918D91981731F48E2F8E198F156F
:10219000C0F381E001C080E066960FB6F894DEBF20
:1021A0000FBECDBFCF91DF911F910F91FF90EF90A8
:1021B000DF9008951F93CF93DF9310E0C0E0D0E04D
:1021C000CE010E94580A18272196C531D105C1F7C2
:1021D000812FDF91CF911F9108951F9385E190E0AA
:1021E0000E94580A182F0E94DA1090E0181709F47C
:1021F00091E0892F1F91089580E190E00E94580A94
:102200000895EF92FF920F931F93DF93CF930F9256
:10221000CDB7DEB780916705882309F491C07E01B0
:102220000894E11CF11C08EC10E00E94700E81EB98
:1022300090E00E94740F82E061E00E944C0E81ECFD
:1022400090E00E94740F83E061E00E944C0E82EDEA
:1022500090E00E94740F84E061E00E944C0E82EED8
:1022600090E00E94740FC7010E94140980939305A7
:10227000809193058823B9F79981892F8153843000
:1022800090F7923331F1933318F4913371F606C01D
:10229000933309F43CC0943341F652C00E94700E4F
:1022A00089EE90E00E94740F80E190E00E94580A4D
:1022B00081FF03C082EF90E002C089EF90E00E94AE
:1022C000740F80E29EE4F8013197F1F70197D9F796
:1022D000ACCF0E94700E82E091E00E94740F82E009
:1022E00061E00E944C0E82E191E00E94740FC701F0
:1022F0000E94140980939305809193058823B9F770
:1023000089818153833098F7809358058ECF0E943E
:10231000700E85E291E00E94740F0E94ED108823F8
:1023200019F082E391E002C085E391E00E94740F0E
:1023300080E29EE4F8013197F1F70197D9F775CF64
:102340000F90CF91DF911F910F91FF90EF90089523
:1023500080E190E00E94580A90E096958795817000
:102360000895AF92BF92DF92EF92FF920F931F9367
:10237000CF93DF93EB017A019AE2899F80011124C8
:10238000C80180960E94580AF7018083DD2431E25B
:10239000A32EB12CA00EB11E0CC08D2D90E08E018D
:1023A000080F191F8A0D9B1D0E94580AF80180838F
:1023B000D394F7018081D81680F38081C80FD11D96
:1023C0001882DF91CF911F910F91FF90EF90DF90D6
:1023D000BF90AF900895CF92DF92EF92FF920F934C
:1023E0001F93DF93CF93CDB7DEB766970FB6F89400
:1023F000DEBF0FBECDBF0E94700E8AE391E00E9447
:10240000740F1092560510E08EE795E00E941409B3
:1024100080939305809193058823B1F780917E0581
:102420008D30B9F080917E058F3099F080917E05D6
:10243000883021F4112341F31150E6CF143120F7F5
:10244000E12FF0E080917E05E759FA4F80831F5F0E
:10245000DBCFE12FF0E0E759FA4F108200E042E0D5
:10246000E42EF12CEC0EFD1E6E010894C11CD11C53
:1024700020C0802FB701A6010E94B11189811817D1
:10248000B9F420E030E00CC0F901E759FA4F90812F
:10249000F701E20FF31F80812F5F3F4F981741F440
:1024A000211790F381E0809356050093650505C0E0
:1024B0000F5F809166050817E0F266960FB6F894F4
:1024C000DEBF0FBECDBFCF91DF911F910F91FF9067
:1024D000EF90DF90CF900895AF92BF92CF92DF92AE
:1024E000EF92FF920F931F93DF93CF93CDB7DEB799
:1024F00066970FB6F894DEBF0FBECDBFD82EC92E9B
:10250000062F10E052E0E52EF12CEC0EFD1E5E01D0
:102510000894A11CB11C1DC0809165051817C1F05D
:10252000812FB701A5010E94B1118981081781F49B
:10253000D7018D2D9C2D9C01F90104C091918D91A5
:10254000981731F48E2F8D198017C0F381E006C0E3
:102550001F5F809166051817F8F280E066960FB647
:10256000F894DEBF0FBECDBFCF91DF911F910F91C9
:10257000FF90EF90DF90CF90BF90AF900895CF93F2
:10258000DF9380E190E00E94580A83FD02C080E062
:1025900016C0C0E0D0E0CE0180509E4F0E94580A85
:1025A000682FCE010E94500A219682E0C030D807E1
:1025B00091F76091650589E00E942C1081E0DF9120
:1025C000CF9108950E94DA10682F85E190E00E9473
:1025D000500A0895682F80E190E00E94500A089503
:1025E00080E190E00E94580A682F6D7F80E190E0C2
:1025F0000E94500A609165058BE00E942C1008959E
:1026000080E190E00E94580A682F626080E190E0CB
:102610000E94500A609165058AE00E942C1008957E
:10262000CF93DF93C0E0D0E0CE016FEF0E94500A5D
:10263000219684E0C030D807B9F780E190E061E0EE
:102640000E94500A1092660583E08093550587E04A
:1026500060E00E942C10DF91CF910895CF93DF931B
:10266000C0E0D0E0CE010E94580A682FCE01805011
:102670009E4F0E94500A219682E0C030D80791F701
:1026800080E190E00E94580A682F686080E190E045
:102690000E94500A6091650588E00E942C10DF912D
:1026A000CF910895EF92FF920F931F93DF93CF93F3
:1026B0000F92CDB7DEB78E010F5F1F4F68ECE62E8D
:1026C000F12C0E94700E89E491E00E94740F82E068
:1026D00061E00E944C0E82E591E00E94740F83E05D
:1026E00061E00E944C0E8CE591E00E94740F84E042
:1026F00061E00E944C0E82EE90E00E94740FC801CF
:102700000E94140980939305809193058823B9F75B
:102710009981892F8153843090F7923369F09333F4
:1027200018F4913371F605C09333C1F0943349F630
:1027300035C00E942E13C5CF0E94BF12882309F610
:102740000E94700E8CE691E00E94740F80E29EE47D
:10275000F7013197F1F70197D9F7B3CF0E94700EC7
:102760008DE791E00E94740F82E061E00E944C0EC0
:102770008BE891E00E94740FC8010E9414098093B5
:102780009305809193058823B9F78981813319F4E2
:102790000E94101303C0823379F793CF0F90CF912B
:1027A000DF911F910F91FF90EF900895DF92EF92CC
:1027B000FF920F931F93CF93DF937B01D42E9AE266
:1027C000899F80011124C801C596642F0E94500A78
:1027D0000A5C1F4FC0E0D0E00AC0F701EC0FFD1FFC
:1027E000C80160810E94500A21960F5F1F4FCD15CE
:1027F000A0F3DF91CF911F910F91FF90EF90DF90A9
:102800000895DF92EF92FF920F931F93CF93DF9380
:102810007B01D42E9AE2899F80011124C801809601
:10282000642F0E94500A0F5D1F4FC0E0D0E00AC025
:10283000F701EC0FFD1FC80160810E94500A21962C
:102840000F5F1F4FCD15A0F3DF91CF911F910F9117
:10285000FF90EF90DF9008956F927F928F929F92FA
:10286000AF92BF92CF92DF92FF920F931F93DF93AD
:10287000CF93CDB7DEB7AC970FB6F894DEBF0FBEDF
:10288000CDBFF82E80916705882309F449C0809157
:102890006605F81608F044C00F2DF3E0AF2EB12CFA
:1028A000AC0EBD1E3E010894611C711CE8E1CE2EE9
:1028B000D12CCC0EDD1E72E0872E912C8C0E9D1E2D
:1028C00017C0102F1F5F812FB501A3010E94B11106
:1028D000812FB601A4010E945E10802FB5014981AD
:1028E0000E940114802FB6014A810E94D613012F45
:1028F00080916605202F30E090E001972817390776
:1029000004F38091660581508093660560916605A9
:1029100083E190E00E94500A85E06F2D0E942C1008
:10292000AC960FB6F894DEBF0FBECDBFCF91DF914E
:102930001F910F91FF90DF90CF90BF90AF909F902D
:102940008F907F906F90089580E10E94200E80E22A
:102950000E94780E80E10E94200E0895EF92FF926F
:102960001F93DF93CF93CDB7DEB766970FB6F8947A
:10297000DEBF0FBECDBF0E94700E86E991E00E94BF
:10298000740F1092570510E08EE795E00E9414092D
:1029900080939305809193058823B1F780917E05FC
:1029A0008D30D1F080917E058F30B1F080917E0521
:1029B000883021F4112341F31150E6CF143120F770
:1029C000E12FF0E080917E05E759FA4F80838AE29B
:1029D0000E94780E1F5FD8CF80916505A2E0EA2E95
:1029E000F12CEC0EFD1EB701AE014F5F5F4F0E9450
:1029F0005E1089811817C1F481E08093570520E0AB
:102A000030E0B7010FC0F901E759FA4F9081FB019F
:102A1000E20FF31F80812F5F3F4F981719F010923C
:102A2000570502C0211778F366960FB6F894DEBFFB
:102A30000FBECDBFCF91DF911F91FF90EF90089512
:102A40008F929F92AF92BF92CF92DF92EF92FF92BE
:102A50000F931F93DF93CF93CDB7DEB7C755D04009
:102A60000FB6F894DEBF0FBECDBF0E94700E85EA90
:102A700091E00E94740F82E061E00E944C0E83EBB3
:102A800091E00E94740F10E034E0E32EF12CEC0E84
:102A9000FD1E8EE795E00E941409809393058091B6
:102AA00093058823B1F780917E058D3011F18091D7
:102AB0007E058F30F1F080917E05883069F4112316
:102AC00041F3115080E10E94200E80E20E94780EB6
:102AD00080E10E94200EDDCF1431D8F680917E0572
:102AE000F701E10FF11D80831F5F8AE20E94780EDB
:102AF000D0CF8091650529E1E22EF12CEC0EFD1E70
:102B0000B701AE014F5F5F4F0E945E1089811817B9
:102B100031F49E012C5F3F4FD701F90124C00E9480
:102B2000700E82EC91E00E94740F80E197E228EC35
:102B300030E0F9013197F1F70197D9F761C0919130
:102B40008D91981781F00E94700E82EC91E00E94A6
:102B5000740F80E197E228EC30E0F9013197F1F74A
:102B60000197D9F74DC08E2F821B811740F300913A
:102B700065059EE2C92ED12CCC0EDD1E82E0882E8A
:102B8000912C8C0E9D1E13E4E12EF12CEC0EFD1EFB
:102B9000B3E0AB2EB12CAC0EBD1E17C0102F1F5FC3
:102BA000812FB601A4010E94B111812FB701A501A7
:102BB0000E945E10802FB6014A810E940114802F6E
:102BC000B7014B810E94D613012F80916605202FFB
:102BD00030E090E001972817390704F380916605EB
:102BE0008150809366056091660583E190E00E94C4
:102BF000500A6091650585E00E942C1081E001C0BB
:102C000080E0C95ADF4F0FB6F894DEBF0FBECDBFCC
:102C1000CF91DF911F910F91FF90EF90DF90CF90B8
:102C2000BF90AF909F908F900895CF92DF92FF92C8
:102C30000F931F93DF93CF93CDB7DEB765970FB692
:102C4000F894DEBF0FBECDBF0E94700E82ED91E002
:102C50000E94740FFF248E010F5F1F4F8EE795E0D7
:102C60000E94140980939305809193058823B1F7FE
:102C700080917E058D3021F080917E058F3021F48A
:102C800084E08F1558F720C080917E05883069F464
:102C9000FF2021F3FA9480E10E94200E80E20E943E
:102CA000780E80E10E94200ED9CFE3E1EF15B0F25B
:102CB00080917E05F801EF0DF11D8083F3948091E2
:102CC0007E050E94780ECACF0F2D10E06E01089489
:102CD000C11CD11CF601E00FF11F1082C6016F2D3F
:102CE0000E946C12882381F00E94700E80EE91E0A9
:102CF0000E94740F80E197E228EC30E0F9013197EF
:102D0000F1F70197D9F720C080916505B6014F2DE5
:102D10000E940114F092630520E030E0B601FB014F
:102D2000E20FF31F8081F901E158FA4F80832F5F92
:102D30003F4F2F15A0F301581A4FF80110826091F0
:102D4000650584E00E942C1065960FB6F894DEBFEE
:102D50000FBECDBFCF91DF911F910F91FF90DF90FC
:102D6000CF900895EF92FF920F931F93CF93DF932D
:102D70000E94700E81EF91E00E94740F45E0E42EF6
:102D8000F12C012D112DC8ECD0E081E06AE00E9409
:102D90004C0EC801B7010E94B60E80E197E2FE0119
:102DA0003197F1F70197D9F70894E108F108010983
:102DB0001109EE2051F782E190E06FEF0E94500A76
:102DC00083E080935505DF91CF911F910F91FF9084
:102DD000EF90089583E190E00E94580A8093660581
:102DE000809166058F3F41F41092660560916605FB
:102DF00083E190E00E94500A82E190E00E94580A2C
:102E00008F3F61F082E190E00E94580A809355055F
:102E100080915505882311F40E94B2160895CF932E
:102E2000DF93C8ECD0E00E94EB1180915605882317
:102E300011F00E94AE1480915605882321F08091F4
:102E40005705882379F50E94700E8CEF91E00E945F
:102E5000740F8091550581508093550560915505FB
:102E600082E190E00E94500A809155058823B9F0D4
:102E700082E061E00E944C0E8AE092E00E94740FB2
:102E80006091550570E080E090E00E94B60E80E110
:102E900097E2FE013197F1F70197D9F7C4CF0E946D
:102EA000B216C1CF0E94700E87E192E00E94740FAB
:102EB00080E197E228EC30E0F9013197F1F70197D2
:102EC000D9F782E190E06FEF0E94500A83E080938F
:102ED0005505809165056FE775E043E655E00E9472
:102EE000B111DF91CF910895EF92FF920F931F934D
:102EF000DF93CF93CDB7DEB765970FB6F894DEBFFB
:102F00000FBECDBF0E94700E86E292E00E94740F49
:102F100082E061E00E944C0E83E392E00E94740F15
:102F200064E170E080E090E00E94B60E10926405CB
:102F300058ECE52EF12C8E010F5F1F4F8091640538
:102F40008823D9F00E94700E8FE392E00E94740FE4
:102F500068E070E080E090E00E94B60E80E197E2C9
:102F6000F7013197F1F70197D9F70E94700E86E2C9
:102F700092E00E94740F109264058EE795E00E9423
:102F8000140980939305809193058823B1F780916C
:102F90007E058D3021F080917E058F3029F480915F
:102FA0006405883050F321C080917E05883041F45B
:102FB00080916405882309F380916405815012C0D3
:102FC000809164058431C8F68091640590917E05F6
:102FD000F801E80FF11D90838AE20E94780E80913B
:102FE00064058F5F80936405C8CF80916405883045
:102FF00008F4A4CF8091660540916405BE016F5F1F
:103000007F4F0E94D613809166058F5F809366057F
:103010006091660583E190E00E94500A65960FB6C4
:10302000F894DEBF0FBECDBFCF91DF911F910F91FE
:10303000FF90EF900895EF92FF920F931F93DF930D
:10304000CF93CDB7DEB765970FB6F894DEBF0FBE4E
:10305000CDBF80916605873180F00E94700E8CE4B0
:1030600092E00E94740F80E197E228EC30E0F901D1
:103070003197F1F70197D9F79CC00E94700E8EE549
:1030800092E00E94740F82E061E00E944C0E83E3A4
:1030900092E00E94740F64E170E080E090E00E9492
:1030A000B60E1092630568ECE62EF12C8E010F5FD0
:1030B0001F4F809163058823D9F00E94700E8FE323
:1030C00092E00E94740F65E070E080E090E00E9462
:1030D000B60E80E197E2F7013197F1F70197D9F742
:1030E0000E94700E8EE592E00E94740F10926305AC
:1030F0008EE795E00E9414098093930580919305D3
:103100008823B1F780917E058D3021F080917E0576
:103110008F3029F480916305853050F31EC0809173
:103120007E05883041F480916305882309F38091FE
:10313000630581500FC0809163058431C8F680918A
:10314000630590917E05F801E80FF11D9083809151
:1031500063058F5F80936305CBCF809163058530D6
:1031600008F4A7CF809163058E010F5F1F4FF80110
:10317000E80FF11D10828091660540916305B8014A
:103180000E94011490E098010AC0E92FF0E0D901F3
:10319000AE0FBF1F8C91E158FA4F80839F5F8091E3
:1031A0006305981790F3E0916305F0E0E158FA4F5A
:1031B000108265960FB6F894DEBF0FBECDBFCF91DB
:1031C000DF911F910F91FF90EF900895AF92BF9202
:1031D000CF92DF92EF92FF921F93DF93CF93CDB701
:1031E000DEB766970FB6F894DEBF0FBECDBF8091F5
:1031F0006705882309F459C00E94700E8BE692E09F
:103200000E94740F10E0E8ECAE2EB12C72E0E72EB5
:10321000F12CEC0EFD1E6E010894C11CD11C38C0AF
:103220001430B0F084E061E00E944C0E87E792E039
:103230000E94740F80E29EE4F5013197F1F7019747
:10324000D9F70E94700E8BE692E00E94740F135023
:10325000812FB701A6010E94B111812F63E00E9466
:103260005D1D892F8F5F61E00E944C0E612F70E021
:103270006F5F7F4F882777FD8095982F0E94B60E4D
:103280008FE792E00E94740FC7010E94740F1F5FC6
:1032900080916605181720F280E395E728EC30E06E
:1032A000F9013197F1F70197D9F766960FB6F894BF
:1032B000DEBF0FBECDBFCF91DF911F91FF90EF908A
:1032C000DF90CF90BF90AF900895EF92FF921F9341
:1032D000DF93CF93CDB7DEB7AB970FB6F894DEBFD1
:1032E0000FBECDBF0E94700E82E892E00E94740F64
:1032F00010E082E0E82EF12CEC0EFD1E8EE795E04A
:103300000E94140980939305809193058823B1F757
:1033100080917E058D3011F180917E058F30F1F026
:1033200080917E05883069F4112341F3115080E1CA
:103330000E94200E80E20E94780E80E10E94200E02
:10334000DDCF1431D8F680917E05F701E10FF11D34
:1033500080831F5F8AE20E94780ED0CF809165053E
:10336000B7E1EB2EF12CEC0EFD1EB701AE014F5F65
:103370005F4F0E945E108981181731F49E012E5F05
:103380003F4FD701F90124C00E94700E82EC91E0FA
:103390000E94740F80E197E228EC30E0F901319748
:1033A000F1F70197D9F793C091918D91981781F01A
:1033B0000E94700E82EC91E00E94740F80E197E20F
:1033C00028EC30E0F9013197F1F70197D9F77FC088
:1033D0008E2F821B811740F30E94700E80E992E0CD
:1033E0000E94740F82E061E00E944C0E8EE992E030
:1033F0000E94740F68E070E080E090E00E94B60EDA
:1034000010E0A2E0EA2EF12CEC0EFD1E8EE795E016
:103410000E94140980939305809193058823B1F746
:1034200080917E058D3021F080917E058F3019F4DA
:10343000183060F31EC080917E05883069F4112336
:1034400029F3115080E10E94200E80E20E94780E44
:1034500080E10E94200EDACF1431C0F680917E0503
:10346000F701E10FF11D80831F5F8AE20E94780E51
:10347000CDCFF2E0EF2EF12CEC0EFD1EC701612F37
:103480000E94D50F8823C1F40E94700E88EA92E052
:103490000E94740F82E061E00E944C0E87EB92E084
:1034A0000E94740F80E29EE428EC30E0F90131972D
:1034B000F1F70197D9F70BC080916505B701412F4E
:1034C0000E94D6136091650583E00E942C10AB9694
:1034D0000FB6F894DEBF0FBECDBFCF91DF911F9125
:1034E000FF90EF9008950E94700E85EC92E00E948C
:1034F000740F82E061E00E944C0E83ED92E00E9426
:10350000740F83E061E00E944C0E81EE92E00E9415
:10351000740F84E061E00E944C0E82EF92E00E9402
:10352000740F8EE795E00E941409809393058091B3
:1035300093058823B1F780917E05813390F38091C4
:103540007E05853370F780917E05823369F0833381
:1035500018F4813341F605C0833349F0843319F6FA
:1035600008950E946519BFCF0E941516BCCF0E9416
:103570002015882309F4B7CF08950F931F930AE00D
:103580000E94700E8BEF92E00E94740F82E061E067
:103590000E944C0E88E093E00E94740F83E061E08B
:1035A0000E944C0E86E193E00E94740F84E061E07B
:1035B0000E944C0E82EF92E00E94740F8EE795E01D
:1035C0000E94140980939305809193058823B1F795
:1035D00080917E05813390F380917E05853370F76D
:1035E00080917E05823369F0833318F4813341F68C
:1035F00005C08333F1F1843319F63EC00E94E6180A
:10360000BFCF0E94700E82E293E00E94740F10E020
:103610008EE795E00E9414098093930580919305AD
:103620008823B1F780917E05803380F080917E05FC
:103630008A3360F4109F802D112410917E05105361
:10364000180F80917E050E94780EE2CF80917E0552
:103650008D3021F080917E058F30D1F61123C1F29B
:10366000809166058117A0F2812F81500E942C1451
:1036700087CF0E94731A84CF1F910F9108950F93E3
:103680001F938C010E94700E8FE293E00E94740FD2
:1036900082E061E00E944C0EC8010E94740F80E23B
:1036A0009EE428EC30E0F9013197F1F70197D9F762
:1036B0001F910F9108950E94700E86E393E00E947F
:1036C000740F82E061E00E944C0E84E493E00E945B
:1036D000740F80E29EE428EC30E0F9013197F1F7B5
:1036E0000197D9F70E94700E83E593E00E94740F52
:1036F00082E061E00E944C0E81E693E00E94740F2C
:1037000080E29EE428EC30E0F9013197F1F701976F
:10371000D9F708950E94700E83E793E00E94740F1A
:1037200082E061E00E944C0E8DE793E00E94740FEE
:1037300083E061E00E944C0E88E893E00E94740FE1
:103740006091660570E080E090E00E94B60E8FE820
:1037500093E00E94740F67E170E080E090E00E94C7
:10376000B60E84E061E00E944C0E809155058330D6
:1037700060F481E993E00E94740F6091550570E058
:1037800080E090E00E94B60E08958EE993E00E94DA
:10379000740F08954F925F926F927F928F929F92D3
:1037A000AF92BF92CF92DF92EF92FF920F931F934F
:1037B000CF93DF936C01A62E90E001C09F5F292F6D
:1037C00030E0F601E20FF31F80818823B9F79131D1
:1037D00060F0BB24490191EF692E9FEF792E680CB0
:1037E000791C88EC482E512C2BC08A2D61E00E9458
:1037F0004C0EC6010E94740F28C08A2D61E00E9401
:103800004C0E86010E0D1F1DC0E0D0E0CE018E0DC6
:103810009F1D881599051CF4F801808101C080E284
:103820000E94780E21960F5F1F4FC031D10571F7AE
:1038300088EB9BE0F2013197F1F70197D9F7B39448
:10384000EB2CFF24E614F704C4F2DF91CF911F9113
:103850000F91FF90EF90DF90CF90BF90AF909F902F
:103860008F907F906F905F904F900895CF92DF92EE
:10387000EF92FF920F931F93CF93DF937C018B0105
:10388000C0E0D0E020EDC22E27E0D22E0FC0C7014D
:103890000E9414098093930580919305882311F465
:1038A00081E008C0C6010197F1F72196C017D10742
:1038B00070F380E0DF91CF911F910F91FF90EF9017
:1038C000DF90CF9008950E94700E8BEA93E00E94E3
:1038D000740F82E061E00E944C0E88EB93E00E943E
:1038E000740F8FEB93E00E94740F88E893E128EC4B
:1038F00030E0F9013197F1F70197D9F782E061E003
:103900000E944C0E82EC93E00E94740F0E94E0082B
:103910008FEB93E00E94740F88E893E128EC30E08D
:10392000F9013197F1F70197D9F782E061E00E9440
:103930004C0E8BEC93E00E94740F0E94EA168FEB02
:1039400093E00E94740F88E893E128EC30E0F901DD
:103950003197F1F70197D9F70895CF92DF92EF925F
:10396000FF920F931F93DF93CF930F92CDB7DEB7E4
:103970000E94870F0E945B1B0E94631C6E010894CB
:10398000C11CD11C37E1E32EF12C08EC10E00E94A1
:103990008A1BC60160E375E70E94361C882319F470
:1039A00085ED93E068C089818133A1F40E940F17EF
:1039B0008091650590E0882309F491E09093670574
:1039C00080916705882319F00E94BD1AE0CF0E94FC
:1039D000731ADDCF823309F04CC0809166058731C0
:1039E000E0F00E94700E84EE93E00E94740F82E07B
:1039F00061E00E944C0E81EF93E00E94740F67E13A
:103A000070E080E090E00E94B60E80E29EE4F80153
:103A10003197F1F70197D9F7BACF0E941B180E948E
:103A2000741760916605615086E00E942C100E9418
:103A3000700E8DEF93E061E00E94CA1B82E061E0AE
:103A40000E944C0E88E194E00E94740F80916605FC
:103A5000B701681B7109882777FD8095982F0E9410
:103A6000B60E80E29EE4F8013197F1F70197D9F79D
:103A70008ECF85E294E00E943F1B89CF629FD001E8
:103A8000739FF001829FE00DF11D649FE00DF11D19
:103A9000929FF00D839FF00D749FF00D659FF00DC8
:103AA0009927729FB00DE11DF91F639FB00DE11DB5
:103AB000F91FBD01CF0111240895991B79E004C0BD
:103AC000991F961708F0961B881F7A95C9F780955D
:103AD0000895A1E21A2EAA1BBB1BFD010DC0AA1F4F
:103AE000BB1FEE1FFF1FA217B307E407F50720F067
:103AF000A21BB30BE40BF50B661F771F881F991FE2
:103B00001A9469F760957095809590959B01AC012A
:103B1000BD01CF01089597FB092E05260ED057FD54
:103B200004D0D7DF0AD0001C38F45095409530956A
:103B300021953F4F4F4F5F4F0895F6F79095809531
:103B4000709561957F4F8F4F9F4F08952F923F92B1
:103B50004F925F926F927F928F929F92AF92BF929D
:103B6000CF92DF92EF92FF920F931F93CF93DF9349
:103B7000CDB7DEB7CA1BDB0B0FB6F894DEBF0FBEA6
:103B8000CDBF09942A88398848885F846E847D84F3
:103B90008C849B84AA84B984C884DF80EE80FD80F5
:103BA0000C811B81AA81B981CE0FD11D0FB6F8946B
:0E3BB000DEBF0FBECDBFED010895F894FFCF2C
:103BBE004C6F67696E3A2053756363657373004C7F
:103BCE006F67696E3A204661696C65640050617377
:103BDE0073204368616E6765640055736572204398
:103BEE0068616E67656400557365722044656C6527
:103BFE007465640055736572204372656174656403
:103C0E0000313A53797374656D2053746174757312
:103C1E0000323A5365637572697479204C65766526
:103C2E006C00333A56657269667920537973746500
:103C3E006D00343A4261636B005374617475733A6C
:103C4E0020004C6F636B656400556E6C6F636B6523
:103C5E0064005365637572697479204C6576656C82
:103C6E003A00313A4C6F7720323A4D656420333A40
:103C7E004869676800566572696679696E672E2EA7
:103C8E002E004F4B004641494C00456E7465722024
:103C9E00557365726E616D6500313A4261636B7585
:103CAE007000323A526573746F726500333A466132
:103CBE0063746F7279205265736574004E6F20566F
:103CCE00616C6964204261636B757021004172659D
:103CDE0020796F7520737572653F00313A5965739F
:103CEE0020323A4E6F00456E7465722050617373C8
:103CFE00776F726400456E74657220506173732025
:103D0E00746F0044656C657465204163636F756EF6
:103D1E00740057726F6E672050617373776F7264A1
:103D2E0021004E657720557365726E616D653A00A0
:103D3E00557365726E616D65206578697374732154
:103D4E000054696D65206F75743A2000496E766176
:103D5E006C6964204C6F67696E00547269657320DC
:103D6E004C6566743A20004C6F67696E205375631C
:103D7E006365737321005365742050617373776F9D
:103D8E007264004D61782063686172733A20004D51
:103D9E00696E204C656E6774683A20004D6178201C
:103DAE00557365727320526561636865640053656F
:103DBE007420557365724E616D650055736572732F
:103DCE00204C6973743A004D6F72652E2E2E003A98
:103DDE00200043757272656E7420506173733A00E1
:103DEE004E65772050617373776F72643A004D6938
:103DFE006E206C656E3A20005765616B20506173C2
:103E0E0073776F726421004E6565643A20412C61B0
:103E1E002C312C4000313A4368616E676520506149
:103E2E00737300323A4368616E676520557365722D
:103E3E0000333A44656C657465204163636F756E3B
:103E4E007400343A4C6F676F757400313A4C697375
:103E5E007420557365727300323A44656C657465EF
:103E6E00205573657200333A55736572204D656E39
:103E7E00750055736572204E756D6265723A004518
:103E8E0072726F723A0020202057656C636F6D65F9
:103E9E0020746F0020416476616E63656420536107
:103EAE00666500446576656C6F7065642062793A6C
:103EBE0000416264616C6C6168205368656861776B
:103ECE00657900313A5369676E20496E00323A4E79
:103EDE00657720557365720055736572733A002FBE
:103EEE00005472696573204C6566743A20005379EC
:103EFE007374656D20526561647900496E697469E9
:103F0E00616C697A696E67004C43442E2E2E004F09
:103F1E004B0055534152542E2E2E00454550524FB4
:103F2E004D2E2E2E00496E7075742054696D656F7E
:103F3E0075742100454550524F4D2046756C6C21CD
:103F4E00004D61782055736572733A200055736584
:103F5E007220437265617465642053756363657383
:103F6E007366756C6C7921005370616365204C65C6
:103F7E0066743A2000496E76616C69642043686FFE
:103F8E0069636521000000000000000000000102CE
:103F9E0002030303030404040404040404050505D6
:103FAE0005050505050505050505050505060606B0
:103FBE000606060606060606060606060606060693
:103FCE000606060606060606060606060607070780
:103FDE000707070707070707070707070707070763
:103FEE000707070707070707070707070707070753
:103FFE000707070707070707070707070707070743
:10400E00070707070707070707070707070808082F
:10401E000808080808080808080808080808080812
:10402E000808080808080808080808080808080802
:10403E0008080808080808080808080808080808F2
:10404E0008080808080808080808080808080808E2
:10405E0008080808080808080808080808080808D2
:10406E0008080808080808080808080808080808C2
:10407E0008080808080808080808080808080808B2
:10408E000808080808080808080808080837383912
:10409E002F3435362A3132332D3F303D2B0001017E
:0A40AE0001091F08000301010100D1
:00000001FF
