:100000000C942A000C9447000C9447000C94470071
:100010000C9447000C9447000C9447000C94470044
:100020000C9447000C9447000C9447000C94470034
:100030000C9447000C94D3090C9447000C94120ABA
:100040000C9447000C9447000C9447000C94470014
:100050000C94470011241FBECFE5D8E0DEBFCDBF12
:1000600014E0A0E6B0E0E0E8F9E302C005900D92EC
:10007000A039B107D9F714E0A0E9B4E001C01D929E
:10008000A93CB107E1F70E94681B0C94BE1C0C94BC
:100090000000EF92FF920F931F937B018C0120E0F1
:1000A00030E040E050E00E94E50488230CF05CC0A2
:1000B000C801B70190580E94BD002195E1E01216D9
:1000C00008F0E0E03195F1E0131608F0F0E0E32EDF
:1000D000EE1AE1E03E1508F0E0E0FE2B4195A1E0CC
:1000E000141608F0A0E0F42EFF1AE1E04F1508F016
:1000F000E0E0AE2B5195F1E0151608F0F0E0052F89
:100100000A1BE1E0501708F0E0E0FE2B6195A1E04A
:10011000161608F0A0E0162F1F1BE1E0611708F08B
:10012000E0E0AE2B7195F1E0171608F0F0E0B72F84
:10013000BA1BE1E07B1708F0E0E0FE2B8195A1E01F
:10014000181608F0A0E0382F3F1BF32FE1E08317CB
:1001500008F0E0E0AE2B91953E2D4F2D502F612FF2
:100160007B2F8F2F9A1B04C0C801B7010E94BD00CE
:100170001F910F91FF90EF900895A0E0B0E0E3ECA5
:10018000F0E00C94871C7B018C0120E030E040E81B
:100190005FE30E94E50488234CF4AA24BB24CC240A
:1001A000DD24EE24FF2400E010E086C0C801B70182
:1001B00020E030E040E85FE40E94E504882354F446
:1001C000C801B7010E940E075B016C01EE24FF24F9
:1001D000870172C0C801B70120E030E040E85FE568
:1001E0000E94E50487FD0FC0AA24AA94BB24BA94F8
:1001F000CC24CA94DD24DA94EE24EA94FF24FA9401
:100200000FEF1FEF59C0C801B70120E030E040E810
:100210005FE20E940F037B018C0122243324210121
:1002200090E1A92EB12CC12CD12CC0E0D0E061E02E
:1002300070E080E090E00A2C04C0660F771F881FF2
:10024000991F0A94D2F70E94C7053B014C01C801CF
:10025000B701A40193010E94B504882364F02A2801
:100260003B284C285D28C801B701A40193010E94D6
:1002700009047B018C01D694C794B794A794219666
:10028000C530D105A1F6C801B70120E030E040E853
:100290005FE40E940F030E940E075B016C019B014B
:1002A000A60160E070E080E090E0022D0E94400630
:1002B00059016A017B018C019501A601B701C801B2
:1002C000CDB7DEB7E2E10C94A31CA0E0B0E0EBE612
:1002D000F1E00C94871CDC012B01FA019C91923017
:1002E00008F439C1EB018881823008F433C19430BD
:1002F00069F4843009F02FC111969C91119789817E
:10030000981709F428C1ADE6B3E025C1843009F49B
:1003100021C18230A9F4923009F01DC19A01AD01CA
:1003200088E0EA010990AE01E90109929E0181503D
:10033000C1F7E201898111969C918923818308C1CB
:10034000923009F407C112962D903C901397EB015F
:100350008A819B811496AD90BD90CD90DC901797CB
:10036000EC80FD800E811F819101281B390BB901A2
:1003700037FF04C066277727621B730B6032710555
:100380000CF061C0121613066CF537014801062EF9
:1003900004C096948794779467940A94D2F721E0E6
:1003A00030E040E050E004C0220F331F441F551FCF
:1003B0006A95D2F721503040404050402E213F21D5
:1003C00040235123211531054105510521F021E03C
:1003D00030E040E050E079018A01E628F72808295A
:1003E00019293CC0232BD1F1260E371E35014601B9
:1003F000062E04C096948794779467940A94D2F753
:1004000021E030E040E050E004C0220F331F441FE1
:10041000551F6A95D2F721503040404050402A2164
:100420003B214C215D21211531054105510521F06C
:1004300021E030E040E050E059016A01A628B728E9
:10044000C828D9280BC0821593052CF01C01AA24BA
:10045000BB24650103C0EE24FF24870111969C9103
:10046000D20111968C91981709F445C0992339F05F
:10047000A80197012A193B094C095D0906C0A6018C
:1004800095012E193F09400B510B57FD08C01182F1
:100490003382228224833583468357831DC081E0C3
:1004A00081833382228288279927DC01821B930B68
:1004B000A40BB50B84839583A683B7830DC0220F4D
:1004C000331F441F551F24833583468357838281FE
:1004D000938101979383828324813581468157815B
:1004E000DA01C9010197A109B1098F5F9F4FAF4F91
:1004F000BF4328F30BC0918333822282EA0CFB1C9A
:100500000C1D1D1DE482F5820683178383E0808322
:10051000248135814681578157FF1AC0C901AA2716
:1005200097FDA095BA2F81709070A070B07056950D
:10053000479537952795822B932BA42BB52B848336
:100540009583A683B7838281938101969383828367
:10055000DF0101C0D201CD01CDB7DEB7E2E10C94DD
:10056000A31CA0E2B0E0E7EBF2E00C94931C6983DB
:100570007A838B839C832D833E834F835887E9E066
:10058000EE2EF12CEC0EFD1ECE010196B7010E945D
:100590000F088E010F5E1F4FCE010596B8010E9415
:1005A0000F088A8991E089278A8BC701B801AE01BB
:1005B000475E5F4F0E9465010E943A07A096E6E001
:1005C0000C94AF1CA0E2B0E0E8EEF2E00C94931CB7
:1005D00069837A838B839C832D833E834F835887E3
:1005E000F9E0EF2EF12CEC0EFD1ECE010196B701C5
:1005F0000E940F088E010F5E1F4FCE010596B801B5
:100600000E940F08C701B801AE01475E5F4F0E940C
:1006100065010E943A07A096E6E00C94AF1CA0E2A8
:10062000B0E0E5E1F3E00C94871C69837A838B8367
:100630009C832D833E834F835887CE010196BE0154
:10064000675F7F4F0E940F08CE010596BE016F5E67
:100650007F4F0E940F089985923088F089898230F7
:10066000C8F0943019F4823051F404C0843029F475
:10067000923081F48DE693E0C6C0923049F420E0D8
:100680009A858A89981321E02A87CE010996BBC0F2
:10069000823049F420E09A858A89981321E02A8BD8
:1006A000CE014196B0C02D843E844F8458886D8819
:1006B0007E888F88988CEE24FF248701AA24BB248F
:1006C000650140E050E060E070E0E0E0F0E0C10192
:1006D00081709070892BE9F0E60CF71C081D191D3C
:1006E0009A01AB012A0D3B1D4C1D5D1D80E090E081
:1006F000A0E0B0E0E614F7040805190520F481E055
:1007000090E0A0E0B0E0BA01A901480F591F6A1FAC
:100710007B1FAA0CBB1CCC1CDD1C97FE08C081E013
:1007200090E0A0E0B0E0A82AB92ACA2ADB2A3196D4
:10073000E032F10549F0660C771C881C991C569430
:10074000479437942794C3CFFA85EA892B893C894B
:100750008B859C85280F391F2E5F3F4F17C0CA011C
:1007600081709070892B61F016950795F794E79446
:1007700080E090E0A0E0B0E8E82AF92A0A2B1B2BE1
:1007800076956795579547952F5F3F4F77FDE7CF54
:100790000CC0440F551F661F771F17FD4160EE0CFC
:1007A000FF1C001F111F21503040403090E05907BE
:1007B00090E0690790E4790760F32B8F3C8FDB01B1
:1007C000CA018F779070A070B07080349105A10538
:1007D000B10561F447FD0AC0E114F10401051105FA
:1007E00029F0405C5F4F6F4F7F4F40781A8EFE17A5
:1007F00011F081E08A8F4D8F5E8F6F8F78A383E039
:10080000898FCE0149960E943A07A096E2E10C94A6
:10081000A31CA8E1B0E0EFE0F4E00C948F1C698326
:100820007A838B839C832D833E834F835887B9E0E3
:10083000EB2EF12CEC0EFD1ECE010196B7010E94AD
:100840000F088E010F5E1F4FCE010596B8010E9462
:100850000F082985223008F47EC03989323010F41F
:10086000B8017CC08A859A8989278A87243011F04B
:10087000223031F4231709F06EC06DE673E06EC0CC
:10088000343039F41D861E861F86188A1C861B8606
:1008900004C0323021F484E08987B7015FC02B8522
:1008A0003C858B899C89281B390B3C872B87ED84E1
:1008B000FE840F851889AD88BE88CF88D88CEA144D
:1008C000FB040C051D0540F4EE0CFF1C001F111F5E
:1008D000215030403C872B8720E030E040E050E062
:1008E00080E090E0A0E0B0E460E070E0EA14FB0497
:1008F0000C051D0540F0282B392B4A2B5B2BEA18E1
:10090000FB080C091D09B695A79597958795EE0CE0
:10091000FF1C001F111F6F5F7F4F6F31710531F793
:10092000DA01C9018F779070A070B07080349105A2
:10093000A105B10561F427FD0AC0E114F104010528
:10094000110529F0205C3F4F4F4F5F4F20782D87D6
:100950003E874F87588BBE01675F7F4FCB010E9458
:100960003A076896EAE00C94AB1CA8E1B0E0EBEB28
:10097000F4E00C94931C69837A838B839C832D838E
:100980003E834F83588789E0E82EF12CEC0EFD1E44
:10099000CE010196B7010E940F088E010F5E1F4F16
:1009A000CE010596B8010E940F088985823040F07B
:1009B0008989823028F0C701B8010E94870801C0E8
:1009C0008FEF6896E6E00C94AF1CA8E1B0E0EBEE88
:1009D000F4E00C94931C69837A838B839C832D832E
:1009E0003E834F83588789E0E82EF12CEC0EFD1EE4
:1009F000CE010196B7010E940F088E010F5E1F4FB6
:100A0000CE010596B8010E940F088985823040F01A
:100A10008989823028F0C701B8010E94870801C087
:100A200081E06896E6E00C94AF1CA8E0B0E0EBE152
:100A3000F5E00C94901C9B01AC0183E08983DA0102
:100A4000C9018827B7FD83959927AA27BB27B82E08
:100A5000211531054105510519F482E089833AC019
:100A60008823A9F0203080E0380780E0480780E83C
:100A7000580729F460E070E080E09FEC30C0EE247D
:100A8000FF248701E21AF30A040B150B02C0790157
:100A90008A018EE1C82ED12CDC82CB82ED82FE82CF
:100AA0000F831887C801B7010E94BF060197181667
:100AB000190684F4082E04C0EE0CFF1C001F111F41
:100AC0000A94D2F7ED82FE820F831887C81AD90ADA
:100AD000DC82CB82BA82CE0101960E943A07289628
:100AE000E9E00C94AC1CACE0B0E0E9E7F5E00C9474
:100AF000971C69837A838B839C83CE010196BE0108
:100B00006B5F7F4F0E940F088D81823061F18230D0
:100B100050F1843021F48E81882351F12EC02F8131
:100B2000388537FD20C06E812F3131051CF06623DA
:100B3000F9F023C08EE190E0821B930B29853A8562
:100B40004B855C8504C056954795379527958A95C2
:100B5000D2F76623B1F050954095309521953F4FDF
:100B60004F4F5F4F0EC020E030E040E050E009C042
:100B70002FEF3FEF4FEF5FE704C020E030E040E0B1
:100B800050E8B901CA012C96E2E00C94B31CA8E02D
:100B9000B0E0EDECF5E00C948F1C7B018C0161154D
:100BA00071058105910519F482E0898360C083E0B5
:100BB00089838EE1C82ED12CDC82CB82ED82FE822D
:100BC0000F831887C801B7010E94BF06FC01319747
:100BD000F7FF3BC0222733272E1B3F0B570168012D
:100BE000022E04C0D694C794B794A7940A94D2F75F
:100BF00040E050E060E070E081E090E0A0E0B0E034
:100C000004C0880F991FAA1FBB1F2A95D2F701970E
:100C1000A109B1098E219F21A023B1230097A1052D
:100C2000B10521F041E050E060E070E04A295B2925
:100C30006C297D294D835E836F8378878EE190E0F8
:100C40008E1B9F0B9C838B8312C0309781F00E2EDE
:100C500004C0EE0CFF1C001F111F0A94D2F7ED8296
:100C6000FE820F831887CE1ADF0ADC82CB821A82BB
:100C7000CE0101960E943A072896EAE00C94AB1C3C
:100C8000EF92FF920F93DF93CF93CDB7DEB76097CC
:100C90000FB6F894DEBF0FBECDBFA82F002309F416
:100CA00061C07E010894E11CF11C88E0F7011192FB
:100CB0008A95E9F729833A834B835C836D837E832E
:100CC000AF83988780E2801BE82FFF27E7FDF09530
:100CD00049815A816B817C81181684F019861A86A5
:100CE0001B861C86882799278E1B9F0B04C0440FE8
:100CF000551F661F771F8A95D2F728C0202F3327EC
:100D000027FD3095DB01CA01022E04C0880F991F10
:100D1000AA1FBB1F0A94D2F789879A87AB87BC8723
:100D200004C07695679557954795EA95D2F78D81DA
:100D30009E81AF81B88504C0880F991FAA1FBB1F71
:100D40002A95D2F7482B592B6A2B7B2B4D875E8730
:100D50006F87788B29853A854B855C856D857E8587
:100D6000AF8598898A2F60960FB6F894DEBF0FBEC4
:100D7000CDBFCF91DF910F91FF90EF900895EF924B
:100D8000FF920F931F937B018C0180E0E81680E0B7
:100D9000F80681E0080780E0180788F48FEFE8166E
:100DA000F1040105110531F028F088E090E0A0E0A1
:100DB000B0E017C080E090E0A0E0B0E012C080E0BA
:100DC000E81680E0F80680E0080781E0180728F0C0
:100DD00088E190E0A0E0B0E004C080E190E0A0E015
:100DE000B0E020E230E040E050E0281B390B4A0B35
:100DF0005B0B04C016950795F794E7948A95D2F794
:100E0000F701EB58FC4F8081281B3109410951093A
:100E1000C9011F910F91FF90EF900895EF92FF92FB
:100E20000F931F937B018C0120E030E040E05FE4F2
:100E30000E94B50488238CF0C801B70120E030E09F
:100E400040E05FE40E94B1020E9473059B01AC0187
:100E5000205030404040504806C0C801B7010E94B1
:100E600073059B01AC01B901CA011F910F91FF905D
:100E7000EF900895DF92EF92FF920F931F93FC0182
:100E8000E480F58006811781D1808081823048F42A
:100E900080E090E0A0E1B0E0E82AF92A0A2B1B2BC1
:100EA000A5C0843009F49FC0823021F4EE24FF24D1
:100EB000870105C0E114F1040105110519F4E0E012
:100EC000F0E096C0628173819FEF623879070CF081
:100ED0005BC022E83FEF261B370B2A3131052CF08F
:100EE00020E030E040E050E02AC0B801A701022E27
:100EF00004C076956795579547950A94D2F781E097
:100F000090E0A0E0B0E004C0880F991FAA1FBB1FAB
:100F10002A95D2F70197A109B1098E219F21A0231B
:100F2000B1230097A105B10521F081E090E0A0E098
:100F3000B0E09A01AB01282B392B4A2B5B2BDA014D
:100F4000C9018F779070A070B07080349105A105B1
:100F5000B10539F427FF09C0205C3F4F4F4F5F4F69
:100F600004C0215C3F4F4F4F5F4FE0E0F0E0203086
:100F7000A0E03A07A0E04A07A0E45A0710F0E1E039
:100F8000F0E079018A0127C06038710564F5FB0142
:100F9000E158FF4FD801C7018F779070A070B070F3
:100FA00080349105A105B10539F4E7FE0DC080E458
:100FB00090E0A0E0B0E004C08FE390E0A0E0B0E0FB
:100FC000E80EF91E0A1F1B1F17FF05C0169507958F
:100FD000F794E794319687E016950795F794E79490
:100FE0008A95D1F705C0EE24FF248701EFEFF0E0EA
:100FF0006E2F679566276795902F9F77D794DD248E
:10100000D7948E2F8695492F462B582F5D29B701EF
:10101000CA011F910F91FF90EF90DF900895FC019E
:10102000DB01408151812281622F6F7770E0221FA6
:101030002227221F9381892F880F822B282F30E0AF
:10104000991F9927991F11969C9311972115310586
:10105000A9F5411551056105710511F482E037C00C
:1010600082E89FEF13969C938E9312979A01AB019F
:1010700067E0220F331F441F551F6A95D1F783E0A5
:101080008C930DC0220F331F441F551F12968D9154
:101090009C911397019713969C938E9312972030EF
:1010A00080E0380780E0480780E4580758F314963A
:1010B0002D933D934D935C93179708952F3F3105E2
:1010C00079F4411551056105710519F484E08C939B
:1010D000089564FF03C081E08C9312C01C9210C07D
:1010E0002F57304013963C932E93129783E08C93A6
:1010F00087E0440F551F661F771F8A95D1F77064EC
:1011000014964D935D936D937C93179708951F9359
:10111000DC01FB019C91923008F447C08081823051
:1011200008F443C0943051F411961C91843099F521
:101130008181682F70E0611B71093FC0843021F00C
:10114000923031F48230B9F18181882389F12DC048
:1011500011961C9111978230F1F081811817D9F402
:1011600012962D913C911397828193818217930758
:1011700094F028173907BCF014968D919D910D902D
:10118000BC91A02D248135814681578128173907CC
:101190004A075B0718F4112341F00AC0821793072E
:1011A000A407B50740F4112319F061E070E005C011
:1011B0006FEF7FEF02C060E070E0CB011F910895F8
:1011C000599810BC83E389B95898529886E880BD35
:1011D000579856985598549A539A0895282F809165
:1011E0009204882311F083E0089580E090E0A0E06D
:1011F000B0E003C00196A11DB11D5D9909C0803109
:1012000037E2930730E0A30730E0B30799F708C04F
:1012100080519742A040B04019F02CB980E001C045
:1012200084E0109292040895FC01009711F482E08A
:10123000089580919204882311F083E0089580E05E
:1012400090E0A0E0B0E003C00196A11DB11D5F9940
:1012500009C0803127E2920720E0A20720E0B20710
:1012600099F709C080519742A040B04021F08CB15D
:10127000808380E001C084E01092920408950F936F
:101280001F93CF93DF93009711F482E014C0EC0119
:1012900008EC10E00DC00E94EE0828EE33E0F801E3
:1012A0003197F1F721503040D1F72196882319F476
:1012B0008881882381F7DF91CF911F910F91089545
:1012C000FC0180919204882311F083E00895309707
:1012D000A9F06115710591F081E080939204F0937B
:1012E0009104E0939004709394046093930410929B
:1012F000980480818CB9569A80E0089582E0089520
:10130000AF92BF92CF92DF92EF92FF920F931F9313
:10131000CF93DF93EC015A016B01009711F482E047
:1013200016C0EE24FF2487010CC0CE018E0D9F1D38
:101330000E941409882359F40894E11CF11C011D32
:10134000111DEA14FB040C051D0578F380E0DF9104
:10135000CF911F910F91FF90EF90DF90CF90BF90B2
:10136000AF900895BC0180919204882311F083E02E
:10137000089561157105A9F02115310591F081E0FD
:101380008093920470939604609395043093940430
:10139000209393044093970410929804579A80E006
:1013A000089582E008951F920F920FB60F921124B4
:1013B0002F933F934F935F936F937F938F939F935D
:1013C000AF93BF93EF93FF93909198048CB1E0910A
:1013D0009504F0919604E90FF11D80839F5F90932F
:1013E000980480919704981761F4109298041092D1
:1013F0009204E0919304F0919404309709F00995D8
:101400005798FF91EF91BF91AF919F918F917F91ED
:101410006F915F914F913F912F910F900FBE0F9061
:101420001F9018951F920F920FB60F9211242F93B1
:101430003F934F935F936F937F938F939F93AF935C
:10144000BF93EF93FF93809198048F5F80939804EC
:10145000E0919004F0919104E80FF11DE081EE23FA
:1014600069F41092980410929204E0919304F09120
:101470009404309709F00995569801C0ECB9FF9192
:10148000EF91BF91AF919F918F917F916F915F91FC
:101490004F913F912F910F900FBE0F901F90189575
:1014A0009FBB8EBB6DBBE29AE19AE199FECF089596
:1014B0008EBB9FBBE09A8DB30895843008F077C04F
:1014C000683008F074C04130B1F5813099F0813056
:1014D00030F08230D1F0833009F06BC021C02AB3E4
:1014E00081E090E002C0880F991F6A95E2F7282BEF
:1014F0002ABB5BC027B381E090E002C0880F991F30
:101500006A95E2F7282B27BB50C024B381E090E016
:1015100002C0880F991F6A95E2F7282B24BB45C0AB
:1015200021B381E090E002C0880F991F6A95E2F72D
:10153000282B21BB3AC04423D1F5813099F081306A
:1015400028F08230D9F08330A1F524C02AB381E09D
:1015500090E002C0880F991F6A95E2F78095822378
:101560008ABB23C027B381E090E002C0880F991F97
:101570006A95E2F78095822387BB17C024B381E088
:1015800090E002C0880F991F6A95E2F78095822348
:1015900084BB0BC021B381E090E002C0880F991F8B
:1015A0006A95E2F78095822381BB81E0089580E00F
:1015B000089581E00895843008F077C0683008F01D
:1015C00074C04130B1F5813099F0813030F0823013
:1015D000D1F0833009F06BC021C02BB381E090E0E3
:1015E00002C0880F991F6A95E2F7282B2BBB5BC0BE
:1015F00028B381E090E002C0880F991F6A95E2F756
:10160000282B28BB50C025B381E090E002C0880F92
:10161000991F6A95E2F7282B25BB45C022B381E0CC
:1016200090E002C0880F991F6A95E2F7282B22BB31
:101630003AC04423D1F5813099F0813028F08230CE
:10164000D9F08330A1F524C02BB381E090E002C033
:10165000880F991F6A95E2F7809582238BBB23C080
:1016600028B381E090E002C0880F991F6A95E2F7E5
:101670008095822388BB17C025B381E090E002C02B
:10168000880F991F6A95E2F78095822385BB0BC06E
:1016900022B381E090E002C0880F991F6A95E2F7BB
:1016A0008095822382BB81E0089580E0089581E0E7
:1016B0000895FA01843028F5683018F5813049F032
:1016C000813028F0823039F08330C9F406C029B364
:1016D00005C026B303C023B301C020B381E090E06E
:1016E000062E02C0880F991F0A94E2F730E0822389
:1016F000932302C0959587956A95E2F7808381E0F0
:10170000089580E008958430C0F56830B0F58130E8
:1017100091F0813028F08230C9F0833061F521C02A
:101720002BB381E090E002C0880F991F6A95E2F721
:1017300028272BBB20C028B381E090E002C0880F8F
:10174000991F6A95E2F7282728BB15C025B381E0C9
:1017500090E002C0880F991F6A95E2F7282725BB01
:101760000AC022B381E090E002C0880F991F6A95F9
:10177000E2F7282722BB81E0089580E008958430B5
:1017800008F08FC0683008F08CC0813049F181309A
:1017900038F0823009F444C0833009F080C060C062
:1017A000413091F480B78B7F80BF3AB381E090E005
:1017B00002C0880F991F6A95E2F7282F20952323EE
:1017C0002ABB2BB3822B0AC02BB381E090E002C06E
:1017D000880F991F6A95E2F7809582238BBB5FC0C3
:1017E000413091F480B78B7F80BF37B381E090E0C8
:1017F00002C0880F991F6A95E2F7282F20952323AE
:1018000027BB28B3822B0AC028B381E090E002C036
:10181000880F991F6A95E2F78095822388BB3FC0A5
:10182000413091F480B78B7F80BF34B381E090E08A
:1018300002C0880F991F6A95E2F7282F209523236D
:1018400024BB25B3822B0AC025B381E090E002C0FF
:10185000880F991F6A95E2F78095822385BB1FC088
:10186000413091F480B78B7F80BF31B381E090E04D
:1018700002C0880F991F6A95E2F7282F209523232D
:1018800021BB22B3822B0AC022B381E090E002C0C8
:10189000880F991F6A95E2F78095822382BB81E0C9
:1018A000089580E00895843090F4813049F08130CB
:1018B00028F0823039F0833051F406C06ABB05C08D
:1018C00067BB03C064BB01C061BB81E0089580E0D9
:1018D0000895843090F4813049F0813028F08230CE
:1018E00039F0833051F406C06BBB05C068BB03C040
:1018F00065BB01C062BB81E0089580E00895FB01F3
:10190000843098F4813049F0813028F0823039F009
:10191000833059F406C089B305C086B303C083B3CE
:1019200001C080B3808381E0089580E00895843011
:1019300010F080E00895813059F0813028F0823035
:1019400059F0833061F40DC08BB380958BBB07C019
:1019500088B3809588BB03C085B3809585BB81E043
:10196000089582B3809582BB81E00895843010F0A1
:1019700080E008956F70813071F0813028F08230FE
:1019800089F08330A9F416C08BB3807F8BBB8BB3F7
:10199000682B6BBB0DC088B3807F88BB88B3682B76
:1019A00068BB06C085B3807F85BB85B3682B65BBEC
:1019B00081E0089582B3807F82BB82B3682B62BBD3
:1019C00081E00895843010F080E008956295607F92
:1019D000813071F0813028F0823089F08330A9F4B1
:1019E00016C08BB38F708BBB8BB3682B6BBB0DC0DA
:1019F00088B38F7088BB88B3682B68BB06C085B37B
:101A00008F7085BB85B3682B65BB81E0089582B379
:101A10008F7082BB82B3682B62BB81E008958430F3
:101A200010F080E008956F70813071F0813028F0FF
:101A3000823089F08330A9F416C08AB3807F8ABBD4
:101A40008AB3682B6ABB0DC087B3807F87BB87B31F
:101A5000682B67BB06C084B3807F84BB84B3682BCC
:101A600064BB81E0089581B3807F81BB81B3682B23
:101A700061BB81E00895843010F080E008956295A4
:101A8000607F813071F0813028F0823089F08330BE
:101A9000A9F416C08AB38F708ABB8AB3682B6ABB5D
:101AA0000DC087B38F7087BB87B3682B67BB06C039
:101AB00084B38F7084BB84B3682B64BB81E00895CA
:101AC00081B38F7081BB81B3682B61BB81E00895C6
:101AD0008F929F92BF92CF92DF92EF92FF920F93DD
:101AE0001F93DF93CF930F92CDB7DEB7BB24BA9489
:101AF000CC24DD247E010894E11CF11C98EC892E95
:101B0000912C0C2D0C5F82E0602F40E00E94DB0ADC
:101B100082E060E0A7010E94590B8981882311F4BB
:101B200010E01DC082E061E0A7010E94590B89818D
:101B3000882311F411E013C082E062E0A7010E9443
:101B4000590B8981882311F412E009C082E063E017
:101B5000A7010E94590B8981882319F513E084EFAE
:101B600091E0F4013197F1F70197D9F782E0612F05
:101B7000A7010E94590B8981882359F4E12FF0E0D5
:101B8000EE0FFF1FEE0FFF1FEC0DFD1DEB58FB4F7F
:101B9000B08082E0612FA7010E94590B89818823C0
:101BA000C1F382E0602F41E00E94DB0A0894C11C6F
:101BB000D11C84E0C816D10409F0A3CF8B2D0F905F
:101BC000CF91DF911F910F91FF90EF90DF90CF9019
:101BD000BF909F908F90089582E060E041E00E9466
:101BE000BF0B82E061E041E00E94BF0B82E062E057
:101BF00041E00E94BF0B82E063E041E00E94BF0B26
:101C000082E06FE00E943B0D82E06FE00E94E20CF8
:101C100008950F931F9380E064E041E00E94DB0A87
:101C200000ED17E0C8010197F1F780E064E040E0C3
:101C30000E94DB0AC8010197F1F71F910F910895E7
:101C40001F93182F80E066E040E00E94DB0A80E0EE
:101C500065E040E00E94DB0A612F62956F7080E0D2
:101C60000E94B60C0E94090E80E0612F0E94B60C03
:101C70000E94090E1F91089588E10E94200E80EDB8
:101C800097E00197F1F708958CE10E94200E80ED16
:101C900097E00197F1F70895982F81508430C0F4B0
:101CA0006623B1F06531A0F4913019F4862F815884
:101CB00010C0923019F4862F81540BC0933019F460
:101CC000862F8D5606C0943021F4862F8D5201C088
:101CD00080E80E94200E80ED97E00197F1F70895CB
:101CE00081E00E94200E80E29EE40197F1F70895C2
:101CF0001F93182F80E066E041E00E94DB0A80E03D
:101D000065E040E00E94DB0A612F62956F7080E021
:101D10000E94B60C0E94090E80E0612F0E94B60C52
:101D20000E94090E1F9108950F931F93CF93DF9385
:101D3000182F062F80E40E94200EC5E8D4E0899178
:101D40000E94780E84E0CD38D807C9F7812F602F24
:101D50000E944C0E10E0812F0E94780E1F5F1830F9
:101D6000D1F7DF91CF911F910F9108956F927F92DC
:101D70008F929F92AF92BF92CF92DF92EF92FF929B
:101D80000F931F935B016C0161157105810591052E
:101D900021F480E30E94780E56C097FF0BC08DE2BD
:101DA0000E94780ED094C094B094A094A11CB11C51
:101DB000C11CD11C81E0682E712C812C912CC40196
:101DC000B3012AE030E040E050E00E94F81B7B01C4
:101DD0008C01C601B5010E94581C3B014C016E0CE0
:101DE0007F1C801E911EC601B5012AE030E040E054
:101DF00050E00E94581CC901DA015C016D01A11478
:101E0000B104C104D104D9F618C0C401B3012AE059
:101E100030E040E050E00E94361C862F805D0E943A
:101E2000780EC401B3012AE030E040E050E00E94A7
:101E3000361CC901DA013C014D0181E068167104CC
:101E40008104910411F71F910F91FF90EF90DF90A3
:101E5000CF90BF90AF909F908F907F906F9008959C
:101E6000EF92FF920F931F937B018C010E947305E9
:101E70000E94B60EC801B70120E030E040E050E01B
:101E80000E94E504882324F417FB109517F9109598
:101E9000C801B7010E9473050E9415059B01AC01A2
:101EA000C801B7010E94B10220E030E44CE156E4E1
:101EB0000E940F037B018C010E944900232B242BDD
:101EC000252B262B272B282B292B49F08EE20E942D
:101ED000780EC801B7010E9473050E94B60E1F91CB
:101EE0000F91FF90EF9008951F93CF93DF93EC0134
:101EF00010E003C00E94780E1F5FFE01E10FF11D8C
:101F000080818823B9F7DF91CF911F9108950F93B6
:101F10001F9384EF91E028EC30E0F9013197F1F75D
:101F20000197D9F780E060E041E00E945D0A80E01F
:101F300061E041E00E945D0A80E062E041E00E94D1
:101F40005D0A80E063E041E00E945D0A80E066E0B7
:101F500041E00E945D0A80E065E041E00E945D0A88
:101F600080E064E041E00E945D0A82E00E94200E71
:101F700080E29EE40197F1F788E20E94200E00EDD6
:101F800017E0C8010197F1F78CE00E94200EC8010C
:101F90000197F1F70E94700E86E00E94200EC801A2
:101FA0000197F1F71F910F910895782F683048F14C
:101FB0009C01F90120E030E040E050E09081892F61
:101FC00081548A3110F421E00CC0892F81568A3166
:101FD00010F431E006C090539A3010F051E001C087
:101FE00041E031968E2F871B861740F3222349F05C
:101FF000332339F0442329F0852F552319F081E04C
:10200000089580E008958FEF80939B0410929D04C3
:102010000895DF92EF92FF920F931F93CF93DF9378
:102020007B01D42E9AE2899F80011124C801C596B4
:10203000642F0E94500A0A5C1F4FC0E0D0E00AC023
:10204000F701EC0FFD1FC80160810E94500A219624
:102050000F5F1F4FCD15A0F3DF91CF911F910F910F
:10206000FF90EF90DF900895DF92EF92FF920F9331
:102070001F93CF93DF937B01D42E9AE2899F800137
:102080001124C8018096642F0E94500A0F5D1F4FD3
:10209000C0E0D0E00AC0F701EC0FFD1FC80160816D
:1020A0000E94500A21960F5F1F4FCD15A0F3DF91BC
:1020B000CF911F910F91FF90EF90DF90089580E1F5
:1020C0000E94200E80E20E94780E80E10E94200E85
:1020D00008951F93182F0E94700E1330A1F0143032
:1020E00028F4113051F01230D9F40AC0153089F0BB
:1020F000153060F01630A1F40FC080E690E00EC0FD
:102100008FE690E00BC08DE790E008C08AE890E091
:1021100005C087E990E002C084EA90E00E94740F55
:1021200080E197E228EC30E0F9013197F1F701976F
:10213000D9F71F910895CF93DF93C0E0D0E0CE018F
:102140006FEF0E94500A219684E0C030D807B9F79B
:1021500010929C0483E080938D0487E060E00E94ED
:102160006910DF91CF910895EF92FF920F931F9323
:10217000CF93DF930E94700E81EB90E00E94740F6A
:1021800085E0E82EF12C012D112DC8ECD0E081E086
:102190006AE00E944C0EC801B7010E94B60E80E1B1
:1021A00097E2FE013197F1F70197D9F70894E1081A
:1021B000F10801091109EE2051F782E190E06FEF7B
:1021C0000E94500A83E080938D04DF91CF911F918C
:1021D0000F91FF90EF900895AF92BF92DF92EF9230
:1021E000FF920F931F93CF93DF93EB017A019AE253
:1021F000899F80011124C80180960E94580AF70126
:102200008083DD2491E2A92EB12CA00EB11E0CC05A
:102210008D2D90E08E01080F191F8A0D9B1D0E94C5
:10222000580AF8018083D394F7018081D81680F38F
:102230008081C80FD11D1882DF91CF911F910F911E
:10224000FF90EF90DF90BF90AF900895AF92BF9254
:10225000CF92DF92EF92FF921F93DF93CF93CDB790
:10226000DEB766970FB6F894DEBF0FBECDBF809184
:102270009D04882309F459C00E94700E8CEB90E0F5
:102280000E94740F10E038ECA32EB12C22E0E22E55
:10229000F12CEC0EFD1E6E010894C11CD11C38C03F
:1022A0001430B0F084E061E00E944C0E88EC90E0C5
:1022B0000E94740F80E29EE4F5013197F1F70197D7
:1022C000D9F70E94700E8CEB90E00E94740F1350AF
:1022D000812FB701A6010E94EC10812F63E00E94BC
:1022E000171C892F8F5F61E00E944C0E612F70E0F8
:1022F0006F5F7F4F882777FD8095982F0E94B60EDD
:1023000080ED90E00E94740FC7010E94740F1F5F60
:1023100080919C04181720F280E395E728EC30E0C8
:10232000F9013197F1F70197D9F766960FB6F8944E
:10233000DEBF0FBECDBFCF91DF911F91FF90EF9019
:10234000DF90CF90BF90AF900895AF92BF92CF92A1
:10235000DF92EF92FF920F931F93DF93CF93CDB74E
:10236000DEB766970FB6F894DEBF0FBECDBF082F5D
:10237000A92EB62E10E042E0E42EF12CEC0EFD1E4C
:102380006E010894C11CD11C1AC080919B041817BF
:10239000A9F0812FB701A6010E94EC10D701802F70
:1023A0009A2D9C01F90104C091918D91981731F4F7
:1023B0008E2F801B8B15C0F381E006C01F5F8091BC
:1023C0009C04181710F380E066960FB6F894DEBFF1
:1023D0000FBECDBFCF91DF911F910F91FF90EF9076
:1023E000DF90CF90BF90AF900895AF92BF92CF9201
:1023F000DF92FF920F931F93CF93DF93EB015A016C
:102400009AE2899F80011124C801C5960E94580A4A
:10241000F5018083FF2456E3C52ED12CC00ED11EBA
:102420000CC00F2D10E0C601800F911F0E94580AAA
:102430000C0F1D1FF8018083F394F5018081F816BD
:1024400080F3C80FD11D1882DF91CF911F910F919A
:10245000FF90DF90CF90BF90AF9008956F927F92E2
:102460008F929F92AF92BF92CF92DF92FF920F9383
:102470001F93DF93CF93CDB7DEB7AC970FB6F89429
:10248000DEBF0FBECDBFF82E80919D04882309F4D6
:1024900049C080919C04F81608F044C00F2DE3E079
:1024A000AE2EB12CAC0EBD1E3E010894611C711CF9
:1024B00078E1C72ED12CCC0EDD1E62E0862E912C49
:1024C0008C0E9D1E17C0102F1F5F812FB501A30119
:1024D0000E94EC10812FB601A4010E94F511802FFB
:1024E000B50149810E943410802FB6014A810E94B3
:1024F0000910012F80919C04202F30E090E001977B
:102500002817390704F380919C04815080939C0420
:1025100060919C0483E190E00E94500A85E06F2D59
:102520000E946910AC960FB6F894DEBF0FBECDBF07
:10253000CF91DF911F910F91FF90DF90CF90BF90CF
:10254000AF909F908F907F906F90089583E190E07F
:102550000E94580A80939C0480919C048F3F41F410
:1025600010929C0460919C0483E190E00E94500AC8
:1025700082E190E00E94580A8F3F61F082E190E092
:102580000E94580A80938D0480918D04882311F451
:102590000E94B4100895EF92FF921F93DF93CF93A0
:1025A000CDB7DEB766970FB6F894DEBF0FBECDBFCE
:1025B0000E94700E83ED90E00E94740F82E061E053
:1025C0000E944C0E10928F0410E0A8ECEA2EF12C21
:1025D00083EB94E00E9414098093C8048091C8049E
:1025E0008823B1F78091B3048D3049F18091B30411
:1025F0008F3029F18091B304883031F4112341F3F5
:102600000E945F101150E4CF143110F7E12FF0E079
:102610008091B304E256FB4F80838091B3040E9403
:10262000780E80ED97E0F7013197F1F70197D9F730
:102630000E945F108AE20E94780E1F5FC9CF8091CE
:102640009B04F2E0EF2EF12CEC0EFD1EB701AE0163
:102650004F5F5F4F0E94F51189811817C1F481E027
:1026600080938F0420E030E0B7010FC0F901E256FB
:10267000FB4F9081FB01E20FF31F80812F5F3F4FE3
:10268000981719F010928F0402C0211778F36696FC
:102690000FB6F894DEBF0FBECDBFCF91DF911F9173
:1026A000FF90EF900895CF92DF92EF92FF920F93F9
:1026B0001F93DF93CF93CDB7DEB766970FB6F8942D
:1026C000DEBF0FBECDBF0E94700E82EE90E00E9472
:1026D000740F82E061E00E944C0E10928E0410E0B4
:1026E00083EB94E00E9414098093C8048091C8048D
:1026F0008823B1F78091B3048D30E9F08091B30461
:102700008F30C9F08091B304883031F4112341F344
:102710000E945F101150E4CF143110F7E12FF0E068
:102720008091B304E256FB4F80838091B3040E94F2
:10273000780E1F5FD5CFE12FF0E0E256FB4F1082FD
:1027400000E0B2E0EB2EF12CEC0EFD1E6E010894C1
:10275000C11CD11C20C0802FB701A6010E94EC1023
:1027600089811817B9F420E030E00CC0F901E25675
:10277000FB4F9081F701E20FF31F80812F5F3F4FE6
:10278000981741F4211790F381E080938E04009311
:102790009B0405C00F5F80919C040817E0F26696C9
:1027A0000FB6F894DEBF0FBECDBFCF91DF911F9162
:1027B0000F91FF90EF90DF90CF900895CF93DF932C
:1027C000C8ECD0E00E9453130E94CB1280918E047B
:1027D000882321F080918F04882379F50E94700E60
:1027E00081EF90E00E94740F80918D04815080935E
:1027F0008D0460918D0482E190E00E94500A8091E6
:102800008D048823B9F082E061E00E944C0E8FEFC6
:1028100090E00E94740F60918D0470E080E090E081
:102820000E94B60E80E197E2FE013197F1F7019721
:10283000D9F7C8CF0E94B410C5CF0E94700E8CE0AB
:1028400091E00E94740F80E197E228EC30E0F901FA
:102850003197F1F70197D9F782E190E06FEF0E948D
:10286000500A83E080938D0480919B0464EB74E0B4
:1028700049E954E00E94EC100E94700E8BE191E057
:102880000E94740F2091990484E190E0821B9109C9
:1028900062E070E00E94231C6F5F83E00E944C0E98
:1028A00084EB94E00E94740F80E197E228EC30E022
:1028B000F9013197F1F70197D9F7DF91CF91089599
:1028C0008F929F92AF92BF92CF92DF92EF92FF9240
:1028D0000F931F93DF93CF93CDB7DEB7C755D0408B
:1028E0000FB6F894DEBF0FBECDBF0E94700E84E21B
:1028F00091E00E94740F82E061E00E944C0E82E33E
:1029000091E00E94740F10E044E0E42EF12CEC0EF4
:10291000FD1E83EB94E00E9414098093C80480910B
:10292000C8048823B1F78091B3048D3011F18091F0
:10293000B3048F30F1F08091B304883069F411232F
:1029400041F3115080E10E94200E80E20E94780E37
:1029500080E10E94200EDDCF1431D8F68091B304BF
:10296000F701E10FF11D80831F5F8AE20E94780E5C
:10297000D0CF80919B0439E1E32EF12CEC0EFD1EAB
:10298000B701AE014F5F5F4F0E94F51189811817A3
:1029900031F49E012C5F3F4FD701F90124C00E9402
:1029A000700E81E491E00E94740F80E197E228ECC0
:1029B00030E0F9013197F1F70197D9F761C09191B2
:1029C0008D91981781F00E94700E81E491E00E9431
:1029D000740F80E197E228EC30E0F9013197F1F7CC
:1029E0000197D9F74DC08E2F821B811740F30091BC
:1029F0009B042EE2C22ED12CCC0EDD1E92E0892E3D
:102A0000912C8C0E9D1E83E4E82EF12CEC0EFD1E05
:102A100013E0A12EB12CAC0EBD1E17C0102F1F5FEE
:102A2000812FB601A4010E94EC10812FB701A501EE
:102A30000E94F511802FB6014A810E943410802F28
:102A4000B7014B810E940910012F80919C04202F17
:102A500030E090E001972817390704F380919C0437
:102A6000815080939C0460919C0483E190E00E94DB
:102A7000500A60919B0485E00E94691081E001C0CA
:102A800080E0C95ADF4F0FB6F894DEBF0FBECDBF4E
:102A9000CF91DF911F910F91FF90EF90DF90CF903A
:102AA000BF90AF909F908F9008954F925F926F92DA
:102AB0007F928F929F92AF92BF92DF92EF92FF929E
:102AC0000F931F93DF93CF93CDB7DEB7AB970FB6BE
:102AD000F894DEBF0FBECDBF0E94700E81E591E07D
:102AE0000E94740F82E061E00E944C0EDD24F7E149
:102AF0006F2E712C6C0E7D1E2E010894411C511CF2
:102B0000E8EC8E2E912C72E0A72EB12CAC0EBD1EDF
:102B100083EB94E00E9414098093C8048091C80458
:102B20008823B1F78091B3048D3081F18091B30493
:102B30008F3061F18091B304883069F4DD2041F376
:102B4000DA9480E10E94200E80E20E94780E80E1FB
:102B50000E94200EDDCF83E18D15D0F28091B30469
:102B6000F501ED0DF11D80838091B3040E94780E74
:102B700080ED97E0F4013197F1F70197D9F7D394FD
:102B80000E945F108AE20E94780EC2CF80919B045F
:102B9000B301A2010E94F5118981D81621F47301B5
:102BA000850121E03BC00E94700E81E491E00E940B
:102BB000740F80E197E2F4013197F1F70197D9F7AB
:102BC0000E94700E81E591E00E94740F82E061E046
:102BD0000E944C0E9DCFF8019081F70180819817DB
:102BE000C1F00E94700E81E491E00E94740F80E1B8
:102BF00097E2F4013197F1F70197D9F70E94700E2F
:102C000081E591E00E94740F82E061E00E944C0E29
:102C100020E00F5F1F4F0894E11CF11C802F8A19E0
:102C20008D15C8F2222309F473CF0E94700E8FE530
:102C300091E00E94740F82E061E00E944C0E8DE6EC
:102C400091E00E94740F68E070E080E090E00E94E4
:102C5000B60E10E062E0E62EF12CEC0EFD1E58ECF4
:102C6000A52EB12C01C010E083EB94E00E94140962
:102C70008093C8048091C8048823B1F78091B3047D
:102C80008D3021F08091B3048F3019F4183060F545
:102C9000EBCF8091B304883069F4112329F31150EC
:102CA00080E10E94200E80E20E94780E80E10E9466
:102CB000200EDACF1431C0F68091B304F701E10F92
:102CC000F11D80838091B3040E94780E80ED97E01F
:102CD000F5013197F1F70197D9F71F5F0E945F1057
:102CE0008AE20E94780EC0CFC701612F0E94D50FE3
:102CF000882349F50E94700E87E791E00E94740FC7
:102D000082E061E00E944C0E86E891E00E94740F20
:102D100080E29EE4F5013197F1F70197D9F70E941F
:102D2000700E8FE591E00E94740F82E061E00E94D6
:102D30004C0E8DE691E00E94740F68E070E080E038
:102D400090E00E94B60EC701612F0E94D50F882324
:102D500009F489CF80919B04B701412F0E9409108B
:102D600060919B0483E00E946910AB960FB6F894C3
:102D7000DEBF0FBECDBFCF91DF911F910F91FF90AE
:102D8000EF90DF90BF90AF909F908F907F906F906B
:102D90005F904F900895AF92BF92CF92DF92EF92E3
:102DA000FF921F93DF93CF93CDB7DEB765970FB632
:102DB000F894DEBF0FBECDBF0E94700E84E991E093
:102DC0000E94740F82E061E00E944C0E10E06E01E0
:102DD0000894C11CD11CA8ECAA2EB12C83EB94E062
:102DE0000E9414098093C8048091C8048823B1F715
:102DF0008091B3048D3021F08091B3048F3019F4A9
:102E0000153000F5EBCF8091B304883069F41123BD
:102E100029F3115080E10E94200E80E20E94780E7A
:102E200080E10E94200EDACF1431C0F68091B30405
:102E3000F601E10FF11D80831F5F8091B3040E94B2
:102E4000780ECCCFE12EFF24F601EE0DFF1D10828F
:102E5000C601612F0E94A5118823B9F00E94700E4F
:102E600082EA91E00E94740F80E197E2F5013197C8
:102E7000F1F70197D9F70E94700E84E991E00E9462
:102E8000740F82E061E00E944C0EC601612F0E9427
:102E9000A511882309F0A2CF80919B04B601412F90
:102EA0000E9434101093990420E030E0AE014F5F8F
:102EB0005F4FFA01E20FF31F8081F901EC54FB4FE1
:102EC00080832F5F3F4F2117A0F384EB94E0E80E3F
:102ED000F91EF701108260919B0484E00E94691042
:102EE00065960FB6F894DEBF0FBECDBFCF91DF91D0
:102EF0001F91FF90EF90DF90CF90BF90AF9008951B
:102F00000E94700E83EB91E00E94740F82E061E0FA
:102F10000E944C0E81EC91E00E94740F83E061E00E
:102F20000E944C0E8FEC91E00E94740F84E061E0EF
:102F30000E944C0E80EE91E00E94740F83EB94E0AF
:102F40000E9414098093C8048091C8048823B1F7B3
:102F50008091B304813390F38091B304853370F78B
:102F60008091B304823369F0833318F4813341F6DE
:102F700005C0833349F0843319F608950E9455152E
:102F8000BFCF0E94CB16BCCF0E946014882309F4E7
:102F9000B7CF08950F931F930AE00E94700E89EE39
:102FA00091E00E94740F82E061E00E944C0E86EF77
:102FB00091E00E94740F83E061E00E944C0E84E077
:102FC00092E00E94740F84E061E00E944C0E80EE5B
:102FD00091E00E94740F83EB94E00E9414098093A7
:102FE000C8048091C8048823B1F78091B304813369
:102FF00090F38091B304853370F78091B3048233EA
:1030000069F0833318F4813341F605C08333F1F15D
:10301000843319F63EC00E942611BFCF0E94700E65
:1030200080E192E00E94740F10E083EB94E00E9434
:1030300014098093C8048091C8048823B1F7809153
:10304000B304803380F08091B3048A3360F4109F1E
:10305000802D11241091B3041053180F8091B304E4
:103060000E94780EE2CF8091B3048D3021F08091E0
:10307000B3048F30D1F61123C1F280919C048117E3
:10308000A0F2812F81500E942E1287CF0E948017BC
:1030900084CF1F910F910895EF92FF920F931F938A
:1030A000DF93CF93CDB7DEB765970FB6F894DEBF49
:1030B0000FBECDBF8DE00E94EE080E94700E8DE124
:1030C00092E00E94740F82E061E00E944C0E8AE25E
:1030D00092E00E94740F64E170E080E090E00E9452
:1030E000B60E10929A04B8ECEB2EF12C8E010F5F05
:1030F0001F4F10929A0480919A04882349F10E94EC
:10310000700E86E392E00E94740F68E070E080E049
:1031100090E00E94B60E80E197E2F7013197F1F757
:103120000197D9F70E94700E83E492E00E94740F19
:1031300082E061E00E944C0E8AE292E00E94740FED
:1031400064E170E080E090E00E94B60E10929A0474
:1031500083E061E00E944C0E83EB94E00E9414092E
:103160008093C8048091C8048823B1F78091B30488
:103170008D3021F08091B3048F3049F480919A040E
:103180008830B8F580919A04883030F732C0809149
:10319000B304883061F480919A048823E9F2809125
:1031A0009A04815080939A040E945F10D5CF809139
:1031B0009A04843188F680919A049091B304F801BE
:1031C000E80FF11D90838091B3040E94780E80ED8A
:1031D00097E0F7013197F1F70197D9F70E945F1057
:1031E0008AE20E94780E80919A048F5F80939A04FD
:1031F000B3CF80919A04883008F47DCF60919A040F
:10320000C8010E94D50F882349F50E94700E87E7F8
:1032100091E00E94740F82E061E00E944C0E86E80B
:1032200091E00E94740F80E29EE4F7013197F1F77C
:103230000197D9F70E94700E8DE192E00E94740F01
:1032400082E061E00E944C0E8AE292E00E94740FDC
:1032500064E170E080E090E00E94B60E60919A0414
:10326000C8010E94D50F882309F443CF80919C04A4
:1032700040919A04B8010E94091080919C048F5FCC
:1032800080939C0460919C0483E190E00E94500A2A
:1032900065960FB6F894DEBF0FBECDBFCF91DF911C
:1032A0001F910F91FF90EF900895EF92FF920F936F
:1032B0001F93DF93CF93CDB7DEB765970FB6F89422
:1032C000DEBF0FBECDBF8DE00E94EE0880919C0452
:1032D000873180F00E94700E83E592E00E94740FA7
:1032E00080E197E228EC30E0F9013197F1F701979E
:1032F000D9F7DFC00E94700E85E692E00E94740F3D
:1033000082E061E00E944C0E8AE292E00E94740F1B
:1033100064E170E080E090E00E94B60E10929904A3
:1033200018ECE12EF12C8E010F5F1F4F10929904C3
:1033300080919904882319F10E94700E86E392E02F
:103340000E94740F65E070E080E090E00E94B60E8D
:1033500080E197E2F7013197F1F70197D9F70E94E1
:10336000700E82E792E00E94740F82E061E00E949A
:103370004C0E8AE292E00E94740F1092990483E04E
:1033800061E00E944C0E83EB94E00E94140980934C
:10339000C8048091C8048823B1F78091B3048D30AC
:1033A00021F08091B3048F3049F4809199048530E5
:1033B00058F580919904853030F726C08091B30488
:1033C000883061F4809199048823E9F2809199040E
:1033D0008150809399040E945F10D5CF8091990409
:1033E000843188F6809199049091B304F801E80F34
:1033F000F11D90838091B3040E94780E809199040E
:103400008F5F80939904BFCF80919904853008F431
:103410008FCF60919904C8010E94A5118823D9F02B
:103420000E94700E82EA91E00E94740F80E197E2A0
:10343000F7013197F1F70197D9F70E94700E85E6F1
:1034400092E00E94740F82E061E00E944C0E8AE2DA
:1034500092E00E94740F60919904C8010E94A51126
:10346000882309F063CF80919904F801E80FF11DDA
:10347000108280919C0440919904B8010E943410FC
:1034800090E09E012F5F3F4F0AC0E92FF0E0D90185
:10349000AE0FBF1F8C91EC54FB4F80839F5F8091D8
:1034A0009904981790F3E0919904F0E0EC54FB4FE5
:1034B000108265960FB6F894DEBF0FBECDBFCF91D8
:1034C000DF911F910F91FF90EF9008950F931F933D
:1034D0008C010E94700E82E892E00E94740F82E0DC
:1034E00061E00E944C0EC8010E94740F80E29EE4CD
:1034F00028EC30E0F9013197F1F70197D9F71F91E6
:103500000F9108950E94700E89E892E00E94740F56
:1035100082E061E00E944C0E86E992E00E94740F06
:103520008DE992E00E94740F88E893E128EC30E086
:10353000F9013197F1F70197D9F782E061E00E9434
:103540004C0E80EA92E00E94740F0E94E0088DE920
:1035500092E00E94740F88E893E128EC30E0F901D2
:103560003197F1F70197D9F782E061E00E944C0EA4
:1035700089EA92E00E94740F0E94A6128DE992E0FF
:103580000E94740F88E893E128EC30E0F90131974C
:10359000F1F70197D9F708950E94700E83EB92E03E
:1035A0000E94740F82E061E00E944C0E81EC92E078
:1035B0000E94740F80E29EE428EC30E0F90131971C
:1035C000F1F70197D9F70E94700E80ED92E00E940A
:1035D000740F82E061E00E944C0E8EED92E00E943A
:1035E000740F80E29EE428EC30E0F9013197F1F7A6
:1035F0000197D9F708950E94700E80EF92E00E9423
:10360000740F82E061E00E944C0E8AEF92E00E940B
:10361000740F83E061E00E944C0E85E093E00E940D
:10362000740F60919C0470E080E090E00E94B60E00
:103630008CE093E00E94740F67E170E080E090E01E
:103640000E94B60E84E061E00E944C0E80918D04D1
:10365000833060F48EE093E00E94740F60918D04DB
:1036600070E080E090E00E94B60E08958BE193E058
:103670000E94740F0895CF92DF92EF92FF920F9302
:103680001F93CF93DF937C018B01C0E0D0E080EDEE
:10369000C82E87E0D82E0FC0C7010E94140980935E
:1036A000C8048091C804882311F481E008C0C601D1
:1036B0000197F1F72196C017D10770F380E0DF91F1
:1036C000CF911F910F91FF90EF90DF90CF900895D1
:1036D000CF92DF92EF92FF920F931F93DF93CF93DE
:1036E0000F92CDB7DEB70E94E0080E94A6120E949A
:1036F000870F0E94CC1A0E94821A6E010894C11C86
:10370000D11C97E1E92EF12C08EC10E00E94FB1A85
:10371000C60160E375E70E943B1B882319F488E229
:1037200093E063C089818133A1F40E94DE1380910C
:103730009B0490E0882309F491E090939D0480918C
:103740009D04882319F00E94CA17E0CF0E948017B9
:10375000DDCF823309F047C080919C048731E0F0CF
:103760000E94700E87E393E00E94740F82E061E094
:103770000E944C0E84E493E00E94740F67E170E0B5
:1037800080E090E00E94B60E80E29EE4F80131975E
:10379000F1F70197D9F7BACF0E9455190E944C183A
:1037A00060919C04615086E00E9469100E94700E36
:1037B00082E061E00E944C0E80E593E00E94740F6D
:1037C00080919C04B701681B7109882777FD80955B
:1037D000982F0E94B60E80E29EE4F8013197F1F72F
:1037E0000197D9F793CF8DE593E00E94661A8ECFAB
:1037F000629FD001739FF001829FE00DF11D649FD5
:10380000E00DF11D929FF00D839FF00D749FF00D60
:10381000659FF00D9927729FB00DE11DF91F639F01
:10382000B00DE11DF91FBD01CF0111240895991BB1
:1038300079E004C0991F961708F0961B881F7A95A7
:10384000C9F78095089597FB092E07260AD077FDC2
:1038500004D049D006D000201AF4709561957F4FAE
:103860000895F6F7909581959F4F0895A1E21A2E3D
:10387000AA1BBB1BFD010DC0AA1FBB1FEE1FFF1F14
:10388000A217B307E407F50720F0A21BB30BE40B64
:10389000F50B661F771F881F991F1A9469F76095AB
:1038A0007095809590959B01AC01BD01CF01089565
:1038B00097FB092E05260ED057FD04D0D7DF0AD07E
:1038C000001C38F450954095309521953F4F4F4F4F
:1038D0005F4F0895F6F790958095709561957F4FAD
:1038E0008F4F9F4F0895AA1BBB1B51E107C0AA1F12
:1038F000BB1FA617B70710F0A61BB70B881F991F91
:103900005A95A9F780959095BC01CD0108952F9205
:103910003F924F925F926F927F928F929F92AF925F
:10392000BF92CF92DF92EF92FF920F931F93CF93AC
:10393000DF93CDB7DEB7CA1BDB0B0FB6F894DEBF43
:103940000FBECDBF09942A88398848885F846E8469
:103950007D848C849B84AA84B984C884DF80EE80B3
:10396000FD800C811B81AA81B981CE0FD11D0FB6BC
:10397000F894DEBF0FBECDBFED010895F894FFCFE0
:103980004C6F67696E3A2053756363657373004CBF
:103990006F67696E3A204661696C656400506173B7
:1039A00073204368616E67656400557365722043D8
:1039B00068616E67656400557365722044656C6567
:1039C0007465640055736572204372656174656443
:1039D0000054696D65206F75743A200055736572E7
:1039E00073204C6973743A004D6F72652E2E2E0051
:1039F0003A2000456E7465722050617373776F7260
:103A00006400456E74657220557365726E616D65F4
:103A100000496E76616C6964204C6F67696E005472
:103A200072696573204C6566743A20004C6F676953
:103A30006E2053756363657373210057656C636F04
:103A40006D652000456E746572205061737320743B
:103A50006F0044656C657465204163636F756E74B7
:103A60000057726F6E672050617373776F726421B5
:103A70000043757272656E7420506173733A004E24
:103A800065772050617373776F72643A004D696E89
:103A9000206C656E3A20005765616B20506173732E
:103AA000776F726421004E6565643A20412C612C69
:103AB000312C40004E657720557365726E616D65DF
:103AC0003A00557365726E616D652065786973742F
:103AD000732100313A4368616E67652050617373EA
:103AE00000323A4368616E67652055736572003332
:103AF0003A44656C657465204163636F756E74004C
:103B0000343A4C6F676F757400313A4C69737420A6
:103B1000557365727300323A44656C65746520555F
:103B200073657200333A55736572204D656E75008A
:103B300055736572204E756D6265723A00536574F7
:103B40002050617373776F7264004D6178206368F1
:103B50006172733A20004D696E204C656E6774681F
:103B60003A20005265205365742050617373776F5B
:103B70007264004D617820557365727320526561DF
:103B8000636865640053657420557365724E616D9A
:103B9000650052652053657420557365724E616DE2
:103BA00065004572726F723A00496E697469616CA2
:103BB000697A696E67004C43442E2E2E004F4B00ED
:103BC00055534152542E2E2E00454550524F4D2EE6
:103BD0002E2E0020202057656C636F6D6520746F5A
:103BE0000020416476616E63656420536166650000
:103BF000446576656C6F7065642062793A00416255
:103C000064616C6C616820536865686177657900F0
:103C1000313A5369676E20496E00323A4E6577201B
:103C2000557365720055736572733A002F005472B4
:103C3000696573204C6566743A2000537973746526
:103C40006D20526561647900496E70757420546905
:103C50006D656F75742100454550524F4D20467576
:103C60006C6C21004D61782055736572733A2000A9
:103C70005370616365204C6566743A2000496E7626
:103C8000616C69642043686F69636521000000000E
:103C90000000000000000102020303030304040407
:103CA00004040404040505050505050505050505C9
:103CB00005050505050606060606060606060606A9
:103CC0000606060606060606060606060606060694
:103CD0000606060606070707070707070707070779
:103CE0000707070707070707070707070707070764
:103CF0000707070707070707070707070707070754
:103D00000707070707070707070707070707070743
:103D10000707070707080808080808080808080828
:103D20000808080808080808080808080808080813
:103D30000808080808080808080808080808080803
:103D400008080808080808080808080808080808F3
:103D500008080808080808080808080808080808E3
:103D600008080808080808080808080808080808D3
:103D700008080808080808080808080808080808C3
:103D800008080808080808080808080808080808B3
:103D900008080808083738392F3435362A313233C5
:103DA0002D3F303D2B00010101091F0800030101D7
:00000001FF
