:100000000C942A000C9447000C9447000C94470071
:100010000C9447000C9447000C9447000C94470044
:100020000C9447000C9447000C9447000C94470034
:100030000C9447000C94D3090C9447000C94120ABA
:100040000C9447000C9447000C9447000C94470014
:100050000C94470011241FBECFE5D8E0DEBFCDBF12
:1000600012E0A0E6B0E0E8E9F8E202C005900D92E7
:10007000A637B107D9F712E0A6E7B2E001C01D929A
:10008000AF3BB107E1F70E941A130C944A140C9489
:100090000000EF92FF920F931F937B018C0120E0F1
:1000A00030E040E050E00E94E50488230CF05CC0A2
:1000B000C801B70190580E94BD002195E1E01216D9
:1000C00008F0E0E03195F1E0131608F0F0E0E32EDF
:1000D000EE1AE1E03E1508F0E0E0FE2B4195A1E0CC
:1000E000141608F0A0E0F42EFF1AE1E04F1508F016
:1000F000E0E0AE2B5195F1E0151608F0F0E0052F89
:100100000A1BE1E0501708F0E0E0FE2B6195A1E04A
:10011000161608F0A0E0162F1F1BE1E0611708F08B
:10012000E0E0AE2B7195F1E0171608F0F0E0B72F84
:10013000BA1BE1E07B1708F0E0E0FE2B8195A1E01F
:10014000181608F0A0E0382F3F1BF32FE1E08317CB
:1001500008F0E0E0AE2B91953E2D4F2D502F612FF2
:100160007B2F8F2F9A1B04C0C801B7010E94BD00CE
:100170001F910F91FF90EF900895A0E0B0E0E3ECA5
:10018000F0E00C9413147B018C0120E030E040E897
:100190005FE30E94E50488234CF4AA24BB24CC240A
:1001A000DD24EE24FF2400E010E086C0C801B70182
:1001B00020E030E040E85FE40E94E504882354F446
:1001C000C801B7010E940E075B016C01EE24FF24F9
:1001D000870172C0C801B70120E030E040E85FE568
:1001E0000E94E50487FD0FC0AA24AA94BB24BA94F8
:1001F000CC24CA94DD24DA94EE24EA94FF24FA9401
:100200000FEF1FEF59C0C801B70120E030E040E810
:100210005FE20E940F037B018C0122243324210121
:1002200090E1A92EB12CC12CD12CC0E0D0E061E02E
:1002300070E080E090E00A2C04C0660F771F881FF2
:10024000991F0A94D2F70E94C7053B014C01C801CF
:10025000B701A40193010E94B504882364F02A2801
:100260003B284C285D28C801B701A40193010E94D6
:1002700009047B018C01D694C794B794A794219666
:10028000C530D105A1F6C801B70120E030E040E853
:100290005FE40E940F030E940E075B016C019B014B
:1002A000A60160E070E080E090E0022D0E94400630
:1002B00059016A017B018C019501A601B701C801B2
:1002C000CDB7DEB7E2E10C942F14A0E0B0E0EBE68E
:1002D000F1E00C941314DC012B01FA019C91923093
:1002E00008F439C1EB018881823008F433C19430BD
:1002F00069F4843009F02FC111969C91119789817E
:10030000981709F428C1A2E6B1E025C1843009F4A8
:1003100021C18230A9F4923009F01DC19A01AD01CA
:1003200088E0EA010990AE01E90109929E0181503D
:10033000C1F7E201898111969C918923818308C1CB
:10034000923009F407C112962D903C901397EB015F
:100350008A819B811496AD90BD90CD90DC901797CB
:10036000EC80FD800E811F819101281B390BB901A2
:1003700037FF04C066277727621B730B6032710555
:100380000CF061C0121613066CF537014801062EF9
:1003900004C096948794779467940A94D2F721E0E6
:1003A00030E040E050E004C0220F331F441F551FCF
:1003B0006A95D2F721503040404050402E213F21D5
:1003C00040235123211531054105510521F021E03C
:1003D00030E040E050E079018A01E628F72808295A
:1003E00019293CC0232BD1F1260E371E35014601B9
:1003F000062E04C096948794779467940A94D2F753
:1004000021E030E040E050E004C0220F331F441FE1
:10041000551F6A95D2F721503040404050402A2164
:100420003B214C215D21211531054105510521F06C
:1004300021E030E040E050E059016A01A628B728E9
:10044000C828D9280BC0821593052CF01C01AA24BA
:10045000BB24650103C0EE24FF24870111969C9103
:10046000D20111968C91981709F445C0992339F05F
:10047000A80197012A193B094C095D0906C0A6018C
:1004800095012E193F09400B510B57FD08C01182F1
:100490003382228224833583468357831DC081E0C3
:1004A00081833382228288279927DC01821B930B68
:1004B000A40BB50B84839583A683B7830DC0220F4D
:1004C000331F441F551F24833583468357838281FE
:1004D000938101979383828324813581468157815B
:1004E000DA01C9010197A109B1098F5F9F4FAF4F91
:1004F000BF4328F30BC0918333822282EA0CFB1C9A
:100500000C1D1D1DE482F5820683178383E0808322
:10051000248135814681578157FF1AC0C901AA2716
:1005200097FDA095BA2F81709070A070B07056950D
:10053000479537952795822B932BA42BB52B848336
:100540009583A683B7838281938101969383828367
:10055000DF0101C0D201CD01CDB7DEB7E2E10C94DD
:100560002F14A0E2B0E0E7EBF2E00C941F146983D3
:100570007A838B839C832D833E834F835887E9E066
:10058000EE2EF12CEC0EFD1ECE010196B7010E945D
:100590000F088E010F5E1F4FCE010596B8010E9415
:1005A0000F088A8991E089278A8BC701B801AE01BB
:1005B000475E5F4F0E9465010E943A07A096E6E001
:1005C0000C943B14A0E2B0E0E8EEF2E00C941F14AF
:1005D00069837A838B839C832D833E834F835887E3
:1005E000F9E0EF2EF12CEC0EFD1ECE010196B701C5
:1005F0000E940F088E010F5E1F4FCE010596B801B5
:100600000E940F08C701B801AE01475E5F4F0E940C
:1006100065010E943A07A096E6E00C943B14A0E224
:10062000B0E0E5E1F3E00C94131469837A838B83E3
:100630009C832D833E834F835887CE010196BE0154
:10064000675F7F4F0E940F08CE010596BE016F5E67
:100650007F4F0E940F089985923088F089898230F7
:10066000C8F0943019F4823051F404C0843029F475
:10067000923081F482E691E0C6C0923049F420E0E5
:100680009A858A89981321E02A87CE010996BBC0F2
:10069000823049F420E09A858A89981321E02A8BD8
:1006A000CE014196B0C02D843E844F8458886D8819
:1006B0007E888F88988CEE24FF248701AA24BB248F
:1006C000650140E050E060E070E0E0E0F0E0C10192
:1006D00081709070892BE9F0E60CF71C081D191D3C
:1006E0009A01AB012A0D3B1D4C1D5D1D80E090E081
:1006F000A0E0B0E0E614F7040805190520F481E055
:1007000090E0A0E0B0E0BA01A901480F591F6A1FAC
:100710007B1FAA0CBB1CCC1CDD1C97FE08C081E013
:1007200090E0A0E0B0E0A82AB92ACA2ADB2A3196D4
:10073000E032F10549F0660C771C881C991C569430
:10074000479437942794C3CFFA85EA892B893C894B
:100750008B859C85280F391F2E5F3F4F17C0CA011C
:1007600081709070892B61F016950795F794E79446
:1007700080E090E0A0E0B0E8E82AF92A0A2B1B2BE1
:1007800076956795579547952F5F3F4F77FDE7CF54
:100790000CC0440F551F661F771F17FD4160EE0CFC
:1007A000FF1C001F111F21503040403090E05907BE
:1007B00090E0690790E4790760F32B8F3C8FDB01B1
:1007C000CA018F779070A070B07080349105A10538
:1007D000B10561F447FD0AC0E114F10401051105FA
:1007E00029F0405C5F4F6F4F7F4F40781A8EFE17A5
:1007F00011F081E08A8F4D8F5E8F6F8F78A383E039
:10080000898FCE0149960E943A07A096E2E10C94A6
:100810002F14A8E1B0E0EFE0F4E00C941B1469831E
:100820007A838B839C832D833E834F835887B9E0E3
:10083000EB2EF12CEC0EFD1ECE010196B7010E94AD
:100840000F088E010F5E1F4FCE010596B8010E9462
:100850000F082985223008F47EC03989323010F41F
:10086000B8017CC08A859A8989278A87243011F04B
:10087000223031F4231709F06EC062E671E06EC0D9
:10088000343039F41D861E861F86188A1C861B8606
:1008900004C0323021F484E08987B7015FC02B8522
:1008A0003C858B899C89281B390B3C872B87ED84E1
:1008B000FE840F851889AD88BE88CF88D88CEA144D
:1008C000FB040C051D0540F4EE0CFF1C001F111F5E
:1008D000215030403C872B8720E030E040E050E062
:1008E00080E090E0A0E0B0E460E070E0EA14FB0497
:1008F0000C051D0540F0282B392B4A2B5B2BEA18E1
:10090000FB080C091D09B695A79597958795EE0CE0
:10091000FF1C001F111F6F5F7F4F6F31710531F793
:10092000DA01C9018F779070A070B07080349105A2
:10093000A105B10561F427FD0AC0E114F104010528
:10094000110529F0205C3F4F4F4F5F4F20782D87D6
:100950003E874F87588BBE01675F7F4FCB010E9458
:100960003A076896EAE00C943714A8E1B0E0EBEBA4
:10097000F4E00C941F1469837A838B839C832D830A
:100980003E834F83588789E0E82EF12CEC0EFD1E44
:10099000CE010196B7010E940F088E010F5E1F4F16
:1009A000CE010596B8010E940F088985823040F07B
:1009B0008989823028F0C701B8010E94870801C0E8
:1009C0008FEF6896E6E00C943B14A8E1B0E0EBEE04
:1009D000F4E00C941F1469837A838B839C832D83AA
:1009E0003E834F83588789E0E82EF12CEC0EFD1EE4
:1009F000CE010196B7010E940F088E010F5E1F4FB6
:100A0000CE010596B8010E940F088985823040F01A
:100A10008989823028F0C701B8010E94870801C087
:100A200081E06896E6E00C943B14A8E0B0E0EBE1CE
:100A3000F5E00C941C149B01AC0183E08983DA017E
:100A4000C9018827B7FD83959927AA27BB27B82E08
:100A5000211531054105510519F482E089833AC019
:100A60008823A9F0203080E0380780E0480780E83C
:100A7000580729F460E070E080E09FEC30C0EE247D
:100A8000FF248701E21AF30A040B150B02C0790157
:100A90008A018EE1C82ED12CDC82CB82ED82FE82CF
:100AA0000F831887C801B7010E94BF060197181667
:100AB000190684F4082E04C0EE0CFF1C001F111F41
:100AC0000A94D2F7ED82FE820F831887C81AD90ADA
:100AD000DC82CB82BA82CE0101960E943A07289628
:100AE000E9E00C943814ACE0B0E0E9E7F5E00C94F0
:100AF000231469837A838B839C83CE010196BE0184
:100B00006B5F7F4F0E940F088D81823061F18230D0
:100B100050F1843021F48E81882351F12EC02F8131
:100B2000388537FD20C06E812F3131051CF06623DA
:100B3000F9F023C08EE190E0821B930B29853A8562
:100B40004B855C8504C056954795379527958A95C2
:100B5000D2F76623B1F050954095309521953F4FDF
:100B60004F4F5F4F0EC020E030E040E050E009C042
:100B70002FEF3FEF4FEF5FE704C020E030E040E0B1
:100B800050E8B901CA012C96E2E00C943F14A8E0A9
:100B9000B0E0EDECF5E00C941B147B018C016115C9
:100BA00071058105910519F482E0898360C083E0B5
:100BB00089838EE1C82ED12CDC82CB82ED82FE822D
:100BC0000F831887C801B7010E94BF06FC01319747
:100BD000F7FF3BC0222733272E1B3F0B570168012D
:100BE000022E04C0D694C794B794A7940A94D2F75F
:100BF00040E050E060E070E081E090E0A0E0B0E034
:100C000004C0880F991FAA1FBB1F2A95D2F701970E
:100C1000A109B1098E219F21A023B1230097A1052D
:100C2000B10521F041E050E060E070E04A295B2925
:100C30006C297D294D835E836F8378878EE190E0F8
:100C40008E1B9F0B9C838B8312C0309781F00E2EDE
:100C500004C0EE0CFF1C001F111F0A94D2F7ED8296
:100C6000FE820F831887CE1ADF0ADC82CB821A82BB
:100C7000CE0101960E943A072896EAE00C943714B8
:100C8000EF92FF920F93DF93CF93CDB7DEB76097CC
:100C90000FB6F894DEBF0FBECDBFA82F002309F416
:100CA00061C07E010894E11CF11C88E0F7011192FB
:100CB0008A95E9F729833A834B835C836D837E832E
:100CC000AF83988780E2801BE82FFF27E7FDF09530
:100CD00049815A816B817C81181684F019861A86A5
:100CE0001B861C86882799278E1B9F0B04C0440FE8
:100CF000551F661F771F8A95D2F728C0202F3327EC
:100D000027FD3095DB01CA01022E04C0880F991F10
:100D1000AA1FBB1F0A94D2F789879A87AB87BC8723
:100D200004C07695679557954795EA95D2F78D81DA
:100D30009E81AF81B88504C0880F991FAA1FBB1F71
:100D40002A95D2F7482B592B6A2B7B2B4D875E8730
:100D50006F87788B29853A854B855C856D857E8587
:100D6000AF8598898A2F60960FB6F894DEBF0FBEC4
:100D7000CDBFCF91DF910F91FF90EF900895EF924B
:100D8000FF920F931F937B018C0180E0E81680E0B7
:100D9000F80681E0080780E0180788F48FEFE8166E
:100DA000F1040105110531F028F088E090E0A0E0A1
:100DB000B0E017C080E090E0A0E0B0E012C080E0BA
:100DC000E81680E0F80680E0080781E0180728F0C0
:100DD00088E190E0A0E0B0E004C080E190E0A0E015
:100DE000B0E020E230E040E050E0281B390B4A0B35
:100DF0005B0B04C016950795F794E7948A95D2F794
:100E0000F701E659FE4F8081281B3109410951093C
:100E1000C9011F910F91FF90EF900895EF92FF92FB
:100E20000F931F937B018C0120E030E040E05FE4F2
:100E30000E94B50488238CF0C801B70120E030E09F
:100E400040E05FE40E94B1020E9473059B01AC0187
:100E5000205030404040504806C0C801B7010E94B1
:100E600073059B01AC01B901CA011F910F91FF905D
:100E7000EF900895DF92EF92FF920F931F93FC0182
:100E8000E480F58006811781D1808081823048F42A
:100E900080E090E0A0E1B0E0E82AF92A0A2B1B2BC1
:100EA000A5C0843009F49FC0823021F4EE24FF24D1
:100EB000870105C0E114F1040105110519F4E0E012
:100EC000F0E096C0628173819FEF623879070CF081
:100ED0005BC022E83FEF261B370B2A3131052CF08F
:100EE00020E030E040E050E02AC0B801A701022E27
:100EF00004C076956795579547950A94D2F781E097
:100F000090E0A0E0B0E004C0880F991FAA1FBB1FAB
:100F10002A95D2F70197A109B1098E219F21A0231B
:100F2000B1230097A105B10521F081E090E0A0E098
:100F3000B0E09A01AB01282B392B4A2B5B2BDA014D
:100F4000C9018F779070A070B07080349105A105B1
:100F5000B10539F427FF09C0205C3F4F4F4F5F4F69
:100F600004C0215C3F4F4F4F5F4FE0E0F0E0203086
:100F7000A0E03A07A0E04A07A0E45A0710F0E1E039
:100F8000F0E079018A0127C06038710564F5FB0142
:100F9000E158FF4FD801C7018F779070A070B070F3
:100FA00080349105A105B10539F4E7FE0DC080E458
:100FB00090E0A0E0B0E004C08FE390E0A0E0B0E0FB
:100FC000E80EF91E0A1F1B1F17FF05C0169507958F
:100FD000F794E794319687E016950795F794E79490
:100FE0008A95D1F705C0EE24FF248701EFEFF0E0EA
:100FF0006E2F679566276795902F9F77D794DD248E
:10100000D7948E2F8695492F462B582F5D29B701EF
:10101000CA011F910F91FF90EF90DF900895FC019E
:10102000DB01408151812281622F6F7770E0221FA6
:101030002227221F9381892F880F822B282F30E0AF
:10104000991F9927991F11969C9311972115310586
:10105000A9F5411551056105710511F482E037C00C
:1010600082E89FEF13969C938E9312979A01AB019F
:1010700067E0220F331F441F551F6A95D1F783E0A5
:101080008C930DC0220F331F441F551F12968D9154
:101090009C911397019713969C938E9312972030EF
:1010A00080E0380780E0480780E4580758F314963A
:1010B0002D933D934D935C93179708952F3F3105E2
:1010C00079F4411551056105710519F484E08C939B
:1010D000089564FF03C081E08C9312C01C9210C07D
:1010E0002F57304013963C932E93129783E08C93A6
:1010F00087E0440F551F661F771F8A95D1F77064EC
:1011000014964D935D936D937C93179708951F9359
:10111000DC01FB019C91923008F447C08081823051
:1011200008F443C0943051F411961C91843099F521
:101130008181682F70E0611B71093FC0843021F00C
:10114000923031F48230B9F18181882389F12DC048
:1011500011961C9111978230F1F081811817D9F402
:1011600012962D913C911397828193818217930758
:1011700094F028173907BCF014968D919D910D902D
:10118000BC91A02D248135814681578128173907CC
:101190004A075B0718F4112341F00AC0821793072E
:1011A000A407B50740F4112319F061E070E005C011
:1011B0006FEF7FEF02C060E070E0CB011F910895F8
:1011C000599810BC83E389B95898529886E880BD35
:1011D000579856985598549A539A0895282F809165
:1011E0007802882311F083E0089580E090E0A0E089
:1011F000B0E003C00196A11DB11D5D9909C0803109
:1012000037E2930730E0A30730E0B30799F708C04F
:1012100080519742A040B04019F02CB980E001C045
:1012200084E0109278020895FC01009711F482E0A6
:10123000089580917802882311F083E0089580E07A
:1012400090E0A0E0B0E003C00196A11DB11D5F9940
:1012500009C0803127E2920720E0A20720E0B20710
:1012600099F709C080519742A040B04021F08CB15D
:10127000808380E001C084E01092780208950F938B
:101280001F93CF93DF93009711F482E014C0EC0119
:1012900008EC10E00DC00E94EE0828EE33E0F801E3
:1012A0003197F1F721503040D1F72196882319F476
:1012B0008881882381F7DF91CF911F910F91089545
:1012C000FC0180917802882311F083E00895309723
:1012D000A9F06115710591F081E080937802F09397
:1012E0007702E093760270937A026093790210920B
:1012F0007E0280818CB9569A80E0089582E008953C
:10130000AF92BF92CF92DF92EF92FF920F931F9313
:10131000CF93DF93EC015A016B01009711F482E047
:1013200016C0EE24FF2487010CC0CE018E0D9F1D38
:101330000E941409882359F40894E11CF11C011D32
:10134000111DEA14FB040C051D0578F380E0DF9104
:10135000CF911F910F91FF90EF90DF90CF90BF90B2
:10136000AF900895BC0180917802882311F083E04A
:10137000089561157105A9F02115310591F081E0FD
:101380008093780270937C0260937B0230937A02A0
:101390002093790240937D0210927E02579A80E05A
:1013A000089582E008951F920F920FB60F921124B4
:1013B0002F933F934F935F936F937F938F939F935D
:1013C000AF93BF93EF93FF9390917E028CB1E09126
:1013D0007B02F0917C02E90FF11D80839F5F909367
:1013E0007E0280917D02981761F410927E02109225
:1013F0007802E0917902F0917A02309709F009952C
:101400005798FF91EF91BF91AF919F918F917F91ED
:101410006F915F914F913F912F910F900FBE0F9061
:101420001F9018951F920F920FB60F9211242F93B1
:101430003F934F935F936F937F938F939F93AF935C
:10144000BF93EF93FF9380917E028F5F80937E0224
:10145000E0917602F0917702E80FF11DE081EE2332
:1014600069F410927E0210927802E0917902F09174
:101470007A02309709F00995569801C0ECB9FF91AE
:10148000EF91BF91AF919F918F917F916F915F91FC
:101490004F913F912F910F900FBE0F901F90189575
:1014A0009FBB8EBB6DBBE29AE19AE199FECF089596
:1014B0008EBB9FBBE09A8DB30895843008F077C04F
:1014C000683008F074C04130B1F5813099F0813056
:1014D00030F08230D1F0833009F06BC021C02AB3E4
:1014E00081E090E002C0880F991F6A95E2F7282BEF
:1014F0002ABB5BC027B381E090E002C0880F991F30
:101500006A95E2F7282B27BB50C024B381E090E016
:1015100002C0880F991F6A95E2F7282B24BB45C0AB
:1015200021B381E090E002C0880F991F6A95E2F72D
:10153000282B21BB3AC04423D1F5813099F081306A
:1015400028F08230D9F08330A1F524C02AB381E09D
:1015500090E002C0880F991F6A95E2F78095822378
:101560008ABB23C027B381E090E002C0880F991F97
:101570006A95E2F78095822387BB17C024B381E088
:1015800090E002C0880F991F6A95E2F78095822348
:1015900084BB0BC021B381E090E002C0880F991F8B
:1015A0006A95E2F78095822381BB81E0089580E00F
:1015B000089581E00895843008F077C0683008F01D
:1015C00074C04130B1F5813099F0813030F0823013
:1015D000D1F0833009F06BC021C02BB381E090E0E3
:1015E00002C0880F991F6A95E2F7282B2BBB5BC0BE
:1015F00028B381E090E002C0880F991F6A95E2F756
:10160000282B28BB50C025B381E090E002C0880F92
:10161000991F6A95E2F7282B25BB45C022B381E0CC
:1016200090E002C0880F991F6A95E2F7282B22BB31
:101630003AC04423D1F5813099F0813028F08230CE
:10164000D9F08330A1F524C02BB381E090E002C033
:10165000880F991F6A95E2F7809582238BBB23C080
:1016600028B381E090E002C0880F991F6A95E2F7E5
:101670008095822388BB17C025B381E090E002C02B
:10168000880F991F6A95E2F78095822385BB0BC06E
:1016900022B381E090E002C0880F991F6A95E2F7BB
:1016A0008095822382BB81E0089580E0089581E0E7
:1016B0000895FA01843028F5683018F5813049F032
:1016C000813028F0823039F08330C9F406C029B364
:1016D00005C026B303C023B301C020B381E090E06E
:1016E000062E02C0880F991F0A94E2F730E0822389
:1016F000932302C0959587956A95E2F7808381E0F0
:10170000089580E008958430C0F56830B0F58130E8
:1017100091F0813028F08230C9F0833061F521C02A
:101720002BB381E090E002C0880F991F6A95E2F721
:1017300028272BBB20C028B381E090E002C0880F8F
:10174000991F6A95E2F7282728BB15C025B381E0C9
:1017500090E002C0880F991F6A95E2F7282725BB01
:101760000AC022B381E090E002C0880F991F6A95F9
:10177000E2F7282722BB81E0089580E008958430B5
:1017800008F08FC0683008F08CC0813049F181309A
:1017900038F0823009F444C0833009F080C060C062
:1017A000413091F480B78B7F80BF3AB381E090E005
:1017B00002C0880F991F6A95E2F7282F20952323EE
:1017C0002ABB2BB3822B0AC02BB381E090E002C06E
:1017D000880F991F6A95E2F7809582238BBB5FC0C3
:1017E000413091F480B78B7F80BF37B381E090E0C8
:1017F00002C0880F991F6A95E2F7282F20952323AE
:1018000027BB28B3822B0AC028B381E090E002C036
:10181000880F991F6A95E2F78095822388BB3FC0A5
:10182000413091F480B78B7F80BF34B381E090E08A
:1018300002C0880F991F6A95E2F7282F209523236D
:1018400024BB25B3822B0AC025B381E090E002C0FF
:10185000880F991F6A95E2F78095822385BB1FC088
:10186000413091F480B78B7F80BF31B381E090E04D
:1018700002C0880F991F6A95E2F7282F209523232D
:1018800021BB22B3822B0AC022B381E090E002C0C8
:10189000880F991F6A95E2F78095822382BB81E0C9
:1018A000089580E00895843090F4813049F08130CB
:1018B00028F0823039F0833051F406C06ABB05C08D
:1018C00067BB03C064BB01C061BB81E0089580E0D9
:1018D0000895843090F4813049F0813028F08230CE
:1018E00039F0833051F406C06BBB05C068BB03C040
:1018F00065BB01C062BB81E0089580E00895FB01F3
:10190000843098F4813049F0813028F0823039F009
:10191000833059F406C089B305C086B303C083B3CE
:1019200001C080B3808381E0089580E00895843011
:1019300010F080E00895813059F0813028F0823035
:1019400059F0833061F40DC08BB380958BBB07C019
:1019500088B3809588BB03C085B3809585BB81E043
:10196000089582B3809582BB81E00895843010F0A1
:1019700080E008956F70813071F0813028F08230FE
:1019800089F08330A9F416C08BB3807F8BBB8BB3F7
:10199000682B6BBB0DC088B3807F88BB88B3682B76
:1019A00068BB06C085B3807F85BB85B3682B65BBEC
:1019B00081E0089582B3807F82BB82B3682B62BBD3
:1019C00081E00895843010F080E008956295607F92
:1019D000813071F0813028F0823089F08330A9F4B1
:1019E00016C08BB38F708BBB8BB3682B6BBB0DC0DA
:1019F00088B38F7088BB88B3682B68BB06C085B37B
:101A00008F7085BB85B3682B65BB81E0089582B379
:101A10008F7082BB82B3682B62BB81E008958430F3
:101A200010F080E008956F70813071F0813028F0FF
:101A3000823089F08330A9F416C08AB3807F8ABBD4
:101A40008AB3682B6ABB0DC087B3807F87BB87B31F
:101A5000682B67BB06C084B3807F84BB84B3682BCC
:101A600064BB81E0089581B3807F81BB81B3682B23
:101A700061BB81E00895843010F080E008956295A4
:101A8000607F813071F0813028F0823089F08330BE
:101A9000A9F416C08AB38F708ABB8AB3682B6ABB5D
:101AA0000DC087B38F7087BB87B3682B67BB06C039
:101AB00084B38F7084BB84B3682B64BB81E00895CA
:101AC00081B38F7081BB81B3682B61BB81E00895C6
:101AD0000F931F9380E064E041E00E94DB0A00ED79
:101AE00017E0C8010197F1F780E064E040E00E9450
:101AF000DB0AC8010197F1F71F910F9108951F9319
:101B0000182F80E066E040E00E94DB0A80E065E09C
:101B100040E00E94DB0A612F62956F7080E00E94B6
:101B2000B60C0E94680D80E0612F0E94B60C0E94E6
:101B3000680D1F91089588E10E947F0D80ED97E068
:101B40000197F1F708958CE10E947F0D80ED97E0F9
:101B50000197F1F70895982F81508430C0F46623DF
:101B6000B1F06531A0F4913019F4862F815810C07E
:101B7000923019F4862F81540BC0933019F4862FBC
:101B80008D5606C0943021F4862F8D5201C080E816
:101B90000E947F0D80ED97E00197F1F7089581E0B5
:101BA0000E947F0D80E29EE40197F1F708951F9354
:101BB000182F80E066E041E00E94DB0A80E065E0EB
:101BC00040E00E94DB0A612F62956F7080E00E9406
:101BD000B60C0E94680D80E0612F0E94B60C0E9436
:101BE000680D1F9108950F931F93CF93DF93182FC4
:101BF000062F80E40E947F0DCAE6D2E089910E9400
:101C0000D70D82E0C237D807C9F7812F602F0E9415
:101C1000AB0D10E0812F0E94D70D1F5F1830D1F758
:101C2000DF91CF911F910F9108956F927F928F92C4
:101C30009F92AF92BF92CF92DF92EF92FF920F935B
:101C40001F935B016C01611571058105910521F4FC
:101C500080E30E94D70D56C097FF0BC08DE20E9413
:101C6000D70DD094C094B094A094A11CB11CC11CF9
:101C7000D11C81E0682E712C812C912CC401B30100
:101C80002AE030E040E050E00E94B7137B018C0175
:101C9000C601B5010E94F8133B014C016E0C7F1C7C
:101CA000801E911EC601B5012AE030E040E050E000
:101CB0000E94F813C901DA015C016D01A114B1049D
:101CC000C104D104D9F618C0C401B3012AE030E040
:101CD00040E050E00E94D613862F805D0E94D70D11
:101CE000C401B3012AE030E040E050E00E94D61386
:101CF000C901DA013C014D0181E0681671048104DB
:101D0000910411F71F910F91FF90EF90DF90CF900A
:101D1000BF90AF909F908F907F906F900895EF92BB
:101D2000FF920F931F937B018C010E9473050E9409
:101D3000150EC801B70120E030E040E050E00E94FD
:101D4000E504882324F417FB109517F91095C801B2
:101D5000B7010E9473050E9415059B01AC01C801E3
:101D6000B7010E94B10220E030E44CE156E40E9449
:101D70000F037B018C010E944900232B242B252B70
:101D8000262B272B282B292B49F08EE20E94D70DDA
:101D9000C801B7010E9473050E94150E1F910F9193
:101DA000FF90EF9008951F93CF93DF93EC0110E025
:101DB00003C00E94D70D1F5FFE01E10FF11D80815E
:101DC0008823B9F7DF91CF911F9108950F931F9347
:101DD00084EF91E028EC30E0F9013197F1F70197B9
:101DE000D9F780E060E041E00E945D0A80E061E0B8
:101DF00041E00E945D0A80E062E041E00E945D0AED
:101E000080E063E041E00E945D0A80E066E041E03E
:101E10000E945D0A80E065E041E00E945D0A80E08A
:101E200064E041E00E945D0A82E00E947F0D80E252
:101E30009EE40197F1F788E20E947F0D00ED17E024
:101E4000C8010197F1F78CE00E947F0DC80101974E
:101E5000F1F70E94CF0D86E00E947F0DC801019727
:101E6000F1F71F910F91089580E10E947F0D80E2AC
:101E70000E94D70D80E10E947F0D08951F93CF939C
:101E8000DF930E94CF0D80E690E00E94D30E15E311
:101E9000C8ECD0E080E10E947F0D812F0E94D70D19
:101EA00080E197E2FE013197F1F70197D9F71150E0
:101EB0001F3281F782E190E06FEF0E94500A83E0C9
:101EC00080937502DF91CF911F9108950F931F9317
:101ED0000E94CF0D8DE690E00E94D30E82E061E07B
:101EE0000E94AB0D8EE00E947F0D81E08093740212
:101EF00010E086E992E00E941409809372028091BA
:101F000072028823C1F41123B1F4809196028D30BE
:101F100081F3809196028F3061F380919602883030
:101F200041F3809196020E94D70D80919602809392
:101F3000810211E0DECF809172028823D9F414313E
:101F4000C8F4809196028D3029F1809196028F30ED
:101F500009F180919602883051F1809196020E9499
:101F6000D70DE12FF0E080919602EF57FD4F80836F
:101F70001F5FBFCF80917202882309F0BACF14315E
:101F800008F4B7CF809196028D3021F080919602AF
:101F90008F3041F48CE00E947F0D809180021817F1
:101FA00001F509C080919602883009F0A2CF0E9405
:101FB000340F11509ECF00E00FC0802F90E0FC0145
:101FC000EF57FD4F10818F5B9F4F0E94580A1817E3
:101FD00011F0109274020F5F80918002081768F36D
:101FE00006C080918002181711F0109274021F91A0
:101FF0000F9108950F931F930E94CF0D8CE790E0EF
:102000000E94D30E82E061E00E94AB0D8EE00E9440
:102010007F0D81E08093730210E086E992E00E94D8
:10202000140980937202809172028823C1F41123F3
:10203000B1F4809196028D3081F3809196028F30B9
:1020400061F380919602883041F3809196020E945C
:10205000D70D809196028093810211E0DECF8091AE
:1020600072028823D9F41431C8F4809196028D301D
:1020700029F1809196028F3009F180919602883083
:1020800051F1809196020E94D70DE12FF0E08091EE
:102090009602EF57FD4F80831F5FBFCF8091720282
:1020A000882309F0BACF143108F4B7CF8091960293
:1020B0008D3021F0809196028F3041F48CE00E94A7
:1020C0007F0D80917F021817F9F409C08091960264
:1020D000883009F0A2CF0E94340F11509ECF00E04B
:1020E0000EC0802F90E0FC01EF57FD4F10818196CC
:1020F0000E94580A181711F0109273020F5F809116
:102100007F02081770F306C080917F02181711F044
:10211000109273021F910F9108950E94FA0F0E946E
:10212000660F80917302882321F0809174028823C6
:10213000D9F50E94CF0D8BE890E00E94D30E82E08B
:1021400061E00E94AB0D8CE990E00E94D30E80917B
:1021500075028150809375026091750282E190E072
:102160000E94500A80917502882371F083E061E03B
:102170000E94AB0D88EA90E00E94D30E8091750218
:10218000805D0E94D70D089580917502882319F50E
:1021900088E893E128EC30E0F9013197F1F70197F5
:1021A000D9F70E943E0F08950E94CF0D86EB90E074
:1021B0000E94D30E82E061E00E94AB0D83EC90E0C0
:1021C0000E94D30E80E593EC28EC30E0F9013197C2
:1021D000F1F70197D9F70895EF92FF921F93CF93EC
:1021E000DF930E94CF0D81E065E00E94AB0D8BEC88
:1021F00090E00E94D30E82E061E00E94AB0D88ED7A
:1022000090E00E94D30E84E06FE00E94F30D84E022
:1022100060E10E94AB0D8AEE90E00E94D30E83E055
:1022200061E00E94AB0D10928002809180028823B1
:1022300009F450C00E94CF0D80EF90E00E94D30EB1
:1022400082E061E00E94AB0D81E091E00E94D30E3C
:1022500084E061E00E94F30D84E062E00E94AB0D37
:1022600082E191E00E94D30E86E992E00E94140977
:1022700080937202809172028823B1F78091960256
:102280008D3021F0809196028F3071F70E94CF0D32
:1022900081E065E00E94AB0D8BEC90E00E94D30ED4
:1022A00082E061E00E94AB0D88ED90E00E94D30EC9
:1022B00084E06FE00E94F30D84E060E10E94AB0DCA
:1022C0008AEE90E00E94D30E83E061E00E94AB0DA5
:1022D000109280028EE00E947F0D86E992E00E94BB
:1022E00014098093720280917202882389F480918C
:1022F0008002882369F4809196028D3071F3809179
:1023000096028F3051F380919602883031F314C0D9
:1023100080917202882309F5809180028431E8F46B
:10232000809196028D3059F1809196028F3039F16B
:1023300080919602883089F1809196020E94D70D93
:10234000809180026091960290E08F5B9F4F0E9487
:10235000500A809180028F5F25C08091720288238D
:1023600009F0BBCF80918002843108F4B6CF809110
:1023700096028D3021F0809196028F3049F48CE0E6
:102380000E947F0D80918002863008F44ECF0DC0F0
:1023900080919602883009F0A0CF0E94340F80917E
:1023A000800281508093800298CF10E085E1E82E72
:1023B000F12CC0E6D0E007C0CE01821B930B6FEF7B
:1023C0000E94500A1F5F212F30E080918002A701F8
:1023D000481B5109241735077CF381E190E060E048
:1023E0000E94500A6091800284E190E00E94500AAD
:1023F000DF91CF911F91FF90EF900895EF92FF92A0
:102400001F93CF93DF9383E190E060E00E94500A36
:1024100083E190E00E94580A80937F020E94CF0DD2
:1024200081E065E00E94AB0D8AE191E00E94D30E4D
:1024300082E061E00E94AB0D88ED90E00E94D30E37
:1024400084E06FE00E94F30D84E060E10E94AB0D38
:102450008AEE90E00E94D30E83E061E00E94AB0D13
:1024600010927F0280917F02882309F450C00E945D
:10247000CF0D87E291E00E94D30E82E061E00E94DE
:10248000AB0D81E091E00E94D30E84E061E00E94F8
:10249000F30D84E062E00E94AB0D82E191E00E94C6
:1024A000D30E86E992E00E94140980937202809113
:1024B00072028823B1F7809196028D3021F08091CD
:1024C00096028F3071F70E94CF0D81E065E00E9487
:1024D000AB0D8AE191E00E94D30E82E061E00E94A0
:1024E000AB0D88ED90E00E94D30E84E06FE00E9477
:1024F000F30D84E060E10E94AB0D8AEE90E00E9453
:10250000D30E83E061E00E94AB0D10927F028EE05B
:102510000E947F0D86E992E00E9414098093720266
:1025200080917202882389F480917F02882369F464
:10253000809196028D3071F3809196028F3051F325
:1025400080919602883031F314C080917202882302
:1025500001F580917F028431E0F4809196028D3004
:1025600051F1809196028F3031F18091960288303E
:1025700081F1809196020E94D70D80917F02609137
:10258000960290E081960E94500A80917F028F5FB0
:1025900025C080917202882309F0BCCF80917F0210
:1025A000843108F4B7CF809196028D3021F080916C
:1025B00096028F3049F48CE00E947F0D80917F025B
:1025C000863008F44FCF0DC080919602883009F014
:1025D000A1CF0E94340F80917F02815080937F02AF
:1025E00099CF10E095E1E92EF12CC0E4D0E007C0CE
:1025F000CE01821B930B6FEF0E94500A1F5F212FA9
:1026000030E080917F02A701481B5109241735074C
:102610007CF380E190E060E00E94500A60917F02CC
:1026200083E190E00E94500ADF91CF911F91FF90CB
:10263000EF900895CF93DF9383E190E00E94580AD2
:1026400080937F0284E190E00E94580A8093800288
:1026500082E190E00E94580A8F3F31F082E190E0E1
:102660000E94580A809375020E94E60E0E94E008BC
:1026700081E067E00E94AB0D88E391E00E94D30EF9
:1026800088E893E128EC30E0F9013197F1F7019700
:10269000D9F780E190E00E94580A8F3F41F582E02F
:1026A00061E00E94AB0D80E491E00E94D30E84E0D3
:1026B0006FE00E94F30D84E060E10E94AB0D8AEEB2
:1026C00090E00E94D30E86E992E00E941409809364
:1026D0007202809172028823B1F7809196028D3048
:1026E00021F0809196028F3071F70E94FE1181E1F6
:1026F00090E00E94580A8F3F41F50E94EC100E9422
:10270000CF0D8FE491E00E94D30E84E06FE00E9431
:10271000F30D84E060E10E94AB0D8AEE90E00E9430
:10272000D30E86E992E00E94140980937202809190
:1027300072028823B1F7809196028D3021F080914A
:1027400096028F3071F70E94CF0D80917502882319
:1027500011F40E943E0FC8ECD0E00E948D1080E181
:1027600097E2FE013197F1F70197D9F7F6CF629F13
:10277000D001739FF001829FE00DF11D649FE00D79
:10278000F11D929FF00D839FF00D749FF00D659FDA
:10279000F00D9927729FB00DE11DF91F639FB00DD9
:1027A000E11DF91FBD01CF0111240895A1E21A2EE8
:1027B000AA1BBB1BFD010DC0AA1FBB1FEE1FFF1FE5
:1027C000A217B307E407F50720F0A21BB30BE40B35
:1027D000F50B661F771F881F991F1A9469F760957C
:1027E0007095809590959B01AC01BD01CF01089536
:1027F00097FB092E05260ED057FD04D0D7DF0AD04F
:10280000001C38F450954095309521953F4F4F4F1F
:102810005F4F0895F6F790958095709561957F4F7D
:102820008F4F9F4F08952F923F924F925F926F92DA
:102830007F928F929F92AF92BF92CF92DF92EF9250
:10284000FF920F931F93CF93DF93CDB7DEB7CA1BD1
:10285000DB0B0FB6F894DEBF0FBECDBF09942A88FC
:10286000398848885F846E847D848C849B84AA84A4
:10287000B984C884DF80EE80FD800C811B81AA8131
:10288000B981CE0FD11D0FB6F894DEBF0FBECDBFFC
:08289000ED010895F894FFCF5B
:1028980054696D65206F7574203A2020004368657F
:1028A800636B2050617373576F726400436865638C
:1028B8006B20557365724E616D6500496E76616C6B
:1028C800696420557365726E616D65006F72205082
:1028D800617373776F7264005472696573204C6515
:1028E8006674203A20005375636365737366756C6C
:1028F8006C79005369676E20696E005365742050C7
:10290800617373576F7264004D6178696D756D20DE
:1029180063686172203A20323000203A204F4B0021
:1029280050617373576F7264204D757374206265BC
:10293800004D6F7265207468616E203520436861B0
:102948007200203A204578697400536574205573E5
:1029580065724E616D6500557365724E616D6520D7
:102968004D7573742062650057656C636F6D650003
:10297800506C65617365205369676E20555000532C
:1029880061766564205375636365737366756C6CF3
:1029980079000000000000000000000102020303AB
:1029A80003030404040404040404050505050505DB
:1029B80005050505050505050505060606060606B9
:1029C800060606060606060606060606060606069F
:1029D8000606060606060606060607070707070789
:1029E800070707070707070707070707070707076F
:1029F800070707070707070707070707070707075F
:102A0800070707070707070707070707070707074E
:102A18000707070707070707070708080808080838
:102A2800080808080808080808080808080808081E
:102A3800080808080808080808080808080808080E
:102A480008080808080808080808080808080808FE
:102A580008080808080808080808080808080808EE
:102A680008080808080808080808080808080808DE
:102A780008080808080808080808080808080808CE
:102A880008080808080808080808080808080808BE
:102A98000808080808080808080800010101091FB3
:062AA8000800010101031A
:00000001FF
