:100000000C942A000C9447000C9447000C94470071
:100010000C9447000C9447000C9447000C94470044
:100020000C9447000C9447000C9447000C94470034
:100030000C9447000C94E00B0C9447000C94380C83
:100040000C9447000C9447000C9447000C94470014
:100050000C94470011241FBECFE5D8E0DEBFCDBF12
:1000600015E0A0E6B0E0ECE4F5E702C005900D92E3
:10007000AA35B107D9F715E0AAE5B5E001C01D9290
:10008000A439B107E1F70E949A380C94A43A0C9471
:100090000000EF92FF920F931F937B018C0120E0F1
:1000A00030E040E05FE40E94110588238CF0C80135
:1000B000B70120E030E040E05FE40E94DD020E94F2
:1000C000CF059B01AC01205030404040504806C055
:1000D000C801B7010E94CF059B01AC01B901CA015B
:1000E0001F910F91FF90EF900895EF92FF920F9361
:1000F0001F937B018C0120E030E040E050E00E9443
:10010000410588230CF05CC0C801B70190580E94DB
:10011000E9002195E1E0121608F0E0E03195F1E008
:10012000131608F0F0E0E32EEE1AE1E03E1508F0B9
:10013000E0E0FE2B4195A1E0141608F0A0E0F42EBB
:10014000FF1AE1E04F1508F0E0E0AE2B5195F1E029
:10015000151608F0F0E0052F0A1BE1E0501708F033
:10016000E0E0FE2B6195A1E0161608F0A0E0162F46
:100170001F1BE1E0611708F0E0E0AE2B7195F1E0A4
:10018000171608F0F0E0B72FBA1BE1E07B1708F074
:10019000E0E0FE2B8195A1E0181608F0A0E0382FD2
:1001A0003F1BF32FE1E0831708F0E0E0AE2B9195C1
:1001B0003E2D4F2D502F612F7B2F8F2F9A1B04C068
:1001C000C801B7010E94E9001F910F91FF90EF90C5
:1001D0000895A0E0B0E0EFEEF0E00C946D3A7B0102
:1001E0008C0120E030E040E85FE30E944105882375
:1001F0004CF4AA24BB24CC24DD24EE24FF2400E00C
:1002000010E086C0C801B70120E030E040E85FE4BC
:100210000E944105882354F4C801B7010E94490097
:100220005B016C01EE24FF24870172C0C801B70195
:1002300020E030E040E85FE50E94410587FD0FC007
:10024000AA24AA94BB24BA94CC24CA94DD24DA94B8
:10025000EE24EA94FF24FA940FEF1FEF59C0C8016F
:10026000B70120E030E040E85FE20E943B037B0101
:100270008C0122243324210190E1A92EB12CC12C20
:10028000D12CC0E0D0E061E070E080E090E00A2C8A
:1002900004C0660F771F881F991F0A94D2F70E9427
:1002A00023063B014C01C801B701A40193010E9440
:1002B0001105882364F02A283B284C285D28C801B2
:1002C000B701A40193010E9435047B018C01D694EF
:1002D000C794B794A7942196C530D105A1F6C8015B
:1002E000B70120E030E040E85FE40E943B030E9459
:1002F00049005B016C019B01A60160E070E080E0B9
:1003000090E0022D0E949C0659016A017B018C013C
:100310009501A601B701C801CDB7DEB7E2E10C94A3
:10032000893AA0E0B0E0E7E9F1E00C946D3ADC0135
:100330002B01FA019C91923008F439C1EB018881BC
:10034000823008F433C1943069F4843009F02FC14D
:1003500011969C9111978981981709F428C1A5E3FA
:10036000B4E025C1843009F421C18230A9F492306F
:1003700009F01DC19A01AD0188E0EA010990AE01C2
:10038000E90109929E018150C1F7E201898111962C
:100390009C918923818308C1923009F407C1129688
:1003A0002D903C901397EB018A819B811496AD9020
:1003B000BD90CD90DC901797EC80FD800E811F8161
:1003C0009101281B390BB90137FF04C06627772735
:1003D000621B730B603271050CF061C012161306BC
:1003E0006CF537014801062E04C0969487947794E3
:1003F00067940A94D2F721E030E040E050E004C076
:10040000220F331F441F551F6A95D2F721503040E9
:10041000404050402E213F214023512321153105DA
:100420004105510521F021E030E040E050E0790144
:100430008A01E628F728082919293CC0232BD1F185
:10044000260E371E35014601062E04C09694879469
:10045000779467940A94D2F721E030E040E050E0CE
:1004600004C0220F331F441F551F6A95D2F7215035
:100470003040404050402A213B214C215D21211534
:1004800031054105510521F021E030E040E050E028
:1004900059016A01A628B728C828D9280BC0821597
:1004A00093052CF01C01AA24BB24650103C0EE2493
:1004B000FF24870111969C91D20111968C91981777
:1004C00009F445C0992339F0A80197012A193B097D
:1004D0004C095D0906C0A60195012E193F09400B84
:1004E000510B57FD08C01182338222822483358349
:1004F000468357831DC081E081833382228288270F
:100500009927DC01821B930BA40BB50B8483958385
:10051000A683B7830DC0220F331F441F551F2483AA
:1005200035834683578382819381019793838283A6
:100530002481358146815781DA01C9010197A109DA
:10054000B1098F5F9F4FAF4FBF4328F30BC091831B
:1005500033822282EA0CFB1C0C1D1D1DE482F582F5
:100560000683178383E08083248135814681578108
:1005700057FF1AC0C901AA2797FDA095BA2F81700D
:100580009070A070B0705695479537952795822B3F
:10059000932BA42BB52B84839583A683B783828169
:1005A0009381019693838283DF0101C0D201CD0143
:1005B000CDB7DEB7E2E10C94893AA0E2B0E0E3EE19
:1005C000F2E00C94793A69837A838B839C832D8340
:1005D0003E834F835887E9E0EE2EF12CEC0EFD1E92
:1005E000CE010196B7010E943F088E010F5E1F4F9A
:1005F000CE010596B8010E943F088A8991E08927BB
:100600008A8BC701B801AE01475E5F4F0E9491011E
:100610000E946A07A096E6E00C94953AA0E2B0E04A
:10062000E4E1F3E00C94793A69837A838B839C83C9
:100630002D833E834F835887F9E0EF2EF12CEC0E8B
:10064000FD1ECE010196B7010E943F088E010F5E8C
:100650001F4FCE010596B8010E943F08C701B8019F
:10066000AE01475E5F4F0E9491010E946A07A0960B
:10067000E6E00C94953AA0E2B0E0E1E4F3E00C94FB
:100680006D3A69837A838B839C832D833E834F836A
:100690005887CE010196BE01675F7F4F0E943F08D9
:1006A000CE010596BE016F5E7F4F0E943F0899857F
:1006B000923088F089898230C8F0943019F4823001
:1006C00051F404C0843029F4923081F485E394E03D
:1006D000C6C0923049F420E09A858A89981321E0B7
:1006E0002A87CE010996BBC0823049F420E09A8562
:1006F0008A89981321E02A8BCE014196B0C02D84BF
:100700003E844F8458886D887E888F88988CEE242C
:10071000FF248701AA24BB24650140E050E060E08B
:1007200070E0E0E0F0E0C10181709070892BE9F0A9
:10073000E60CF71C081D191D9A01AB012A0D3B1D83
:100740004C1D5D1D80E090E0A0E0B0E0E614F704F1
:100750000805190520F481E090E0A0E0B0E0BA01BE
:10076000A901480F591F6A1F7B1FAA0CBB1CCC1C78
:10077000DD1C97FE08C081E090E0A0E0B0E0A82A70
:10078000B92ACA2ADB2A3196E032F10549F0660C13
:10079000771C881C991C5694479437942794C3CF90
:1007A000FA85EA892B893C898B859C85280F391F1E
:1007B0002E5F3F4F17C0CA0181709070892B61F086
:1007C00016950795F794E79480E090E0A0E0B0E8F4
:1007D000E82AF92A0A2B1B2B76956795579547959A
:1007E0002F5F3F4F77FDE7CF0CC0440F551F661FAB
:1007F000771F17FD4160EE0CFF1C001F111F2150D9
:100800003040403090E0590790E0690790E4790764
:1008100060F32B8F3C8FDB01CA018F779070A07043
:10082000B07080349105A105B10561F447FD0AC09F
:10083000E114F1040105110529F0405C5F4F6F4F91
:100840007F4F40781A8EFE1711F081E08A8F4D8F0E
:100850005E8F6F8F78A383E0898FCE0149960E94C7
:100860006A07A096E2E10C94893AA8E1B0E0EBE3D4
:10087000F4E00C94753A69837A838B839C832D838F
:100880003E834F835887B9E0EB2EF12CEC0EFD1E12
:10089000CE010196B7010E943F088E010F5E1F4FE7
:1008A000CE010596B8010E943F082985223008F440
:1008B0007EC03989323010F4B8017CC08A859A89AB
:1008C00089278A87243011F0223031F4231709F068
:1008D0006EC065E374E06EC0343039F41D861E8648
:1008E0001F86188A1C861B8604C0323021F484E0DF
:1008F0008987B7015FC02B853C858B899C89281B24
:10090000390B3C872B87ED84FE840F851889AD88D1
:10091000BE88CF88D88CEA14FB040C051D0540F472
:10092000EE0CFF1C001F111F215030403C872B870D
:1009300020E030E040E050E080E090E0A0E0B0E473
:1009400060E070E0EA14FB040C051D0540F0282B64
:10095000392B4A2B5B2BEA18FB080C091D09B695AD
:10096000A79597958795EE0CFF1C001F111F6F5FD1
:100970007F4F6F31710531F7DA01C9018F779070C0
:10098000A070B07080349105A105B10561F427FD18
:100990000AC0E114F1040105110529F0205C3F4F64
:1009A0004F4F5F4F20782D873E874F87588BBE0172
:1009B000675F7F4FCB010E946A076896EAE00C945C
:1009C000913AA8E1B0E0E7EEF4E00C94793A69835B
:1009D0007A838B839C832D833E834F83588789E062
:1009E000E82EF12CEC0EFD1ECE010196B7010E94FF
:1009F0003F088E010F5E1F4FCE010596B8010E9481
:100A00003F088985823040F08989823028F0C7010B
:100A1000B8010E94B70801C08FEF6896E6E00C9419
:100A2000953AA8E1B0E0E7E1F5E00C94793A698302
:100A30007A838B839C832D833E834F83588789E001
:100A4000E82EF12CEC0EFD1ECE010196B7010E949E
:100A50003F088E010F5E1F4FCE010596B8010E9420
:100A60003F088985823040F08989823028F0C701AB
:100A7000B8010E94B70801C08FEF6896E6E00C94B9
:100A8000953AA8E1B0E0E7E4F5E00C94793A69839F
:100A90007A838B839C832D833E834F83588789E0A1
:100AA000E82EF12CEC0EFD1ECE010196B7010E943E
:100AB0003F088E010F5E1F4FCE010596B8010E94C0
:100AC0003F088985823040F08989823028F0C7014B
:100AD000B8010E94B70801C081E06896E6E00C9476
:100AE000953AA8E0B0E0E7E7F5E00C94763A9B0190
:100AF000AC0183E08983DA01C9018827B7FD8395BA
:100B00009927AA27BB27B82E211531054105510584
:100B100019F482E089833AC08823A9F0203080E06C
:100B2000380780E0480780E8580729F460E070E063
:100B300080E09FEC30C0EE24FF248701E21AF30A24
:100B4000040B150B02C079018A018EE1C82ED12C4D
:100B5000DC82CB82ED82FE820F831887C801B70149
:100B60000E941B0701971816190684F4082E04C06A
:100B7000EE0CFF1C001F111F0A94D2F7ED82FE82BB
:100B80000F831887C81AD90ADC82CB82BA82CE01B9
:100B900001960E946A072896E9E00C94923AACE02C
:100BA000B0E0E5EDF5E00C947D3A69837A838B83C0
:100BB0009C83CE010196BE016B5F7F4F0E943F0870
:100BC0008D81823061F1823050F1843021F48E8148
:100BD000882351F12EC02F81388537FD20C06E81CA
:100BE0002F3131051CF06623F9F023C08EE190E02F
:100BF000821B930B29853A854B855C8504C05695ED
:100C00004795379527958A95D2F76623B1F0509589
:100C10004095309521953F4F4F4F5F4F0EC020E0DC
:100C200030E040E050E009C02FEF3FEF4FEF5FE7CB
:100C300004C020E030E040E050E8B901CA012C9641
:100C4000E2E00C94993AA8E0B0E0E9E2F6E00C9416
:100C5000753A7B018C01611571058105910519F4C7
:100C600082E0898360C083E089838EE1C82ED12C25
:100C7000DC82CB82ED82FE820F831887C801B70128
:100C80000E941B07FC013197F7FF3BC02227332747
:100C90002E1B3F0B57016801022E04C0D694C79447
:100CA000B794A7940A94D2F740E050E060E070E077
:100CB00081E090E0A0E0B0E004C0880F991FAA1F77
:100CC000BB1F2A95D2F70197A109B1098E219F2157
:100CD000A023B1230097A105B10521F041E050E028
:100CE00060E070E04A295B296C297D294D835E8391
:100CF0006F8378878EE190E08E1B9F0B9C838B83A4
:100D000012C0309781F00E2E04C0EE0CFF1C001FA5
:100D1000111F0A94D2F7ED82FE820F831887CE1A34
:100D2000DF0ADC82CB821A82CE0101960E946A071A
:100D30002896EAE00C94913AEF92FF920F93DF939A
:100D4000CF93CDB7DEB760970FB6F894DEBF0FBE76
:100D5000CDBFA82F002309F461C07E010894E11CD7
:100D6000F11C88E0F70111928A95E9F729833A830B
:100D70004B835C836D837E83AF83988780E2801B87
:100D8000E82FFF27E7FDF09549815A816B817C812F
:100D9000181684F019861A861B861C8688279927C0
:100DA0008E1B9F0B04C0440F551F661F771F8A952B
:100DB000D2F728C0202F332727FD3095DB01CA0149
:100DC000022E04C0880F991FAA1FBB1F0A94D2F7D6
:100DD00089879A87AB87BC8704C0769567955795B6
:100DE0004795EA95D2F78D819E81AF81B88504C081
:100DF000880F991FAA1FBB1F2A95D2F7482B592B82
:100E00006A2B7B2B4D875E876F87788B29853A8588
:100E10004B855C856D857E85AF8598898A2F609628
:100E20000FB6F894DEBF0FBECDBFCF91DF910F910B
:100E3000FF90EF900895EF92FF920F931F937B0125
:100E40008C0180E0E81680E0F80681E0080780E089
:100E5000180788F48FEFE816F1040105110531F049
:100E600028F088E090E0A0E0B0E017C080E090E0DB
:100E7000A0E0B0E012C080E0E81680E0F80680E074
:100E8000080781E0180728F088E190E0A0E0B0E0D2
:100E900004C080E190E0A0E0B0E020E230E040E07B
:100EA00050E0281B390B4A0B5B0B04C016950795C5
:100EB000F794E7948A95D2F7F701E35CFB4F8081C2
:100EC000281B310941095109C9011F910F91FF9058
:100ED000EF900895DF92EF92FF920F931F93FC0122
:100EE000E480F58006811781D1808081823048F4CA
:100EF00080E090E0A0E1B0E0E82AF92A0A2B1B2B61
:100F0000A5C0843009F49FC0823021F4EE24FF2470
:100F1000870105C0E114F1040105110519F4E0E0B1
:100F2000F0E096C0628173819FEF623879070CF020
:100F30005BC022E83FEF261B370B2A3131052CF02E
:100F400020E030E040E050E02AC0B801A701022EC6
:100F500004C076956795579547950A94D2F781E036
:100F600090E0A0E0B0E004C0880F991FAA1FBB1F4B
:100F70002A95D2F70197A109B1098E219F21A023BB
:100F8000B1230097A105B10521F081E090E0A0E038
:100F9000B0E09A01AB01282B392B4A2B5B2BDA01ED
:100FA000C9018F779070A070B07080349105A10551
:100FB000B10539F427FF09C0205C3F4F4F4F5F4F09
:100FC00004C0215C3F4F4F4F5F4FE0E0F0E0203026
:100FD000A0E03A07A0E04A07A0E45A0710F0E1E0D9
:100FE000F0E079018A0127C06038710564F5FB01E2
:100FF000E158FF4FD801C7018F779070A070B07093
:1010000080349105A105B10539F4E7FE0DC080E4F7
:1010100090E0A0E0B0E004C08FE390E0A0E0B0E09A
:10102000E80EF91E0A1F1B1F17FF05C0169507952E
:10103000F794E794319687E016950795F794E7942F
:101040008A95D1F705C0EE24FF248701EFEFF0E089
:101050006E2F679566276795902F9F77D794DD242D
:10106000D7948E2F8695492F462B582F5D29B7018F
:10107000CA011F910F91FF90EF90DF900895FC013E
:10108000DB01408151812281622F6F7770E0221F46
:101090002227221F9381892F880F822B282F30E04F
:1010A000991F9927991F11969C9311972115310526
:1010B000A9F5411551056105710511F482E037C0AC
:1010C00082E89FEF13969C938E9312979A01AB013F
:1010D00067E0220F331F441F551F6A95D1F783E045
:1010E0008C930DC0220F331F441F551F12968D91F4
:1010F0009C911397019713969C938E93129720308F
:1011000080E0380780E0480780E4580758F31496D9
:101110002D933D934D935C93179708952F3F310581
:1011200079F4411551056105710519F484E08C933A
:10113000089564FF03C081E08C9312C01C9210C01C
:101140002F57304013963C932E93129783E08C9345
:1011500087E0440F551F661F771F8A95D1F770648B
:1011600014964D935D936D937C93179708951F93F9
:10117000DC01FB019C91923008F447C080818230F1
:1011800008F443C0943051F411961C91843099F5C1
:101190008181682F70E0611B71093FC0843021F0AC
:1011A000923031F48230B9F18181882389F12DC0E8
:1011B00011961C9111978230F1F081811817D9F4A2
:1011C00012962D913C9113978281938182179307F8
:1011D00094F028173907BCF014968D919D910D90CD
:1011E000BC91A02D2481358146815781281739076C
:1011F0004A075B0718F4112341F00AC082179307CE
:10120000A407B50740F4112319F061E070E005C0B0
:101210006FEF7FEF02C060E070E0CB011F91089597
:10122000DF93CF9300D00F92CDB7DEB71B82ABE236
:10123000B0E0EBE2F0E080818D7F8C9383E390E07F
:101240009A838983E0E4F0E01082E9E2F0E08981AA
:101250008083ABE2B0E0EBE2F0E080818E7F8C93A4
:101260008B818F7B8B838B818F7E8B838B818F7D1B
:101270008B838B81877F8B838B8182608B838B8138
:1012800084608B83AAE2B0E0EAE2F0E080818B7FA9
:101290008C938B8180688B83E0E4F0E08B8180838A
:1012A000AAE2B0E0EAE2F0E080818F778C93AAE2D4
:1012B000B0E0EAE2F0E080818F7B8C93AAE2B0E0BC
:1012C000EAE2F0E080818F7D8C93AAE2B0E0EAE26E
:1012D000F0E0808180618C93AAE2B0E0EAE2F0E085
:1012E000808188608C930F900F900F90CF91DF9149
:1012F0000895DF93CF9300D000D000D0CDB7DEB7F4
:101300008E831D8219821A821B821C828091600545
:10131000882309F044C081E0809360050BC0898177
:101320009A81AB81BC810196A11DB11D89839A83ED
:10133000AB83BC83EBE2F0E08081882F90E0807289
:1013400090709595879595958795959587959595A1
:10135000879595958795009761F489819A81AB81EE
:10136000BC81803127E2920720E0A20720E0B2078B
:10137000B1F689819A81AB81BC81803127E29207E5
:1013800020E0A20720E0B20719F484E08D8304C0B6
:10139000ECE2F0E08E8180831092600502C083E071
:1013A0008D838D8126960FB6F894DEBF0FBECDBF1C
:1013B000CF91DF910895DF93CF93CDB7DEB7279715
:1013C0000FB6F894DEBF0FBECDBF9F838E831D8204
:1013D00019821A821B821C828E819F81009709F4D8
:1013E00046C080916005882309F03EC081E080936B
:1013F00060050BC089819A81AB81BC810196A11DDA
:10140000B11D89839A83AB83BC83EBE2F0E08081DA
:10141000881F8827881F882F90E09070009761F4BC
:1014200089819A81AB81BC81803127E2920720E0DB
:10143000A20720E0B207F1F689819A81AB81BC81D5
:10144000803127E2920720E0A20720E0B20719F4DA
:1014500084E08D8306C0ECE2F0E08081EE81FF81C4
:1014600080831092600505C083E08D8302C082E016
:101470008D838D8127960FB6F894DEBF0FBECDBF4A
:10148000CF91DF910895DF93CF93CDB7DEB7659706
:101490000FB6F894DEBF0FBECDBF9D8B8C8B1B8A21
:1014A0001F86188A198A1A8A8C899D89009709F4DF
:1014B00098C08BC02F8538898C899D89FC01E20FEB
:1014C000F31F80810E9479098B8B80E090E0A8EC6B
:1014D000B2E48B879C87AD87BE876B857C858D85C5
:1014E0009E8520E030E04AEF54E40E943B03DC019B
:1014F000CB018F839887A987BA876F817885898583
:101500009A8520E030E040E85FE30E9441058823AF
:101510002CF481E090E09E838D833FC06F817885BD
:1015200089859A8520E03FEF4FE757E40E94E10468
:1015300018164CF56B857C858D859E8520E030E006
:1015400040E251E40E943B03DC01CB01BC01CD0130
:101550000E944900DC01CB019E838D830FC088EC83
:1015600090E09C838B838B819C810197F1F79C8316
:101570008B838D819E8101979E838D838D819E813A
:10158000009769F714C06F81788589859A850E94D4
:101590004900DC01CB019E838D838D819E819A83DE
:1015A000898389819A810197F1F79A8389838F854D
:1015B0009889A989BA890196A11DB11D8F87988B39
:1015C000A98BBA8B8B89882371F42F8538898C89F4
:1015D0009D89FC01E20FF31F8081882309F06ACF07
:1015E00002C082E08B8B8B8965960FB6F894DEBFC4
:1015F0000FBECDBFCF91DF910895DF93CF9300D081
:1016000000D00F92CDB7DEB79B838A837D836C8336
:10161000198280916005882399F58A819B810097C2
:1016200061F18C819D81009741F181E0809360059B
:101630008A819B8190935B0580935A058C819D8163
:1016400090935F0580935E0510926205ACE2B0E076
:1016500020915A0530915B0580916205882F90E0BA
:10166000F901E80FF91F80818C93AAE2B0E0EAE269
:10167000F0E0808180648C9305C082E0898302C0A1
:1016800083E0898389810F900F900F900F900F90C6
:10169000CF91DF910895DF93CF93CDB7DEB72B972E
:1016A0000FB6F894DEBF0FBECDBF9F838E834887F1
:1016B00059876A877B871D828E819F81009751F1B0
:1016C00019821A821B821C8217C029813A818E815D
:1016D0009F81820F931F0E94DB098D838D81882358
:1016E000D9F489819A81AB81BC810196A11DB11D7C
:1016F00089839A83AB83BC8329813A814B815C8146
:1017000088859985AA85BB85281739074A075B070D
:10171000E0F202C082E08D838D812B960FB6F894A3
:10172000DEBF0FBECDBFCF91DF910895DF93CF9382
:10173000CDB7DEB729970FB6F894DEBF0FBECDBF89
:101740009B838A834C835D836E837F83398728875D
:10175000198280916005882339F58A819B810097E1
:1017600001F1888599850097E1F081E0809360051B
:101770008A819B8190935D0580935C05888599851E
:1017800090935F0580935E058C8180936105109234
:101790006205AAE2B0E0EAE2F0E0808180688C9322
:1017A00005C082E0898302C083E08983898129960C
:1017B0000FB6F894DEBF0FBECDBFCF91DF91089575
:1017C0001F920F920FB60F9211242F933F934F93B6
:1017D0005F936F937F938F939F93AF93BF93EF9399
:1017E000FF93DF93CF93CDB7DEB720915C053091A7
:1017F0005D0580916205882F90E0D901A80FB91F7F
:10180000ECE2F0E080818C93809162058F5F8093A1
:10181000620590916205809161059817B1F410926C
:1018200062051092600580915E0590915F050097BA
:1018300029F0E0915E05F0915F050995AAE2B0E01C
:10184000EAE2F0E080818F778C93CF91DF91FF9176
:10185000EF91BF91AF919F918F917F916F915F9128
:101860004F913F912F910F900FBE0F901F901895A1
:101870001F920F920FB60F9211242F933F934F9305
:101880005F936F937F938F939F93AF93BF93EF93E8
:10189000FF93DF93CF93CDB7DEB7809162058F5F63
:1018A0008093620520915A0530915B058091620515
:1018B000882F90E0F901E80FF91F80818823B9F49F
:1018C000109262051092600580915E0590915F050F
:1018D000009729F0E0915E05F0915F050995AAE275
:1018E000B0E0EAE2F0E080818F7B8C930FC0ACE245
:1018F000B0E020915A0530915B0580916205882FF8
:1019000090E0F901E80FF91F80818C93CF91DF916E
:10191000FF91EF91BF91AF919F918F917F916F91C7
:101920005F914F913F912F910F900FBE0F901F909D
:101930001895DF93CF9300D00F92CDB7DEB79A837F
:1019400089836B83EEE3F0E089819A8191838083C0
:10195000EDE3F0E08B818083ACE3B0E0ECE3F0E01A
:10196000808184608C93ACE3B0E0ECE3F0E08081B4
:1019700082608C93ECE3F0E08081882F90E08270AD
:1019800090709595879581309105A1F30F900F90F8
:101990000F90CF91DF910895DF93CF9300D0CDB713
:1019A000DEB79A838983EEE3F0E089818083EFE3F9
:1019B000F0E089819A81892F99278083ACE3B0E098
:1019C000ECE3F0E0808181608C93EDE3F0E08081D6
:1019D0000F900F90CF91DF910895DF93CF93CDB704
:1019E000DEB728970FB6F894DEBF0FBECDBF8A834F
:1019F0006B834C8381E089838A81843008F0F1C055
:101A00008B81883008F0EDC08C81813009F06FC087
:101A10008A81282F30E038872F838F819885813005
:101A2000910549F12F813885223031052CF48F81C1
:101A30009885009761F0D6C02F8138852230310516
:101A400071F18F81988583309105E9F1CBC0AAE3CC
:101A5000B0E0EAE3F0E08081482F8B81282F30E06E
:101A600081E090E0022E02C0880F991F0A94E2F7ED
:101A7000842B8C93B7C0A7E3B0E0E7E3F0E080816C
:101A8000482F8B81282F30E081E090E0022E02C0A9
:101A9000880F991F0A94E2F7842B8C93A3C0A4E3C8
:101AA000B0E0E4E3F0E08081482F8B81282F30E024
:101AB00081E090E0022E02C0880F991F0A94E2F79D
:101AC000842B8C938FC0A1E3B0E0E1E3F0E0808150
:101AD000482F8B81282F30E081E090E0022E02C059
:101AE000880F991F0A94E2F7842B8C937BC08C811A
:101AF000882309F074C08A81282F30E03E832D832B
:101B00008D819E818130910559F12D813E81223058
:101B100031052CF48D819E81009769F063C02D8181
:101B20003E812230310589F18D819E81833091057E
:101B300009F440C057C0AAE3B0E0EAE3F0E08081D6
:101B4000482F8B81282F30E081E090E0022E02C0E8
:101B5000880F991F0A94E2F7809584238C9342C0E2
:101B6000A7E3B0E0E7E3F0E08081482F8B81282FE6
:101B700030E081E090E0022E02C0880F991F0A94A5
:101B8000E2F7809584238C932DC0A4E3B0E0E4E3D6
:101B9000F0E08081482F8B81282F30E081E090E0B9
:101BA000022E02C0880F991F0A94E2F780958423C1
:101BB0008C9318C0A1E3B0E0E1E3F0E08081482F0E
:101BC0008B81282F30E081E090E0022E02C0880F48
:101BD000991F0A94E2F7809584238C9303C019829D
:101BE00001C01982898128960FB6F894DEBF0FBE16
:101BF000CDBFCF91DF910895DF93CF93CDB7DEB7FF
:101C000028970FB6F894DEBF0FBECDBF8A836B83D3
:101C10004C8381E089838A81843008F0F1C08B8114
:101C2000883008F0EDC08C81813009F06FC08A8166
:101C3000282F30E038872F838F8198858130910558
:101C400049F12F813885223031052CF48F81988518
:101C5000009761F0D6C02F8138852230310571F1AF
:101C60008F81988583309105E9F1CBC0ABE3B0E07B
:101C7000EBE3F0E08081482F8B81282F30E081E07A
:101C800090E0022E02C0880F991F0A94E2F7842B7D
:101C90008C93B7C0A8E3B0E0E8E3F0E08081482F80
:101CA0008B81282F30E081E090E0022E02C0880F67
:101CB000991F0A94E2F7842B8C93A3C0A5E3B0E0AC
:101CC000E5E3F0E08081482F8B81282F30E081E030
:101CD00090E0022E02C0880F991F0A94E2F7842B2D
:101CE0008C938FC0A2E3B0E0E2E3F0E08081482F64
:101CF0008B81282F30E081E090E0022E02C0880F17
:101D0000991F0A94E2F7842B8C937BC08C818823E3
:101D100009F074C08A81282F30E03E832D838D81A5
:101D20009E818130910559F12D813E81223031050E
:101D30002CF48D819E81009769F063C02D813E81D6
:101D40002230310589F18D819E818330910509F41E
:101D500040C057C0ABE3B0E0EBE3F0E08081482F38
:101D60008B81282F30E081E090E0022E02C0880FA6
:101D7000991F0A94E2F7809584238C9342C0A8E3CC
:101D8000B0E0E8E3F0E08081482F8B81282F30E03D
:101D900081E090E0022E02C0880F991F0A94E2F7BA
:101DA000809584238C932DC0A5E3B0E0E5E3F0E0BB
:101DB0008081482F8B81282F30E081E090E0022E37
:101DC00002C0880F991F0A94E2F7809584238C93B0
:101DD00018C0A2E3B0E0E2E3F0E08081482F8B81FD
:101DE000282F30E081E090E0022E02C0880F991F7A
:101DF0000A94E2F7809584238C9303C0198201C072
:101E00001982898128960FB6F894DEBF0FBECDBF28
:101E1000CF91DF910895DF93CF93CDB7DEB72797AA
:101E20000FB6F894DEBF0FBECDBF8A836B835D8390
:101E30004C8381E089838A81843008F0A6C08B813D
:101E4000883008F0A2C08A81282F30E03F832E839B
:101E50004E815F8141305105C1F18E819F81823079
:101E6000910534F42E813F812115310571F08EC02A
:101E70004E815F814230510509F447C08E819F81B8
:101E80008330910509F461C081C0E9E3F0E080810D
:101E9000482F50E08B81282F30E081E090E002C095
:101EA000880F991F2A95E2F79A01282339238B81FD
:101EB000882F90E0A90102C0559547958A95E2F7D1
:101EC000CA01EC81FD81808361C0E6E3F0E080819E
:101ED000482F50E08B81282F30E081E090E002C055
:101EE000880F991F2A95E2F79A01282339238B81BD
:101EF000882F90E0A90102C0559547958A95E2F791
:101F0000CA01EC81FD81808341C0E3E3F0E0808180
:101F1000482F50E08B81282F30E081E090E002C014
:101F2000880F991F2A95E2F79A01282339238B817C
:101F3000882F90E0A90102C0559547958A95E2F750
:101F4000CA01EC81FD81808321C0E0E3F0E0808163
:101F5000482F50E08B81282F30E081E090E002C0D4
:101F6000880F991F2A95E2F79A01282339238B813C
:101F7000882F90E0A90102C0559547958A95E2F710
:101F8000CA01EC81FD81808301C019828981279675
:101F90000FB6F894DEBF0FBECDBFCF91DF9108958D
:101FA000DF93CF9300D000D00F92CDB7DEB78A83F6
:101FB0006B8381E089838A81843008F073C08B81D0
:101FC000883008F06FC08A81282F30E03D832C8351
:101FD0008C819D818130910549F12C813D81223098
:101FE00031052CF48C819D81009761F05CC02C81BF
:101FF0003D812230310571F18C819D8183309105C5
:10200000E9F151C0ABE3B0E0EBE3F0E08081482FB1
:102010008B81282F30E081E090E0022E02C0880FF3
:10202000991F0A94E2F784278C933DC0A8E3B0E09F
:10203000E8E3F0E08081482F8B81282F30E081E0B9
:1020400090E0022E02C0880F991F0A94E2F78427BD
:102050008C9329C0A5E3B0E0E5E3F0E08081482F50
:102060008B81282F30E081E090E0022E02C0880FA3
:10207000991F0A94E2F784278C9315C0A2E3B0E07D
:10208000E2E3F0E08081482F8B81282F30E081E06F
:1020900090E0022E02C0880F991F0A94E2F784276D
:1020A0008C9301C0198289810F900F900F900F902F
:1020B0000F90CF91DF910895DF93CF9300D000D0A0
:1020C00000D0CDB7DEB78A836B834C8381E08983F0
:1020D0008A81843008F03EC18B81883008F03AC193
:1020E0008A81282F30E03E832D838D819E8181302F
:1020F000910509F45DC02D813E81223031052CF41B
:102100008D819E81009771F026C12D813E81223004
:10211000310509F493C08D819E818330910509F4C6
:10212000D3C019C18C81813071F5A0E5B0E0E0E544
:10213000F0E080818B7F8C93AAE3B0E0EAE3F0E0EB
:102140008081482F8B81282F30E081E090E002C011
:10215000880F991F2A95E2F7809584238C93ABE32F
:10216000B0E0EBE3F0E08081482F8B81282F30E056
:1021700081E090E0022E02C0880F991F0A94E2F7D6
:10218000842B8C93E8C0ABE3B0E0EBE3F0E080811C
:10219000482F8B81282F30E081E090E0022E02C092
:1021A000880F991F0A94E2F7809584238C93D3C0FB
:1021B0008C81813071F5A0E5B0E0E0E5F0E0808150
:1021C0008B7F8C93A7E3B0E0E7E3F0E08081482FBA
:1021D0008B81282F30E081E090E002C0880F991FAA
:1021E0002A95E2F7809584238C93A8E3B0E0E8E396
:1021F000F0E08081482F8B81282F30E081E090E053
:10220000022E02C0880F991F0A94E2F7842B8C9348
:10221000A2C0A8E3B0E0E8E3F0E08081482F8B8122
:10222000282F30E081E090E0022E02C0880F991F35
:102230000A94E2F7809584238C938DC08C81813041
:1022400071F5A0E5B0E0E0E5F0E080818B7F8C9354
:10225000A4E3B0E0E4E3F0E08081482F8B81282FF5
:1022600030E081E090E002C0880F991F2A95E2F7E4
:10227000809584238C93A5E3B0E0E5E3F0E08081D2
:10228000482F8B81282F30E081E090E0022E02C0A1
:10229000880F991F0A94E2F7842B8C935CC0A5E306
:1022A000B0E0E5E3F0E08081482F8B81282F30E01B
:1022B00081E090E0022E02C0880F991F0A94E2F795
:1022C000809584238C9347C08C81813071F5A0E583
:1022D000B0E0E0E5F0E080818B7F8C93A1E3B0E09B
:1022E000E1E3F0E08081482F8B81282F30E081E00E
:1022F00090E002C0880F991F2A95E2F78095842309
:102300008C93A2E3B0E0E2E3F0E08081482F8B8180
:10231000282F30E081E090E0022E02C0880F991F44
:102320000A94E2F7842B8C9316C0A2E3B0E0E2E3B8
:10233000F0E08081482F8B81282F30E081E090E011
:10234000022E02C0880F991F0A94E2F78095842319
:102350008C9301C01982898126960FB6F894DEBF4E
:102360000FBECDBFCF91DF910895DF93CF9300D003
:1023700000D00F92CDB7DEB78A836B8381E089836B
:102380008A818430A8F58A81282F30E03D832C8310
:102390008C819D8181309105D1F02C813D8122304D
:1023A00031052CF48C819D81009761F01FC02C8138
:1023B0003D812230310581F08C819D8183309105F2
:1023C00081F014C0EAE3F0E08B81808312C0E7E380
:1023D000F0E08B8180830DC0E4E3F0E08B818083AB
:1023E00008C0E1E3F0E08B81808303C0198201C063
:1023F000198289810F900F900F900F900F90CF91BD
:10240000DF910895DF93CF9300D000D00F92CDB726
:10241000DEB78A836B8381E089838A818430A8F563
:102420008A81282F30E03D832C838C819D818130EF
:102430009105D1F02C813D81223031052CF48C8125
:102440009D81009761F01FC02C813D8122303105B4
:1024500081F08C819D818330910581F014C0EBE384
:10246000F0E08B81808312C0E8E3F0E08B81808311
:102470000DC0E5E3F0E08B81808308C0E2E3F0E08B
:102480008B81808303C0198201C0198289810F90DA
:102490000F900F900F900F90CF91DF910895DF93E1
:1024A000CF93CDB7DEB727970FB6F894DEBF0FBE38
:1024B000CDBF8A837C836B8381E089838A8184306A
:1024C00008F03FC08A81282F30E03F832E838E8121
:1024D0009F8181309105E1F02E813F8122303105CD
:1024E0002CF48E819F81009761F027C02E813F815F
:1024F00022303105A1F08E819F8183309105B1F0AA
:102500001CC0E9E3F0E08081EB81FC81808316C090
:10251000E6E3F0E08081EB81FC8180830FC0E3E3A0
:10252000F0E08081EB81FC81808308C0E0E3F0E093
:102530008081EB81FC81808301C0198299819D8318
:1025400003C0198229812D838D8127960FB6F894B7
:10255000DEBF0FBECDBFCF91DF910895DF93CF9344
:1025600000D000D0CDB7DEB78A8381E089838A812D
:10257000843008F03FC08A81282F30E03C832B83D1
:102580008B819C8181309105E9F02B813C81223047
:1025900031052CF48B819C81009761F02CC02B813C
:1025A0003C8122303105B1F08B819C8183309105D3
:1025B000C9F021C0ABE3B0E0EBE3F0E080818095AF
:1025C0008C9319C0A8E3B0E0E8E3F0E08081809547
:1025D0008C9311C0A5E3B0E0E5E3F0E08081809545
:1025E0008C9309C0A2E3B0E0E2E3F0E08081809543
:1025F0008C9301C0198289810F900F900F900F90DA
:10260000CF91DF910895DF93CF9300D000D00F9248
:10261000CDB7DEB78A836B8381E089838A8184307A
:1026200008F062C08B818F708B838A81282F30E005
:102630003D832C838C819D818130910529F12C81F2
:102640003D81223031052CF48C819D81009761F011
:102650004CC02C813D812230310531F18C819D812E
:102660008330910589F141C0ABE3B0E0EBE3F0E0EA
:102670008081807F8C93ABE3B0E0EBE3F0E090816E
:102680008B81892B8C9331C0A8E3B0E0E8E3F0E0C4
:102690008081807F8C93A8E3B0E0E8E3F0E0908154
:1026A0008B81892B8C9321C0A5E3B0E0E5E3F0E0BA
:1026B0008081807F8C93A5E3B0E0E5E3F0E090813A
:1026C0008B81892B8C9311C0A2E3B0E0E2E3F0E0B0
:1026D0008081807F8C93A2E3B0E0E2E3F0E0908120
:1026E0008B81892B8C9301C0198289810F900F9067
:1026F0000F900F900F90CF91DF910895DF93CF93BC
:1027000000D000D00F92CDB7DEB78A836B8381E013
:1027100089838A81843008F063C08B818295807FB1
:102720008B838A81282F30E03D832C838C819D818F
:102730008130910529F12C813D81223031052CF425
:102740008C819D81009761F04CC02C813D812230AD
:10275000310531F18C819D818330910589F141C032
:10276000ABE3B0E0EBE3F0E080818F708C93ABE300
:10277000B0E0EBE3F0E090818B81892B8C9331C04A
:10278000A8E3B0E0E8E3F0E080818F708C93A8E3E9
:10279000B0E0E8E3F0E090818B81892B8C9321C03D
:1027A000A5E3B0E0E5E3F0E080818F708C93A5E3D2
:1027B000B0E0E5E3F0E090818B81892B8C9311C030
:1027C000A2E3B0E0E2E3F0E080818F708C93A2E3BB
:1027D000B0E0E2E3F0E090818B81892B8C9301C023
:1027E000198289810F900F900F900F900F90CF91C9
:1027F000DF910895DF93CF9300D000D00F92CDB733
:10280000DEB78A836B8381E089838A81843008F014
:1028100062C08B818F708B838A81282F30E03D834B
:102820002C838C819D818130910529F12C813D8102
:10283000223031052CF48C819D81009761F04CC0D1
:102840002C813D812230310531F18C819D81833095
:10285000910589F141C0AAE3B0E0EAE3F0E08081AC
:10286000807F8C93AAE3B0E0EAE3F0E090818B8173
:10287000892B8C9331C0A7E3B0E0E7E3F0E08081DF
:10288000807F8C93A7E3B0E0E7E3F0E090818B8159
:10289000892B8C9321C0A4E3B0E0E4E3F0E08081D5
:1028A000807F8C93A4E3B0E0E4E3F0E090818B813F
:1028B000892B8C9311C0A1E3B0E0E1E3F0E08081CB
:1028C000807F8C93A1E3B0E0E1E3F0E090818B8125
:1028D000892B8C9301C0198289810F900F900F90E2
:1028E0000F900F90CF91DF910895DF93CF9300D099
:1028F00000D00F92CDB7DEB78A836B8381E08983E6
:102900008A81843008F063C08B818295807F8B83BD
:102910008A81282F30E03D832C838C819D818130FA
:10292000910529F12C813D81223031052CF48C81D7
:102930009D81009761F04CC02C813D812230310592
:1029400031F18C819D818330910589F141C0AAE3E9
:10295000B0E0EAE3F0E080818F708C93AAE3B0E00E
:10296000EAE3F0E090818B81892B8C9331C0A7E35F
:10297000B0E0E7E3F0E080818F708C93A7E3B0E0F4
:10298000E7E3F0E090818B81892B8C9321C0A4E355
:10299000B0E0E4E3F0E080818F708C93A4E3B0E0DA
:1029A000E4E3F0E090818B81892B8C9311C0A1E34B
:1029B000B0E0E1E3F0E080818F708C93A1E3B0E0C0
:1029C000E1E3F0E090818B81892B8C9301C0198227
:1029D00089810F900F900F900F900F90CF91DF9102
:1029E0000895DF93CF93CDB7DEB782E060E041E09A
:1029F0000E945C1082E061E041E00E945C1082E095
:102A000062E041E00E945C1082E063E041E00E94ED
:102A10005C1082E06FE00E94751482E06FE00E941B
:102A20007E13CF91DF910895DF93CF93CDB7DEB7BB
:102A300062970FB6F894DEBF0FBECDBF8FEF898BC4
:102A400084E08F87C9C082E06F8540E00E94FC0D62
:102A5000188AB6C09E012E5E3F4F82E06889A901A8
:102A60000E940B0F8A89882309F0A7C080E090E0BC
:102A7000A8E4B2E48B879C87AD87BE876B857C8595
:102A80008D859E8520E030E04AEF54E40E943B03B0
:102A9000DC01CB018F839887A987BA876F817885FE
:102AA00089859A8520E030E040E85FE30E94410597
:102AB00088232CF481E090E09E838D833FC06F815A
:102AC000788589859A8520E03FEF4FE757E40E949B
:102AD000E10418164CF56B857C858D859E8520E07C
:102AE00030E040E251E40E943B03DC01CB01BC0139
:102AF000CD010E944900DC01CB019E838D830FC074
:102B000088EC90E09C838B838B819C810197F1F70B
:102B10009C838B838D819E8101979E838D838D8184
:102B20009E81009769F714C06F81788589859A85A1
:102B30000E944900DC01CB019E838D838D819E81A3
:102B40009A83898389819A810197F1F79A8389838E
:102B50009E012E5E3F4F82E06889A9010E940B0F03
:102B60008A898823A9F48889482F50E08F85882F87
:102B700090E09C0124503040CA01880F991F880FB3
:102B8000991F820F931FFC01E35CFA4F8081898BB0
:102B90009E012E5E3F4F82E06889A9010E940B0FC3
:102BA00008C09E012E5E3F4F82E06889A9010E9405
:102BB0000B0F8A898823A9F307C088898F5F888BC8
:102BC0008889843008F446CF82E06F8541E00E9416
:102BD000FC0D8F858F5F8F878F85883008F433CF0A
:102BE000898962960FB6F894DEBF0FBECDBFCF9134
:102BF000DF9108950F931F93DF93CF93CDB7DEB787
:102C0000C654D0400FB6F894DEBF0FBECDBFFE0154
:102C1000ED5BFF4F80E090E0A8E4B2E48083918315
:102C2000A283B3838E01015C1F4FFE01ED5BFF4F5A
:102C3000608171818281938120E030E04AEF54E429
:102C40000E943B03DC01CB01F80180839183A283C6
:102C5000B383FE01FF96608171818281938120E0C0
:102C600030E040E85FE30E94410588232CF481E0D6
:102C700090E09EAF8DAF46C0FE01FF9660817181EE
:102C80008281938120E03FEF4FE757E40E94E10407
:102C9000181664F5FE01ED5BFF4F60817181828142
:102CA000938120E030E040E251E40E943B03DC01EC
:102CB000CB01BC01CD010E944900DC01CB019EAFDC
:102CC0008DAF0FC088EC90E09CAF8BAF8BAD9CAD0F
:102CD0000197F1F79CAF8BAF8DAD9EAD01979EAF85
:102CE0008DAF8DAD9EAD009769F716C0FE01FF96C2
:102CF00060817181828193810E944900DC01CB0156
:102D00009EAF8DAF8DAD9EAD9AAF89AF89AD9AADB7
:102D10000197F1F79AAF89AF80E060E041E00E944F
:102D2000ED0C80E061E041E00E94ED0C80E062E0AB
:102D300041E00E94ED0C80E063E041E00E94ED0C78
:102D400080E066E041E00E94ED0C80E065E041E05B
:102D50000E94ED0C80E064E041E00E94ED0C82E016
:102D60000E94B51880E090E0A0E2B1E48DAB9EAB8C
:102D7000AFABB8AF6DA97EA98FA998AD20E030E0C8
:102D80004AEF54E40E943B03DC01CB0189AB9AABD0
:102D9000ABABBCAB69A97AA98BA99CA920E030E0B8
:102DA00040E85FE30E94410588232CF481E090E035
:102DB00098AB8FA73FC069A97AA98BA99CA920E0ED
:102DC0003FEF4FE757E40E94E10418164CF56DA958
:102DD0007EA98FA998AD20E030E040E251E40E9446
:102DE0003B03DC01CB01BC01CD010E944900DC01A9
:102DF000CB0198AB8FA70FC088EC90E09EA78DA762
:102E00008DA59EA50197F1F79EA78DA78FA598A9DF
:102E1000019798AB8FA78FA598A9009769F714C061
:102E200069A97AA98BA99CA90E944900DC01CB0160
:102E300098AB8FA78FA598A99CA78BA78BA59CA5BE
:102E40000197F1F79CA78BA788E20E94B51880E054
:102E500090E0A0E8BFE38FA398A7A9A7BAA76FA1A6
:102E600078A589A59AA520E030E04AEF54E40E94B5
:102E70003B03DC01CB018BA39CA3ADA3BEA36BA141
:102E80007CA18DA19EA120E030E040E85FE30E949C
:102E9000410588232CF481E090E09AA389A33FC0E8
:102EA0006BA17CA18DA19EA120E03FEF4FE757E4ED
:102EB0000E94E10418164CF56FA178A589A59AA582
:102EC00020E030E040E251E40E943B03DC01CB0112
:102ED000BC01CD010E944900DC01CB019AA389A36A
:102EE0000FC088EC90E098A38F8F8F8D98A10197E9
:102EF000F1F798A38F8F89A19AA101979AA389A32B
:102F000089A19AA1009769F714C06BA17CA18DA13A
:102F10009EA10E944900DC01CB019AA389A389A14B
:102F20009AA19E8F8D8F8D8D9E8D0197F1F79E8F2B
:102F30008D8F8CE00E94B51880E090E0A0E8BFE3A0
:102F4000898F9A8FAB8FBC8F698D7A8D8B8D9C8D7D
:102F500020E030E04AEF54E40E943B03DC01CB0167
:102F60008D8B9E8BAF8BB88F6D897E898F89988D65
:102F700020E030E040E85FE30E94410588232CF424
:102F800081E090E09C8B8B8B3FC06D897E898F891F
:102F9000988D20E03FEF4FE757E40E94E1041816B8
:102FA0004CF5698D7A8D8B8D9C8D20E030E040E270
:102FB00051E40E943B03DC01CB01BC01CD010E9426
:102FC0004900DC01CB019C8B8B8B0FC088EC90E01F
:102FD0009A8B898B89899A890197F1F79A8B898BCA
:102FE0008B899C8901979C8B8B8B8B899C89009703
:102FF00069F714C06D897E898F89988D0E94490078
:10300000DC01CB019C8B8B8B8B899C89988B8F8768
:103010008F8598890197F1F7988B8F870E94DA192D
:1030200086E00E94B51880E090E0A0E8BFE38B87BF
:103030009C87AD87BE876B857C858D859E8520E0CE
:1030400030E04AEF54E40E943B03DC01CB018F8364
:103050009887A987BA876F81788589859A8520E0C6
:1030600030E040E85FE30E94410588232CF481E0D2
:1030700090E09E838D833FC06F81788589859A8596
:1030800020E03FEF4FE757E40E94E10418164CF5AB
:103090006B857C858D859E8520E030E040E251E4A3
:1030A0000E943B03DC01CB01BC01CD010E94490021
:1030B000DC01CB019E838D830FC088EC90E09C8364
:1030C0008B838B819C810197F1F79C838B838D810E
:1030D0009E8101979E838D838D819E81009769F7E4
:1030E00014C06F81788589859A850E944900DC012A
:1030F000CB019E838D838D819E819A838983898173
:103100009A810197F1F79A838983CA5BDF4F0FB6E3
:10311000F894DEBF0FBECDBFCF91DF911F910F910D
:103120000895DF93CF930F92CDB7DEB7898380E008
:1031300066E041E00E94FC0D80E065E040E00E9416
:10314000FC0D8981982F92959F7080E0692F0E94D5
:1031500003130E94D91880E069810E9403130E9422
:10316000D9180F90CF91DF910895DF93CF930F92ED
:10317000CDB7DEB7898380E066E040E00E94FC0DB9
:1031800080E065E040E00E94FC0D8981982F9295D7
:103190009F7080E0692F0E9403130E94D91880E07D
:1031A00069810E9403130E94D9180F90CF91DF917B
:1031B0000895DF93CF93CDB7DEB76C970FB6F89431
:1031C000DEBF0FBECDBF80E064E041E00E94FC0D99
:1031D00080E090E0A0E8BFE3898F9A8FAB8FBC8F2F
:1031E000698D7A8D8B8D9C8D20E030E04AEF54E420
:1031F0000E943B03DC01CB018D8B9E8BAF8BB88F84
:103200006D897E898F89988D20E030E040E85FE30A
:103210000E94410588232CF481E090E09C8B8B8BED
:103220003FC06D897E898F89988D20E03FEF4FE701
:1032300057E40E94E10418164CF5698D7A8D8B8D48
:103240009C8D20E030E040E251E40E943B03DC0131
:10325000CB01BC01CD010E944900DC01CB019C8B5C
:103260008B8B0FC088EC90E09A8B898B89899A8927
:103270000197F1F79A8B898B8B899C8901979C8B9D
:103280008B8B8B899C89009769F714C06D897E8927
:103290008F89988D0E944900DC01CB019C8B8B8B20
:1032A0008B899C89988B8F878F8598890197F1F7F7
:1032B000988B8F8780E064E040E00E94FC0D80E006
:1032C00090E0A0E8BFE38B879C87AD87BE876B85C6
:1032D0007C858D859E8520E030E04AEF54E40E9495
:1032E0003B03DC01CB018F839887A987BA876F8165
:1032F000788589859A8520E030E040E85FE30E9488
:10330000410588232CF481E090E09E838D833FC0AB
:103310006F81788589859A8520E03FEF4FE757E4F4
:103320000E94E10418164CF56B857C858D859E8581
:1033300020E030E040E251E40E943B03DC01CB019D
:10334000BC01CD010E944900DC01CB019E838D832D
:103350000FC088EC90E09C838B838B819C810197CC
:10336000F1F79C838B838D819E8101979E838D8352
:103370008D819E81009769F714C06F81788589855A
:103380009A850E944900DC01CB019E838D838D814B
:103390009E819A83898389819A810197F1F79A8323
:1033A00089836C960FB6F894DEBF0FBECDBFCF9168
:1033B000DF910895DF93CF93CDB7DEB72E970FB689
:1033C000F894DEBF0FBECDBF81E00E94B51880E04B
:1033D00090E0A0E2B1E48B879C87AD87BE876B85C8
:1033E0007C858D859E8520E030E04AEF54E40E9484
:1033F0003B03DC01CB018F839887A987BA876F8154
:10340000788589859A8520E030E040E85FE30E9476
:10341000410588232CF481E090E09E838D833FC09A
:103420006F81788589859A8520E03FEF4FE757E4E3
:103430000E94E10418164CF56B857C858D859E8570
:1034400020E030E040E251E40E943B03DC01CB018C
:10345000BC01CD010E944900DC01CB019E838D831C
:103460000FC088EC90E09C838B838B819C810197BB
:10347000F1F79C838B838D819E8101979E838D8341
:103480008D819E81009769F714C06F817885898549
:103490009A850E944900DC01CB019E838D838D813A
:1034A0009E819A83898389819A810197F1F79A8312
:1034B00089832E960FB6F894DEBF0FBECDBFCF9195
:1034C000DF910895DF93CF9300D00F92CDB7DEB791
:1034D0009B838A8319820EC08981282F30E08A81DC
:1034E0009B81FC01E20FF31F80810E94911889816A
:1034F0008F5F89838981282F30E08A819B81FC013D
:10350000E20FF31F8081882339F70F900F900F90FF
:10351000CF91DF910895EF92FF920F931F93DF9366
:10352000CF93CDB7DEB728970FB6F894DEBF0FBEA6
:10353000CDBF6D837E838F83988781E090E0A0E08C
:10354000B0E089839A83AB83BC838D819E81AF81F8
:10355000B8850097A105B10521F480E30E94911878
:1035600085C08D819E81AF81B885BB230CF049C099
:103570008DE20E9491188D819E81AF81B885B095B2
:10358000A095909581959F4FAF4FBF4F8D839E83A0
:10359000AF83B88736C089819A81AB81BC812AE02C
:1035A00030E040E050E0BC01CD010E94053A7B01D3
:1035B0008C018D819E81AF81B8852AE030E040E0AA
:1035C00050E0BC01CD010E94523ADC01CB018E0DCE
:1035D0009F1DA01FB11F89839A83AB83BC838D81FC
:1035E0009E81AF81B8852AE030E040E050E0BC0128
:1035F000CD010E94523ADA01C9018D839E83AF83C7
:10360000B8878D819E81AF81B8850097A105B105EE
:1036100011F623C089819A81AB81BC812AE030E018
:1036200040E050E0BC01CD010E94303ADC01CB010A
:10363000805D0E94911889819A81AB81BC812AE0CA
:1036400030E040E050E0BC01CD010E94303ADA01A8
:10365000C90189839A83AB83BC8389819A81AB81B9
:10366000BC8181309105A105B105A1F628960FB660
:10367000F894DEBF0FBECDBFCF91DF911F910F91A8
:10368000FF90EF900895AF92BF92CF92DF92EF92AA
:10369000FF920F931F93DF93CF9300D000D0CDB74D
:1036A000DEB769837A838B839C8369817A818B817E
:1036B0009C810E94CF05DC01CB01BC01CD010E94A1
:1036C0008B1A69817A818B819C8120E030E040E017
:1036D00050E00E94410588234CF489819A81AB8196
:1036E000BC81B05889839A83AB83BC8369817A811A
:1036F0008B819C810E94CF05DC01CB01BC01CD01F7
:103700000E9471059B01AC0169817A818B819C814A
:103710000E94DD02DC01CB0189839A83AB83BC83E9
:1037200069817A818B819C8120E030E44CE156E410
:103730000E943B03DC01CB0189839A83AB83BC836A
:1037400069817A818B819C810E947500A22EB32EA3
:10375000C42ED52EE62EF72E082F192F8A2D8B2951
:103760008C298D298E298F29802B812B882379F014
:103770008EE20E94911869817A818B819C810E94DE
:10378000CF05DC01CB01BC01CD010E948B1A0F904B
:103790000F900F900F90CF91DF911F910F91FF909D
:1037A000EF90DF90CF90BF90AF900895DF93CF93CD
:1037B000CDB7DEB761970FB6F894DEBF0FBECDBFB1
:1037C000888B698B8889882349F08889853030F413
:1037D0008989882319F08989853118F080E88F87D5
:1037E0001BC08889813021F4898981588F8714C052
:1037F0008889823021F4898981548F870DC0888916
:10380000833021F489898D568F8706C0888984305A
:1038100019F489898D528F878F850E94B51880E0B1
:1038200090E0A0E8BFE38B879C87AD87BE876B8560
:103830007C858D859E8520E030E04AEF54E40E942F
:103840003B03DC01CB018F839887A987BA876F81FF
:10385000788589859A8520E030E040E85FE30E9422
:10386000410588232CF481E090E09E838D833FC046
:103870006F81788589859A8520E03FEF4FE757E48F
:103880000E94E10418164CF56B857C858D859E851C
:1038900020E030E040E251E40E943B03DC01CB0138
:1038A000BC01CD010E944900DC01CB019E838D83C8
:1038B0000FC088EC90E09C838B838B819C81019767
:1038C000F1F79C838B838D819E8101979E838D83ED
:1038D0008D819E81009769F714C06F8178858985F5
:1038E0009A850E944900DC01CB019E838D838D81E6
:1038F0009E819A83898389819A810197F1F79A83BE
:10390000898361960FB6F894DEBF0FBECDBFCF910D
:10391000DF910895DF93CF9300D00F92CDB7DEB73C
:103920008A836B83198280E40E94B51819820CC0C7
:103930008981882F90E0FC01E35BFA4F80810E942F
:10394000911889818F5F89838981883088F38A8182
:103950006B810E94D61B198206C089810E94911832
:1039600089818F5F898389818830B8F30F900F90A8
:103970000F90CF91DF910895DF93CF93CDB7DEB74E
:103980002E970FB6F894DEBF0FBECDBF8CE10E941C
:10399000B51880E090E0A0E8BFE38B879C87AD87F7
:1039A000BE876B857C858D859E8520E030E04AEF63
:1039B00054E40E943B03DC01CB018F839887A987E5
:1039C000BA876F81788589859A8520E030E040E864
:1039D0005FE30E94410588232CF481E090E09E8300
:1039E0008D833FC06F81788589859A8520E03FEF80
:1039F0004FE757E40E94E10418164CF56B857C856F
:103A00008D859E8520E030E040E251E40E943B033A
:103A1000DC01CB01BC01CD010E944900DC01CB01DE
:103A20009E838D830FC088EC90E09C838B838B8179
:103A30009C810197F1F79C838B838D819E810197F7
:103A40009E838D838D819E81009769F714C06F815D
:103A5000788589859A850E944900DC01CB019E8387
:103A60008D838D819E819A83898389819A81019733
:103A7000F1F79A8389832E960FB6F894DEBF0FBEB6
:103A8000CDBFCF91DF910895DF93CF93CDB7DEB750
:103A90002E970FB6F894DEBF0FBECDBF88E10E940F
:103AA000B51880E090E0A0E8BFE38B879C87AD87E6
:103AB000BE876B857C858D859E8520E030E04AEF52
:103AC00054E40E943B03DC01CB018F839887A987D4
:103AD000BA876F81788589859A8520E030E040E853
:103AE0005FE30E94410588232CF481E090E09E83EF
:103AF0008D833FC06F81788589859A8520E03FEF6F
:103B00004FE757E40E94E10418164CF56B857C855D
:103B10008D859E8520E030E040E251E40E943B0329
:103B2000DC01CB01BC01CD010E944900DC01CB01CD
:103B30009E838D830FC088EC90E09C838B838B8168
:103B40009C810197F1F79C838B838D819E810197E6
:103B50009E838D838D819E81009769F714C06F814C
:103B6000788589859A850E944900DC01CB019E8376
:103B70008D838D819E819A83898389819A81019722
:103B8000F1F79A8389832E960FB6F894DEBF0FBEA5
:103B9000CDBFCF91DF910895DF93CF930F92CDB733
:103BA000DEB789838981482F50E0CA019C01220F2A
:103BB000331F240F351FC901880F991F880F991FC4
:103BC000880F991F821B930B880F991F80960F9067
:103BD000CF91DF9108950F931F93DF93CF93CDB7CC
:103BE000DEB728970FB6F894DEBF0FBECDBF8C832B
:103BF0007E836D8358874F838C810E94CC1D9B836D
:103C00008A838A819B810E94CC0CEF81F885808316
:103C1000198217C08981282F30E08D819E818C0107
:103C2000020F131F8981282F30E08A819B81820F28
:103C3000931F01960E94CC0CF801808389818F5FCD
:103C40008983EF81F88590818981891718F3EF8145
:103C5000F8858081282F30E08D819E81FC01E20F64
:103C6000F31F108228960FB6F894DEBF0FBECDBFAB
:103C7000CF91DF911F910F910895DF93CF93CDB72F
:103C8000DEB727970FB6F894DEBF0FBECDBF8C838B
:103C90007E836D834F838C810E94CC1D9B838A839E
:103CA0008A819B816F810E94990C19821AC0898137
:103CB000282F30E08A819B81820F931FAC014F5FD8
:103CC0005F4F8981282F30E08D819E81FC01E20FBA
:103CD000F31F2081CA01622F0E94990C89818F5F96
:103CE000898399818F81981710F327960FB6F894DE
:103CF000DEBF0FBECDBFCF91DF9108950F931F930D
:103D0000DF93CF93CDB7DEB728970FB6F894DEBF19
:103D10000FBECDBF8C837E836D8358874F838C818C
:103D20000E94CC1D9B838A838A819B8145960E9439
:103D3000CC0CEF81F8858083198217C08981282FE8
:103D400030E08D819E818C01020F131F8981282F05
:103D500030E08A819B81820F931F46960E94CC0C93
:103D6000F801808389818F5F8983EF81F885908155
:103D70008981891718F3EF81F8858081282F30E039
:103D80008D819E81FC01E20FF31F108228960FB6F1
:103D9000F894DEBF0FBECDBFCF91DF911F910F9181
:103DA0000895DF93CF93CDB7DEB727970FB6F8947A
:103DB000DEBF0FBECDBF8C837E836D834F838C812E
:103DC0000E94CC1D9B838A838A819B8145966F814B
:103DD0000E94990C19821AC08981282F30E08A81AB
:103DE0009B81820F931FAC014A5E5F4F8981282F10
:103DF00030E08D819E81FC01E20FF31F2081CA011A
:103E0000622F0E94990C89818F5F898399818F81AC
:103E1000981710F327960FB6F894DEBF0FBECDBFEC
:103E2000CF91DF910895DF93CF93CDB7DEB7299778
:103E30000FB6F894DEBF0FBECDBF9F838E83688719
:103E40008885883010F4198671C01D821C821B82FF
:103E50001A82198250C08981282F30E08E819F817B
:103E6000FC01E20FF31F8081813470F08981282FDB
:103E700030E08E819F81FC01E20FF31F80818B3542
:103E800018F481E08D8334C08981282F30E08E8141
:103E90009F81FC01E20FF31F8081813670F08981E0
:103EA000282F30E08E819F81FC01E20FF31F80817B
:103EB0008B3718F481E08C831BC08981282F30E078
:103EC0008E819F81FC01E20FF31F8081803370F0AF
:103ED0008981282F30E08E819F81FC01E20FF31F42
:103EE00080818A3318F481E08B8302C081E08A8369
:103EF00089818F5F898399818885981708F4ABCF72
:103F00008D81882311F4198611C08C81882311F4C6
:103F100019860CC08B81882311F4198607C08A8109
:103F2000882311F4198602C081E089878985299642
:103F30000FB6F894DEBF0FBECDBFCF91DF910895CD
:103F4000DF93CF93CDB7DEB76D970FB6F894DEBF92
:103F50000FBECDBF9B8F8A8F6C8F1B823DC090910F
:103F600065058B818917A9F19E012C5F3F4FAE013A
:103F7000475E5F4F8B81B9010E94EB1D998D8C8D3F
:103F8000891739F581E08A83198219C08981282F20
:103F900030E08A8D9B8DFC01E20FF31F4081898107
:103FA000282F30E0CE010496FC01E20FF31F808140
:103FB000481711F01A8207C089818F5F8983998120
:103FC0008C8D981718F38A81882319F081E08D8FE2
:103FD0000AC08B818F5F8B83909166058B818917D7
:103FE00008F4BDCF1D8E8D8D6D960FB6F894DEBF93
:103FF0000FBECDBFCF91DF910895DF93CF93CDB7A3
:10400000DEB762970FB6F894DEBF0FBECDBF8F87C5
:10401000688B0E94DA198F85282F30E03A8B298B24
:1040200089899A898330910551F129893A89243007
:1040300031055CF489899A8981309105B1F029892B
:104040003A8922303105B1F02DC089899A898530AD
:104050009105F9F029893A8925303105ACF0898933
:104060009A8986309105D1F01DC080E690E00E94CB
:10407000621A18C08FE690E00E94621A13C08DE7A2
:1040800090E00E94621A0EC08AE890E00E94621AD4
:1040900009C087E990E00E94621A04C084EA90E0B7
:1040A0000E94621A80E090E0AAE7B4E48B879C87C4
:1040B000AD87BE876B857C858D859E8520E030E051
:1040C0004AEF54E40E943B03DC01CB018F839887C5
:1040D000A987BA876F81788589859A8520E030E045
:1040E00040E85FE30E94410588232CF481E090E0E2
:1040F0009E838D833FC06F81788589859A8520E076
:104100003FEF4FE757E40E94E10418164CF56B852A
:104110007C858D859E8520E030E040E251E40E9460
:104120003B03DC01CB01BC01CD010E944900DC0155
:10413000CB019E838D830FC088EC90E09C838B83A2
:104140008B819C810197F1F79C838B838D819E816C
:1041500001979E838D838D819E81009769F714C09E
:104160006F81788589859A850E944900DC01CB01A1
:104170009E838D838D819E819A83898389819A8193
:104180000197F1F79A83898362960FB6F894DEBFA0
:104190000FBECDBFCF91DF910895DF93CF93CDB701
:1041A000DEB7A5970FB6F894DEBF0FBECDBF0E9455
:1041B000DA1981EB90E00E94621A188A8EE795E086
:1041C0000E94DB0980939305809193058823B1F7C2
:1041D00080917E058D3021F080917E058F3021F415
:1041E0008889853058F5EACF80917E05883081F442
:1041F0008889882319F388898150888B80E10E94FF
:10420000B51880E20E94911880E10E94B518D6CFBF
:104210008889843198F68889282F30E040917E057E
:10422000CE014196FC01E20FF31F408388898F5F26
:10423000888B80917E050E949118C0CF8889282F95
:1042400030E0CE014196FC01E20FF31F1082CE0157
:10425000419668890E94A01F882309F479C00E94B2
:10426000DA198FEB90E00E94621A80E090E0AAE7F2
:10427000B4E48B879C87AD87BE876B857C858D85F5
:104280009E8520E030E04AEF54E40E943B03DC01CD
:10429000CB018F839887A987BA876F8178858985B5
:1042A0009A8520E030E040E85FE30E9441058823E2
:1042B0002CF481E090E09E838D833FC06F817885F0
:1042C00089859A8520E03FEF4FE757E40E94E1049B
:1042D00018164CF56B857C858D859E8520E030E039
:1042E00040E251E40E943B03DC01CB01BC01CD0163
:1042F0000E944900DC01CB019E838D830FC088ECB6
:1043000090E09C838B838B819C810197F1F79C8348
:104310008B838D819E8101979E838D838D819E816C
:10432000009769F747C06F81788589859A850E94D3
:104330004900DC01CB019E838D838D819E819A8310
:10434000898389819A810197F1F79A83898332C0A1
:10435000809165059E012F5E3F4FB90148890E94FB
:104360003D1E8889809363051F8613C08F85482F63
:1043700050E08F85282F30E0CE014196FC01E20FFE
:10438000F31F8081FA01E158FA4F80838F858F5F98
:104390008F879F858889981748F38889882F90E0B0
:1043A000FC01E158FA4F10829091650584E0692F75
:1043B0000E94FD1FA5960FB6F894DEBF0FBECDBFBD
:1043C000CF91DF910895DF93CF93CDB7DEB7C75577
:1043D000D0400FB6F894DEBF0FBECDBF0E94DA19F1
:1043E00080ED90E00E94621A1CA68EE795E00E9484
:1043F000DB0980939305809193058823B1F7809121
:104400007E058D3069F180917E058F3049F1809174
:104410007E05883081F48CA5882339F38CA58150E2
:104420008CA780E10E94B51880E20E94911880E17B
:104430000E94B518DACF8CA58431B8F68CA5282F48
:1044400030E040917E05CE018D96FC01E20FF31F16
:1044500040838CA58F5F8CA78AE20E949118C5CFFC
:10446000809165059E012E5B3F4FAE01495A5F4F1B
:10447000B9010E947E1EFE01E95AFF4F90818CA572
:10448000891709F479C00E94DA198EED90E00E9434
:10449000621A80E090E0AAE7B4E48FA398A7A9A7E6
:1044A000BAA76FA178A589A59AA520E030E04AEFC8
:1044B00054E40E943B03DC01CB018BA39CA3ADA37E
:1044C000BEA36BA17CA18DA19EA120E030E040E8BD
:1044D0005FE30E94410588232CF481E090E09AA3D9
:1044E00089A33FC06BA17CA18DA19EA120E03FEFDD
:1044F0004FE757E40E94E10418164CF56FA178A528
:1045000089A59AA520E030E040E251E40E943B03F7
:10451000DC01CB01BC01CD010E944900DC01CB01D3
:104520009AA389A30FC088EC90E098A38F8F8F8DFA
:1045300098A10197F1F798A38F8F89A19AA101976C
:104540009AA389A389A19AA1009769F79AC16BA13F
:104550007CA18DA19EA10E944900DC01CB019AA300
:1045600089A389A19AA19E8F8D8F8D8D9E8D019794
:10457000F1F79E8F8D8F85C11BA692C08BA5282F2A
:1045800030E0CE018D96FC01E20FF31F40818BA538
:10459000282F30E0CE018E5B9F4FFC01E20FF31F0E
:1045A0008081481709F479C00E94DA198EED90E0F5
:1045B0000E94621A80E090E0AAE7B4E4898F9A8FA3
:1045C000AB8FBC8F698D7A8D8B8D9C8D20E030E018
:1045D0004AEF54E40E943B03DC01CB018D8B9E8BA0
:1045E000AF8BB88F6D897E898F89988D20E030E000
:1045F00040E85FE30E94410588232CF481E090E0CD
:104600009C8B8B8B3FC06D897E898F89988D20E034
:104610003FEF4FE757E40E94E10418164CF5698D0F
:104620007A8D8B8D9C8D20E030E040E251E40E9439
:104630003B03DC01CB01BC01CD010E944900DC0140
:10464000CB019C8B8B8B0FC088EC90E09A8B898B75
:1046500089899A890197F1F79A8B898B8B899C8933
:1046600001979C8B8B8B8B899C89009769F709C17B
:104670006D897E898F89988D0E944900DC01CB016C
:104680009C8B8B8B8B899C89988B8F878F85988946
:104690000197F1F7988B8F87F4C08BA58F5F8BA75D
:1046A0009BA58CA5981708F469CF0E94DA198EEEA5
:1046B00090E00E94621A82E061E00E94D61B8CEFBB
:1046C00090E00E94621A68E070E080E090E00E9452
:1046D0008B1A1CA68EE795E00E94DB098093930558
:1046E000809193058823B1F780917E058D3021F06C
:1046F00080917E058F3021F48CA5883050F5EACF6B
:1047000080917E05883081F48CA5882319F38CA5CF
:1047100081508CA780E10E94B51880E20E94911818
:1047200080E10E94B518D6CF8CA5843198F68CA56F
:10473000282F30E040917E05CE018D96FC01E20FDE
:10474000F31F40838CA58F5F8CA78AE20E9491188B
:10475000C1CFCE018D966CA50E94131F882309F04E
:1047600081C00E94DA1986E091E00E94621A82E01C
:1047700061E00E94D61B85E191E00E94621A80E010
:1047800090E0AAEFB4E48B879C87AD87BE876B85EA
:104790007C858D859E8520E030E04AEF54E40E94C0
:1047A0003B03DC01CB018F839887A987BA876F8190
:1047B000788589859A8520E030E040E85FE30E94B3
:1047C000410588232CF481E090E09E838D833FC0D7
:1047D0006F81788589859A8520E03FEF4FE757E420
:1047E0000E94E10418164CF56B857C858D859E85AD
:1047F00020E030E040E251E40E943B03DC01CB01C9
:10480000BC01CD010E944900DC01CB019E838D8358
:104810000FC088EC90E09C838B838B819C810197F7
:10482000F1F79C838B838D819E8101979E838D837D
:104830008D819E81009769F724C06F817885898575
:104840009A850E944900DC01CB019E838D838D8176
:104850009E819A83898389819A810197F1F79A834E
:1048600089830FC0809165059E01235D3F4FB9018B
:104870004CA50E94D11E9091650583E0692F0E948E
:10488000FD1FC95ADF4F0FB6F894DEBF0FBECDBF74
:10489000CF91DF910895DF93CF93CDB7DEB7C8579F
:1048A000D0400FB6F894DEBF0FBECDBF0E94DA191C
:1048B00083E291E00E94621A82E061E00E94D61BCE
:1048C00081E391E00E94621A18A28EE795E00E94AF
:1048D000DB0980939305809193058823B1F780913C
:1048E0007E058D3069F180917E058F3049F1809190
:1048F0007E05883081F488A1882339F388A181500E
:1049000088A380E10E94B51880E20E94911880E19E
:104910000E94B518DACF88A18431B8F688A1282F73
:1049200030E040917E05CE018196FC01E20FF31F3D
:10493000408388A18F5F88A38AE20E949118C5CF27
:10494000809165059E012A5C3F4FAE01455B5F4F3C
:10495000B9010E947E1EFE01E55BFF4F908188A198
:10496000891709F47CC00E94DA198EED90E00E944C
:10497000621A80E090E0AAE7B4E4898F9A8FAB8F47
:10498000BC8F698D7A8D8B8D9C8D20E030E04AEF55
:1049900054E40E943B03DC01CB018D8B9E8BAF8BDB
:1049A000B88F6D897E898F89988D20E030E040E84E
:1049B0005FE30E94410588232CF481E090E09C8B0A
:1049C0008B8B3FC06D897E898F89988D20E03FEF6A
:1049D0004FE757E40E94E10418164CF5698D7A8D73
:1049E0008B8D9C8D20E030E040E251E40E943B033F
:1049F000DC01CB01BC01CD010E944900DC01CB01EF
:104A00009C8B8B8B0FC088EC90E09A8B898B89896B
:104A10009A890197F1F79A8B898B8B899C890197E9
:104A20009C8B8B8B8B899C89009769F714C06D894F
:104A30007E898F89988D0E944900DC01CB019C8B77
:104A40008B8B8B899C89988B8F878F859889019711
:104A5000F1F7988B8F87E9961FAEE997F2C01F8E0A
:104A600094C08F8D282F30E0CE018196FC01E20F9B
:104A7000F31F40818F8D282F30E0CE01C696FC01B8
:104A8000E20FF31F8081481709F47CC00E94DA19F5
:104A90008EED90E00E94621A80E090E0AAE7B4E414
:104AA0008B879C87AD87BE876B857C858D859E8532
:104AB00020E030E04AEF54E40E943B03DC01CB01EC
:104AC0008F839887A987BA876F81788589859A852A
:104AD00020E030E040E85FE30E94410588232CF4A9
:104AE00081E090E09E838D833FC06F8178858985CA
:104AF0009A8520E03FEF4FE757E40E94E104181643
:104B00004CF56B857C858D859E8520E030E040E20C
:104B100051E40E943B03DC01CB01BC01CD010E94AA
:104B20004900DC01CB019E838D830FC088EC90E0AF
:104B30009C838B838B819C810197F1F79C838B8372
:104B40008D819E8101979E838D838D819E810097AB
:104B500069F714C06F81788589859A850E9449001C
:104B6000DC01CB019E838D838D819E819A83898315
:104B700089819A810197F1F79A838983E9961FAE1B
:104B8000E9975FC08F8D8F5F8F8F9F8D88A198175A
:104B900008F467CF809165058E8F32C08E8D8F5F50
:104BA0008D8F9E01245B3F4FAE014A585F4F8D8D24
:104BB000B9010E94EB1D9E012F593F4FAE0149588C
:104BC0005F4F8D8DB9010E947E1EFE01EA58FF4F96
:104BD00090819E01245B3F4F8E8DB901492F0E9429
:104BE0003D1EFE01E958FF4F90819E012F593F4F16
:104BF0008E8DB901492F0E94D11E8E8D8F5F8E8FB1
:104C00008E8D282F30E080916605882F90E00197E7
:104C1000281739071CF2809166058150809366053C
:104C20002091660583E190E0622F0E94990C90919B
:104C3000650585E0692F0E94FD1F81E0E9968FAF31
:104C4000E997E9968FADE997C858DF4F0FB6F8940A
:104C5000DEBF0FBECDBFCF91DF910895DF93CF931D
:104C6000CDB7DEB7AF970FB6F894DEBF0FBECDBF9E
:104C70008FA780916705882309F450C0909166053D
:104C80008FA5891708F04AC08FA58A832CC08A8116
:104C90008F5F89839E012D5F3F4FAE01435D5F4F64
:104CA0008981B9010E94EB1D9E01285E3F4FAE0134
:104CB000425D5F4F8981B9010E947E1E9DA59E01C4
:104CC0002D5F3F4F8A81B901492F0E943D1E9EA54D
:104CD0009E01285E3F4F8A81B901492F0E94D11E53
:104CE0008A818F5F8A838A81282F30E080916605D0
:104CF000882F90E00197281739074CF280916605BC
:104D00008150809366052091660583E190E0622FD3
:104D10000E94990C85E06FA50E94FD1FAF960FB60B
:104D2000F894DEBF0FBECDBFCF91DF910895DF9322
:104D3000CF93CDB7DEB7E3970FB6F894DEBF0FBEC3
:104D4000CDBF80916705882309F432C10E94DA192A
:104D500080E491E00E94621A1D8EB2C08D8D843075
:104D600008F483C084E061E00E94D61B8CE491E0EB
:104D70000E94621A80E090E0AAEFB4E4898F9A8FD3
:104D8000AB8FBC8F698D7A8D8B8D9C8D20E030E050
:104D90004AEF54E40E943B03DC01CB018D8B9E8BD8
:104DA000AF8BB88F6D897E898F89988D20E030E038
:104DB00040E85FE30E94410588232CF481E090E005
:104DC0009C8B8B8B3FC06D897E898F89988D20E06D
:104DD0003FEF4FE757E40E94E10418164CF5698D48
:104DE0007A8D8B8D9C8D20E030E040E251E40E9472
:104DF0003B03DC01CB01BC01CD010E944900DC0179
:104E0000CB019C8B8B8B0FC088EC90E09A8B898BAD
:104E100089899A890197F1F79A8B898B8B899C896B
:104E200001979C8B8B8B8B899C89009769F714C0A9
:104E30006D897E898F89988D0E944900DC01CB01A4
:104E40009C8B8B8B8B899C89988B8F878F8598897E
:104E50000197F1F7988B8F870E94DA1980E491E02F
:104E60000E94621A8D8D83508D8F9E01225E3F4F6E
:104E7000AE014D5C5F4F8D8DB9010E94EB1D8D8D94
:104E800093E0692F0E94243A892F8F5F61E00E948E
:104E9000D61B8D8D882F90E00196AA2797FDA095AF
:104EA000BA2FBC01CD010E948B1A84E591E00E94CB
:104EB000621ACE014E960E94621A8D8D8F5F8D8F81
:104EC000909166058D8D891708F448CF80E090E8B1
:104ED000ABE3B5E48B879C87AD87BE876B857C850C
:104EE0008D859E8520E030E04AEF54E40E943B032C
:104EF000DC01CB018F839887A987BA876F8178857A
:104F000089859A8520E030E040E85FE30E94410512
:104F100088232CF481E090E09E838D833FC06F81D5
:104F2000788589859A8520E03FEF4FE757E40E9416
:104F3000E10418164CF56B857C858D859E8520E0F7
:104F400030E040E251E40E943B03DC01CB01BC01B4
:104F5000CD010E944900DC01CB019E838D830FC0EF
:104F600088EC90E09C838B838B819C810197F1F787
:104F70009C838B838D819E8101979E838D838D8100
:104F80009E81009769F714C06F81788589859A851D
:104F90000E944900DC01CB019E838D838D819E811F
:104FA0009A83898389819A810197F1F79A8389830A
:104FB000E3960FB6F894DEBF0FBECDBFCF91DF9161
:104FC0000895DF93CF9300D0CDB7DEB70E94DA19F2
:104FD00087E591E00E94621A82E061E00E94D61BA0
:104FE00085E691E00E94621A83E061E00E94D61B90
:104FF00083E791E00E94621A84E061E00E94D61B80
:1050000084E891E00E94621A8EE795E00E94DB0935
:1050100080939305809193058823B1F780917E0555
:10502000813390F380917E05853370F780917E0502
:10503000282F30E03A83298389819A818233910530
:10504000C9F029813A812333310534F489819A8169
:105050008133910561F0BACF29813A81233331053B
:1050600061F089819A818433910561F0AFCF0E940C
:10507000E321ACCF0E94CD20A9CF0E944B248823EE
:1050800009F4A4CF0F900F90CF91DF910895DF9393
:10509000CF9300D00F92CDB7DEB70E94DA198DE81A
:1050A00091E00E94621A82E061E00E94D61B8AE9C8
:1050B00091E00E94621A83E061E00E94D61B88EAB8
:1050C00091E00E94621A84E061E00E94D61B84E8AD
:1050D00091E00E94621A8EE795E00E94DB098093BE
:1050E0009305809193058823B1F780917E058133E4
:1050F00090F380917E05853370F780917E05282F8F
:1051000030E03B832A838A819B8182339105D9F0E9
:105110002A813B812333310534F48A819B81813399
:10512000910571F0BACF2A813B812333310509F40F
:1051300050C08A819B818433910509F44DC0ADCF65
:105140000E949726AACF0E94DA1984EB91E00E9470
:10515000621A19828EE795E00E94DB09809393051D
:10516000809193058823B1F780917E058033E0F02C
:1051700080917E058A33C0F48981882F90E09C015C
:10518000220F331FC901880F991F880F991F820FA3
:10519000931F982F80917E05890F8053898380917A
:1051A0007E050E949118D6CF80917E058D3021F02A
:1051B00080917E058F3071F68981882359F2909114
:1051C00066058981981730F2898181500E942E26C8
:1051D00064CF0E94E12761CF0F900F900F90CF9185
:1051E000DF910895DF93CF93CDB7DEB783E190E0F1
:1051F0000E94CC0C80936605809166058F3F49F430
:10520000109266052091660583E190E0622F0E946E
:10521000990C82E190E00E94CC0C8F3F61F082E11A
:1052200090E00E94CC0C8093550580915505882311
:1052300011F40E943E2ECF91DF910895DF93CF931A
:10524000CDB7DEB7E2970FB6F894DEBF0FBECDBF85
:1052500080916605873108F479C00E94DA1981ECE3
:1052600091E00E94621A80E090E0AAE7B4E4898F9E
:105270009A8FAB8FBC8F698D7A8D8B8D9C8D20E042
:1052800030E04AEF54E40E943B03DC01CB018D8BFC
:105290009E8BAF8BB88F6D897E898F89988D20E02A
:1052A00030E040E85FE30E94410588232CF481E070
:1052B00090E09C8B8B8B3FC06D897E898F89988D08
:1052C00020E03FEF4FE757E40E94E10418164CF549
:1052D000698D7A8D8B8D9C8D20E030E040E251E429
:1052E0000E943B03DC01CB01BC01CD010E944900BF
:1052F000DC01CB019C8B8B8B0FC088EC90E09A8BF0
:10530000898B89899A890197F1F79A8B898B8B8987
:105310009C8901979C8B8B8B8B899C89009769F763
:105320003DC16D897E898F89988D0E944900DC017D
:10533000CB019C8B8B8B8B899C89988B8F878F85DE
:1053400098890197F1F7988B8F8728C10E94DA1905
:1053500083ED91E00E94621A82E061E00E94D61B18
:1053600080EE91E00E94621A64E170E080E090E0DB
:105370000E948B1A1092630580916305882309F4BB
:105380008EC00E94DA198CEE91E00E94621A65E0EC
:1053900070E080E090E00E948B1A80E090E0AAE745
:1053A000B4E48B879C87AD87BE876B857C858D85B4
:1053B0009E8520E030E04AEF54E40E943B03DC018C
:1053C000CB018F839887A987BA876F817885898574
:1053D0009A8520E030E040E85FE30E9441058823A1
:1053E0002CF481E090E09E838D833FC06F817885AF
:1053F00089859A8520E03FEF4FE757E40E94E1045A
:1054000018164CF56B857C858D859E8520E030E0F7
:1054100040E251E40E943B03DC01CB01BC01CD0121
:105420000E944900DC01CB019E838D830FC088EC74
:1054300090E09C838B838B819C810197F1F79C8307
:105440008B838D819E8101979E838D838D819E812B
:10545000009769F714C06F81788589859A850E94C5
:105460004900DC01CB019E838D838D819E819A83CF
:10547000898389819A810197F1F79A8389830E94B0
:10548000DA1983ED91E00E94621A82E061E00E94E5
:10549000D61B80EE91E00E94621A1092630583E0B1
:1054A00061E00E94D61B8EE795E00E94DB098093A5
:1054B0009305809193058823B1F780917E058D3007
:1054C00021F080917E058F3029F48091630585302D
:1054D00048F5E9CF80917E05883051F480916305CD
:1054E000882309F380916305815080936305DBCFA6
:1054F000809163058431B8F680916305282F30E0F0
:1055000040917E05CE014E96FC01E20FF31F4083D1
:1055100080917E050E949118809163058F5F809332
:105520006305C1CF80916305853008F425CF809154
:105530006305282F30E0CE014E96FC01E20FF31FE9
:10554000108280916605909163059E01225E3F4F17
:10555000B901492F0E943D1E1D8E13C08D8D482F0D
:1055600050E08D8D282F30E0CE014E96FC01E20FE9
:10557000F31F8081FA01E158FA4F80838D8D8F5F90
:105580008D8F909163058D8D891740F38091630510
:10559000882F90E0FC01E158FA4F1082E2960FB696
:1055A000F894DEBF0FBECDBFCF91DF910895DF939A
:1055B000CF93CDB7DEB7A3970FB6F894DEBF0FBE7B
:1055C000CDBF0E94DA1989EF91E00E94621A82E051
:1055D00061E00E94D61B80EE91E00E94621A64E1B5
:1055E00070E080E090E00E948B1A10926405809138
:1055F0006405882309F486C00E94DA198CEE91E0D4
:105600000E94621A68E070E080E090E00E948B1ACD
:1056100080E090E0AAE7B4E48B879C87AD87BE87E3
:105620006B857C858D859E8520E030E04AEF54E4D3
:105630000E943B03DC01CB018F839887A987BA873F
:105640006F81788589859A8520E030E040E85FE3C6
:105650000E94410588232CF481E090E09E838D8395
:105660003FC06F81788589859A8520E03FEF4FE7BD
:1056700057E40E94E10418164CF56B857C858D85F6
:105680009E8520E030E040E251E40E943B03DC01D3
:10569000CB01BC01CD010E944900DC01CB019E83FE
:1056A0008D830FC088EC90E09C838B838B819C81E1
:1056B0000197F1F79C838B838D819E8101979E8357
:1056C0008D838D819E81009769F714C06F817885E5
:1056D00089859A850E944900DC01CB019E838D83D8
:1056E0008D819E819A83898389819A810197F1F7BF
:1056F0009A8389830E94DA1989EF91E00E94621AE5
:10570000109264058EE795E00E94DB098093930573
:10571000809193058823B1F780917E058D3021F02B
:1057200080917E058F3029F480916405883040F5A2
:10573000E9CF80917E05883051F4809164058823FB
:1057400009F380916405815080936405DBCF8091DB
:1057500064058431B8F680916405282F30E04091CB
:105760007E05CE010F96FC01E20FF31F40838AE213
:105770000E949118809164058F5F80936405C2CF69
:1057800080916405883008F432CF8091660590914D
:1057900064059E01215F3F4FB901492F0E94D11E30
:1057A000809166058F5F809366052091660583E191
:1057B00090E0622F0E94990CA3960FB6F894DEBF7A
:1057C0000FBECDBFCF91DF910895DF93CF93CDB7BB
:1057D000DEB76A970FB6F894DEBF0FBECDBF0E944A
:1057E000DA1986E092E00E94621A1C821092560535
:1057F0008EE795E00E94DB098093930580919305E5
:105800008823B1F780917E058D30F9F080917E0577
:105810008F30D9F080917E05883039F48C818823CF
:1058200039F38C8181508C83E3CF8C81843100F7F4
:105830008C81882F90E020917E05FC01E759FA4F7A
:1058400020838C818F5F8C83D3CF8C81882F90E0D5
:10585000FC01E759FA4F10821B823AC09E012B5F70
:105860003F4FAE01465E5F4F8B81B9010E94EB1D39
:105870009A8D8C81891749F581E08A83198217C036
:105880008981882F90E0FC01E759FA4F4081898196
:10589000282F30E0CE010596FC01E20FF31F808136
:1058A000481711F01A8207C089818F5F8983998117
:1058B0008C81981728F38A81882339F081E08093BE
:1058C00056058B818093650508C08B818F5F8B8324
:1058D000909166058B81891708F26A960FB6F89445
:1058E000DEBF0FBECDBFCF91DF910895DF93CF9381
:1058F000CDB7DEB768970FB6F894DEBF0FBECDBF49
:105900000E94DA1985E192E00E94621A1A821092CE
:1059100057058EE795E00E94DB09809393058091FF
:1059200093058823B1F780917E058D3011F1809128
:105930007E058F30F1F080917E05883039F48A81C0
:10594000882339F38A8181508A83E3CF8A81843125
:1059500000F78A81882F90E020917E05FC01E759AD
:10596000FA4F20838AE20E9491188A818F5F8A838E
:10597000D0CF809165059E012D5F3F4FAE01485EFF
:105980005F4FB9010E947E1E988D8A81891709F5A3
:1059900081E080935705198218C08981882F90E093
:1059A000FC01E759FA4F40818981282F30E0CE0170
:1059B0000396FC01E20FF31F8081481719F0109243
:1059C000570507C089818F5F898399818A819817DC
:1059D00020F368960FB6F894DEBF0FBECDBFCF910F
:1059E000DF910895DF93CF93CDB7DEB76C970FB6F5
:1059F000F894DEBF0FBECDBF0E94E52B8091560507
:105A0000882311F00E94762C80915605882329F076
:105A100080915705882309F09FC00E94DA1984E21B
:105A200092E00E94621A809155058150809355053D
:105A30002091550582E190E0622F0E94990C80919F
:105A40005505882309F485C082E061E00E94D61BD9
:105A500082E392E00E94621A80915505882F90E0BF
:105A6000A0E0B0E0BC01CD010E948B1A80E090E084
:105A7000AAE7B4E4898F9A8FAB8FBC8F698D7A8D3A
:105A80008B8D9C8D20E030E04AEF54E40E943B0374
:105A9000DC01CB018D8B9E8BAF8BB88F6D897E899E
:105AA0008F89988D20E030E040E85FE30E94410557
:105AB00088232CF481E090E09C8B8B8B3FC06D8918
:105AC0007E898F89988D20E03FEF4FE757E40E9451
:105AD000E10418164CF5698D7A8D8B8D9C8D20E034
